{
  "abi": [
    {
      "inputs": [
        {
          "internalType": "address",
          "name": "conduitController",
          "type": "address"
        }
      ],
      "stateMutability": "nonpayable",
      "type": "constructor"
    },
    {
      "inputs": [],
      "name": "BadContractSignature",
      "type": "error"
    },
    {
      "inputs": [],
      "name": "BadFraction",
      "type": "error"
    },
    {
      "inputs": [
        {
          "internalType": "address",
          "name": "token",
          "type": "address"
        },
        {
          "internalType": "address",
          "name": "from",
          "type": "address"
        },
        {
          "internalType": "address",
          "name": "to",
          "type": "address"
        },
        {
          "internalType": "uint256",
          "name": "amount",
          "type": "uint256"
        }
      ],
      "name": "BadReturnValueFromERC20OnTransfer",
      "type": "error"
    },
    {
      "inputs": [
        {
          "internalType": "uint8",
          "name": "v",
          "type": "uint8"
        }
      ],
      "name": "BadSignatureV",
      "type": "error"
    },
    {
      "inputs": [],
      "name": "ConsiderationCriteriaResolverOutOfRange",
      "type": "error"
    },
    {
      "inputs": [
        {
          "internalType": "uint256",
          "name": "orderIndex",
          "type": "uint256"
        },
        {
          "internalType": "uint256",
          "name": "considerationIndex",
          "type": "uint256"
        },
        {
          "internalType": "uint256",
          "name": "shortfallAmount",
          "type": "uint256"
        }
      ],
      "name": "ConsiderationNotMet",
      "type": "error"
    },
    {
      "inputs": [],
      "name": "CriteriaNotEnabledForItem",
      "type": "error"
    },
    {
      "inputs": [
        {
          "internalType": "address",
          "name": "token",
          "type": "address"
        },
        {
          "internalType": "address",
          "name": "from",
          "type": "address"
        },
        {
          "internalType": "address",
          "name": "to",
          "type": "address"
        },
        {
          "internalType": "uint256[]",
          "name": "identifiers",
          "type": "uint256[]"
        },
        {
          "internalType": "uint256[]",
          "name": "amounts",
          "type": "uint256[]"
        }
      ],
      "name": "ERC1155BatchTransferGenericFailure",
      "type": "error"
    },
    {
      "inputs": [
        {
          "internalType": "address",
          "name": "account",
          "type": "address"
        },
        {
          "internalType": "uint256",
          "name": "amount",
          "type": "uint256"
        }
      ],
      "name": "EtherTransferGenericFailure",
      "type": "error"
    },
    {
      "inputs": [],
      "name": "InexactFraction",
      "type": "error"
    },
    {
      "inputs": [],
      "name": "InsufficientEtherSupplied",
      "type": "error"
    },
    {
      "inputs": [],
      "name": "InvalidBasicOrderParameterEncoding",
      "type": "error"
    },
    {
      "inputs": [
        {
          "internalType": "address",
          "name": "conduit",
          "type": "address"
        }
      ],
      "name": "InvalidCallToConduit",
      "type": "error"
    },
    {
      "inputs": [],
      "name": "InvalidCanceller",
      "type": "error"
    },
    {
      "inputs": [
        {
          "internalType": "bytes32",
          "name": "conduitKey",
          "type": "bytes32"
        },
        {
          "internalType": "address",
          "name": "conduit",
          "type": "address"
        }
      ],
      "name": "InvalidConduit",
      "type": "error"
    },
    {
      "inputs": [],
      "name": "InvalidERC721TransferAmount",
      "type": "error"
    },
    {
      "inputs": [],
      "name": "InvalidFulfillmentComponentData",
      "type": "error"
    },
    {
      "inputs": [
        {
          "internalType": "uint256",
          "name": "value",
          "type": "uint256"
        }
      ],
      "name": "InvalidMsgValue",
      "type": "error"
    },
    {
      "inputs": [],
      "name": "InvalidProof",
      "type": "error"
    },
    {
      "inputs": [],
      "name": "InvalidProxyImplementation",
      "type": "error"
    },
    {
      "inputs": [
        {
          "internalType": "bytes32",
          "name": "orderHash",
          "type": "bytes32"
        }
      ],
      "name": "InvalidRestrictedOrder",
      "type": "error"
    },
    {
      "inputs": [],
      "name": "InvalidSignature",
      "type": "error"
    },
    {
      "inputs": [],
      "name": "InvalidSigner",
      "type": "error"
    },
    {
      "inputs": [],
      "name": "InvalidTime",
      "type": "error"
    },
    {
      "inputs": [],
      "name": "MismatchedFulfillmentOfferAndConsiderationComponents",
      "type": "error"
    },
    {
      "inputs": [
        {
          "internalType": "enum Side",
          "name": "side",
          "type": "uint8"
        }
      ],
      "name": "MissingFulfillmentComponentOnAggregation",
      "type": "error"
    },
    {
      "inputs": [],
      "name": "MissingItemAmount",
      "type": "error"
    },
    {
      "inputs": [],
      "name": "MissingOriginalConsiderationItems",
      "type": "error"
    },
    {
      "inputs": [
        {
          "internalType": "address",
          "name": "account",
          "type": "address"
        }
      ],
      "name": "NoContract",
      "type": "error"
    },
    {
      "inputs": [],
      "name": "NoReentrantCalls",
      "type": "error"
    },
    {
      "inputs": [],
      "name": "NoSpecifiedOrdersAvailable",
      "type": "error"
    },
    {
      "inputs": [],
      "name": "OfferAndConsiderationRequiredOnFulfillment",
      "type": "error"
    },
    {
      "inputs": [],
      "name": "OfferCriteriaResolverOutOfRange",
      "type": "error"
    },
    {
      "inputs": [
        {
          "internalType": "bytes32",
          "name": "orderHash",
          "type": "bytes32"
        }
      ],
      "name": "OrderAlreadyFilled",
      "type": "error"
    },
    {
      "inputs": [],
      "name": "OrderCriteriaResolverOutOfRange",
      "type": "error"
    },
    {
      "inputs": [
        {
          "internalType": "bytes32",
          "name": "orderHash",
          "type": "bytes32"
        }
      ],
      "name": "OrderIsCancelled",
      "type": "error"
    },
    {
      "inputs": [
        {
          "internalType": "bytes32",
          "name": "orderHash",
          "type": "bytes32"
        }
      ],
      "name": "OrderPartiallyFilled",
      "type": "error"
    },
    {
      "inputs": [],
      "name": "PartialFillsNotEnabledForOrder",
      "type": "error"
    },
    {
      "inputs": [
        {
          "internalType": "address",
          "name": "token",
          "type": "address"
        },
        {
          "internalType": "address",
          "name": "from",
          "type": "address"
        },
        {
          "internalType": "address",
          "name": "to",
          "type": "address"
        },
        {
          "internalType": "uint256",
          "name": "identifier",
          "type": "uint256"
        },
        {
          "internalType": "uint256",
          "name": "amount",
          "type": "uint256"
        }
      ],
      "name": "TokenTransferGenericFailure",
      "type": "error"
    },
    {
      "inputs": [],
      "name": "UnresolvedConsiderationCriteria",
      "type": "error"
    },
    {
      "inputs": [],
      "name": "UnresolvedOfferCriteria",
      "type": "error"
    },
    {
      "anonymous": false,
      "inputs": [
        {
          "indexed": false,
          "internalType": "uint256",
          "name": "newNonce",
          "type": "uint256"
        },
        {
          "indexed": true,
          "internalType": "address",
          "name": "offerer",
          "type": "address"
        }
      ],
      "name": "NonceIncremented",
      "type": "event"
    },
    {
      "anonymous": false,
      "inputs": [
        {
          "indexed": false,
          "internalType": "bytes32",
          "name": "orderHash",
          "type": "bytes32"
        },
        {
          "indexed": true,
          "internalType": "address",
          "name": "offerer",
          "type": "address"
        },
        {
          "indexed": true,
          "internalType": "address",
          "name": "zone",
          "type": "address"
        }
      ],
      "name": "OrderCancelled",
      "type": "event"
    },
    {
      "anonymous": false,
      "inputs": [
        {
          "indexed": false,
          "internalType": "bytes32",
          "name": "orderHash",
          "type": "bytes32"
        },
        {
          "indexed": true,
          "internalType": "address",
          "name": "offerer",
          "type": "address"
        },
        {
          "indexed": true,
          "internalType": "address",
          "name": "zone",
          "type": "address"
        },
        {
          "indexed": false,
          "internalType": "address",
          "name": "fulfiller",
          "type": "address"
        },
        {
          "components": [
            {
              "internalType": "enum ItemType",
              "name": "itemType",
              "type": "uint8"
            },
            {
              "internalType": "address",
              "name": "token",
              "type": "address"
            },
            {
              "internalType": "uint256",
              "name": "identifier",
              "type": "uint256"
            },
            {
              "internalType": "uint256",
              "name": "amount",
              "type": "uint256"
            }
          ],
          "indexed": false,
          "internalType": "struct SpentItem[]",
          "name": "offer",
          "type": "tuple[]"
        },
        {
          "components": [
            {
              "internalType": "enum ItemType",
              "name": "itemType",
              "type": "uint8"
            },
            {
              "internalType": "address",
              "name": "token",
              "type": "address"
            },
            {
              "internalType": "uint256",
              "name": "identifier",
              "type": "uint256"
            },
            {
              "internalType": "uint256",
              "name": "amount",
              "type": "uint256"
            },
            {
              "internalType": "address payable",
              "name": "recipient",
              "type": "address"
            }
          ],
          "indexed": false,
          "internalType": "struct ReceivedItem[]",
          "name": "consideration",
          "type": "tuple[]"
        }
      ],
      "name": "OrderFulfilled",
      "type": "event"
    },
    {
      "anonymous": false,
      "inputs": [
        {
          "indexed": false,
          "internalType": "bytes32",
          "name": "orderHash",
          "type": "bytes32"
        },
        {
          "indexed": true,
          "internalType": "address",
          "name": "offerer",
          "type": "address"
        },
        {
          "indexed": true,
          "internalType": "address",
          "name": "zone",
          "type": "address"
        }
      ],
      "name": "OrderValidated",
      "type": "event"
    },
    {
      "inputs": [
        {
          "components": [
            {
              "internalType": "address",
              "name": "offerer",
              "type": "address"
            },
            {
              "internalType": "address",
              "name": "zone",
              "type": "address"
            },
            {
              "components": [
                {
                  "internalType": "enum ItemType",
                  "name": "itemType",
                  "type": "uint8"
                },
                {
                  "internalType": "address",
                  "name": "token",
                  "type": "address"
                },
                {
                  "internalType": "uint256",
                  "name": "identifierOrCriteria",
                  "type": "uint256"
                },
                {
                  "internalType": "uint256",
                  "name": "startAmount",
                  "type": "uint256"
                },
                {
                  "internalType": "uint256",
                  "name": "endAmount",
                  "type": "uint256"
                }
              ],
              "internalType": "struct OfferItem[]",
              "name": "offer",
              "type": "tuple[]"
            },
            {
              "components": [
                {
                  "internalType": "enum ItemType",
                  "name": "itemType",
                  "type": "uint8"
                },
                {
                  "internalType": "address",
                  "name": "token",
                  "type": "address"
                },
                {
                  "internalType": "uint256",
                  "name": "identifierOrCriteria",
                  "type": "uint256"
                },
                {
                  "internalType": "uint256",
                  "name": "startAmount",
                  "type": "uint256"
                },
                {
                  "internalType": "uint256",
                  "name": "endAmount",
                  "type": "uint256"
                },
                {
                  "internalType": "address payable",
                  "name": "recipient",
                  "type": "address"
                }
              ],
              "internalType": "struct ConsiderationItem[]",
              "name": "consideration",
              "type": "tuple[]"
            },
            {
              "internalType": "enum OrderType",
              "name": "orderType",
              "type": "uint8"
            },
            {
              "internalType": "uint256",
              "name": "startTime",
              "type": "uint256"
            },
            {
              "internalType": "uint256",
              "name": "endTime",
              "type": "uint256"
            },
            {
              "internalType": "bytes32",
              "name": "zoneHash",
              "type": "bytes32"
            },
            {
              "internalType": "uint256",
              "name": "salt",
              "type": "uint256"
            },
            {
              "internalType": "bytes32",
              "name": "conduitKey",
              "type": "bytes32"
            },
            {
              "internalType": "uint256",
              "name": "nonce",
              "type": "uint256"
            }
          ],
          "internalType": "struct OrderComponents[]",
          "name": "orders",
          "type": "tuple[]"
        }
      ],
      "name": "cancel",
      "outputs": [
        {
          "internalType": "bool",
          "name": "",
          "type": "bool"
        }
      ],
      "stateMutability": "nonpayable",
      "type": "function"
    },
    {
      "inputs": [
        {
          "components": [
            {
              "components": [
                {
                  "internalType": "address",
                  "name": "offerer",
                  "type": "address"
                },
                {
                  "internalType": "address",
                  "name": "zone",
                  "type": "address"
                },
                {
                  "components": [
                    {
                      "internalType": "enum ItemType",
                      "name": "itemType",
                      "type": "uint8"
                    },
                    {
                      "internalType": "address",
                      "name": "token",
                      "type": "address"
                    },
                    {
                      "internalType": "uint256",
                      "name": "identifierOrCriteria",
                      "type": "uint256"
                    },
                    {
                      "internalType": "uint256",
                      "name": "startAmount",
                      "type": "uint256"
                    },
                    {
                      "internalType": "uint256",
                      "name": "endAmount",
                      "type": "uint256"
                    }
                  ],
                  "internalType": "struct OfferItem[]",
                  "name": "offer",
                  "type": "tuple[]"
                },
                {
                  "components": [
                    {
                      "internalType": "enum ItemType",
                      "name": "itemType",
                      "type": "uint8"
                    },
                    {
                      "internalType": "address",
                      "name": "token",
                      "type": "address"
                    },
                    {
                      "internalType": "uint256",
                      "name": "identifierOrCriteria",
                      "type": "uint256"
                    },
                    {
                      "internalType": "uint256",
                      "name": "startAmount",
                      "type": "uint256"
                    },
                    {
                      "internalType": "uint256",
                      "name": "endAmount",
                      "type": "uint256"
                    },
                    {
                      "internalType": "address payable",
                      "name": "recipient",
                      "type": "address"
                    }
                  ],
                  "internalType": "struct ConsiderationItem[]",
                  "name": "consideration",
                  "type": "tuple[]"
                },
                {
                  "internalType": "enum OrderType",
                  "name": "orderType",
                  "type": "uint8"
                },
                {
                  "internalType": "uint256",
                  "name": "startTime",
                  "type": "uint256"
                },
                {
                  "internalType": "uint256",
                  "name": "endTime",
                  "type": "uint256"
                },
                {
                  "internalType": "bytes32",
                  "name": "zoneHash",
                  "type": "bytes32"
                },
                {
                  "internalType": "uint256",
                  "name": "salt",
                  "type": "uint256"
                },
                {
                  "internalType": "bytes32",
                  "name": "conduitKey",
                  "type": "bytes32"
                },
                {
                  "internalType": "uint256",
                  "name": "totalOriginalConsiderationItems",
                  "type": "uint256"
                }
              ],
              "internalType": "struct OrderParameters",
              "name": "parameters",
              "type": "tuple"
            },
            {
              "internalType": "uint120",
              "name": "numerator",
              "type": "uint120"
            },
            {
              "internalType": "uint120",
              "name": "denominator",
              "type": "uint120"
            },
            {
              "internalType": "bytes",
              "name": "signature",
              "type": "bytes"
            },
            {
              "internalType": "bytes",
              "name": "extraData",
              "type": "bytes"
            }
          ],
          "internalType": "struct AdvancedOrder",
          "name": "advancedOrder",
          "type": "tuple"
        },
        {
          "components": [
            {
              "internalType": "uint256",
              "name": "orderIndex",
              "type": "uint256"
            },
            {
              "internalType": "enum Side",
              "name": "side",
              "type": "uint8"
            },
            {
              "internalType": "uint256",
              "name": "index",
              "type": "uint256"
            },
            {
              "internalType": "uint256",
              "name": "identifier",
              "type": "uint256"
            },
            {
              "internalType": "bytes32[]",
              "name": "criteriaProof",
              "type": "bytes32[]"
            }
          ],
          "internalType": "struct CriteriaResolver[]",
          "name": "criteriaResolvers",
          "type": "tuple[]"
        },
        {
          "internalType": "bytes32",
          "name": "fulfillerConduitKey",
          "type": "bytes32"
        }
      ],
      "name": "fulfillAdvancedOrder",
      "outputs": [
        {
          "internalType": "bool",
          "name": "",
          "type": "bool"
        }
      ],
      "stateMutability": "payable",
      "type": "function"
    },
    {
      "inputs": [
        {
          "components": [
            {
              "components": [
                {
                  "internalType": "address",
                  "name": "offerer",
                  "type": "address"
                },
                {
                  "internalType": "address",
                  "name": "zone",
                  "type": "address"
                },
                {
                  "components": [
                    {
                      "internalType": "enum ItemType",
                      "name": "itemType",
                      "type": "uint8"
                    },
                    {
                      "internalType": "address",
                      "name": "token",
                      "type": "address"
                    },
                    {
                      "internalType": "uint256",
                      "name": "identifierOrCriteria",
                      "type": "uint256"
                    },
                    {
                      "internalType": "uint256",
                      "name": "startAmount",
                      "type": "uint256"
                    },
                    {
                      "internalType": "uint256",
                      "name": "endAmount",
                      "type": "uint256"
                    }
                  ],
                  "internalType": "struct OfferItem[]",
                  "name": "offer",
                  "type": "tuple[]"
                },
                {
                  "components": [
                    {
                      "internalType": "enum ItemType",
                      "name": "itemType",
                      "type": "uint8"
                    },
                    {
                      "internalType": "address",
                      "name": "token",
                      "type": "address"
                    },
                    {
                      "internalType": "uint256",
                      "name": "identifierOrCriteria",
                      "type": "uint256"
                    },
                    {
                      "internalType": "uint256",
                      "name": "startAmount",
                      "type": "uint256"
                    },
                    {
                      "internalType": "uint256",
                      "name": "endAmount",
                      "type": "uint256"
                    },
                    {
                      "internalType": "address payable",
                      "name": "recipient",
                      "type": "address"
                    }
                  ],
                  "internalType": "struct ConsiderationItem[]",
                  "name": "consideration",
                  "type": "tuple[]"
                },
                {
                  "internalType": "enum OrderType",
                  "name": "orderType",
                  "type": "uint8"
                },
                {
                  "internalType": "uint256",
                  "name": "startTime",
                  "type": "uint256"
                },
                {
                  "internalType": "uint256",
                  "name": "endTime",
                  "type": "uint256"
                },
                {
                  "internalType": "bytes32",
                  "name": "zoneHash",
                  "type": "bytes32"
                },
                {
                  "internalType": "uint256",
                  "name": "salt",
                  "type": "uint256"
                },
                {
                  "internalType": "bytes32",
                  "name": "conduitKey",
                  "type": "bytes32"
                },
                {
                  "internalType": "uint256",
                  "name": "totalOriginalConsiderationItems",
                  "type": "uint256"
                }
              ],
              "internalType": "struct OrderParameters",
              "name": "parameters",
              "type": "tuple"
            },
            {
              "internalType": "uint120",
              "name": "numerator",
              "type": "uint120"
            },
            {
              "internalType": "uint120",
              "name": "denominator",
              "type": "uint120"
            },
            {
              "internalType": "bytes",
              "name": "signature",
              "type": "bytes"
            },
            {
              "internalType": "bytes",
              "name": "extraData",
              "type": "bytes"
            }
          ],
          "internalType": "struct AdvancedOrder[]",
          "name": "advancedOrders",
          "type": "tuple[]"
        },
        {
          "components": [
            {
              "internalType": "uint256",
              "name": "orderIndex",
              "type": "uint256"
            },
            {
              "internalType": "enum Side",
              "name": "side",
              "type": "uint8"
            },
            {
              "internalType": "uint256",
              "name": "index",
              "type": "uint256"
            },
            {
              "internalType": "uint256",
              "name": "identifier",
              "type": "uint256"
            },
            {
              "internalType": "bytes32[]",
              "name": "criteriaProof",
              "type": "bytes32[]"
            }
          ],
          "internalType": "struct CriteriaResolver[]",
          "name": "criteriaResolvers",
          "type": "tuple[]"
        },
        {
          "components": [
            {
              "internalType": "uint256",
              "name": "orderIndex",
              "type": "uint256"
            },
            {
              "internalType": "uint256",
              "name": "itemIndex",
              "type": "uint256"
            }
          ],
          "internalType": "struct FulfillmentComponent[][]",
          "name": "offerFulfillments",
          "type": "tuple[][]"
        },
        {
          "components": [
            {
              "internalType": "uint256",
              "name": "orderIndex",
              "type": "uint256"
            },
            {
              "internalType": "uint256",
              "name": "itemIndex",
              "type": "uint256"
            }
          ],
          "internalType": "struct FulfillmentComponent[][]",
          "name": "considerationFulfillments",
          "type": "tuple[][]"
        },
        {
          "internalType": "bytes32",
          "name": "fulfillerConduitKey",
          "type": "bytes32"
        },
        {
          "internalType": "uint256",
          "name": "maximumFulfilled",
          "type": "uint256"
        }
      ],
      "name": "fulfillAvailableAdvancedOrders",
      "outputs": [
        {
          "internalType": "bool[]",
          "name": "availableOrders",
          "type": "bool[]"
        },
        {
          "components": [
            {
              "components": [
                {
                  "internalType": "enum ItemType",
                  "name": "itemType",
                  "type": "uint8"
                },
                {
                  "internalType": "address",
                  "name": "token",
                  "type": "address"
                },
                {
                  "internalType": "uint256",
                  "name": "identifier",
                  "type": "uint256"
                },
                {
                  "internalType": "uint256",
                  "name": "amount",
                  "type": "uint256"
                },
                {
                  "internalType": "address payable",
                  "name": "recipient",
                  "type": "address"
                }
              ],
              "internalType": "struct ReceivedItem",
              "name": "item",
              "type": "tuple"
            },
            {
              "internalType": "address",
              "name": "offerer",
              "type": "address"
            },
            {
              "internalType": "bytes32",
              "name": "conduitKey",
              "type": "bytes32"
            }
          ],
          "internalType": "struct Execution[]",
          "name": "standardExecutions",
          "type": "tuple[]"
        },
        {
          "components": [
            {
              "internalType": "address",
              "name": "token",
              "type": "address"
            },
            {
              "internalType": "address",
              "name": "from",
              "type": "address"
            },
            {
              "internalType": "address",
              "name": "to",
              "type": "address"
            },
            {
              "internalType": "uint256[]",
              "name": "tokenIds",
              "type": "uint256[]"
            },
            {
              "internalType": "uint256[]",
              "name": "amounts",
              "type": "uint256[]"
            },
            {
              "internalType": "bytes32",
              "name": "conduitKey",
              "type": "bytes32"
            }
          ],
          "internalType": "struct BatchExecution[]",
          "name": "batchExecutions",
          "type": "tuple[]"
        }
      ],
      "stateMutability": "payable",
      "type": "function"
    },
    {
      "inputs": [
        {
          "components": [
            {
              "components": [
                {
                  "internalType": "address",
                  "name": "offerer",
                  "type": "address"
                },
                {
                  "internalType": "address",
                  "name": "zone",
                  "type": "address"
                },
                {
                  "components": [
                    {
                      "internalType": "enum ItemType",
                      "name": "itemType",
                      "type": "uint8"
                    },
                    {
                      "internalType": "address",
                      "name": "token",
                      "type": "address"
                    },
                    {
                      "internalType": "uint256",
                      "name": "identifierOrCriteria",
                      "type": "uint256"
                    },
                    {
                      "internalType": "uint256",
                      "name": "startAmount",
                      "type": "uint256"
                    },
                    {
                      "internalType": "uint256",
                      "name": "endAmount",
                      "type": "uint256"
                    }
                  ],
                  "internalType": "struct OfferItem[]",
                  "name": "offer",
                  "type": "tuple[]"
                },
                {
                  "components": [
                    {
                      "internalType": "enum ItemType",
                      "name": "itemType",
                      "type": "uint8"
                    },
                    {
                      "internalType": "address",
                      "name": "token",
                      "type": "address"
                    },
                    {
                      "internalType": "uint256",
                      "name": "identifierOrCriteria",
                      "type": "uint256"
                    },
                    {
                      "internalType": "uint256",
                      "name": "startAmount",
                      "type": "uint256"
                    },
                    {
                      "internalType": "uint256",
                      "name": "endAmount",
                      "type": "uint256"
                    },
                    {
                      "internalType": "address payable",
                      "name": "recipient",
                      "type": "address"
                    }
                  ],
                  "internalType": "struct ConsiderationItem[]",
                  "name": "consideration",
                  "type": "tuple[]"
                },
                {
                  "internalType": "enum OrderType",
                  "name": "orderType",
                  "type": "uint8"
                },
                {
                  "internalType": "uint256",
                  "name": "startTime",
                  "type": "uint256"
                },
                {
                  "internalType": "uint256",
                  "name": "endTime",
                  "type": "uint256"
                },
                {
                  "internalType": "bytes32",
                  "name": "zoneHash",
                  "type": "bytes32"
                },
                {
                  "internalType": "uint256",
                  "name": "salt",
                  "type": "uint256"
                },
                {
                  "internalType": "bytes32",
                  "name": "conduitKey",
                  "type": "bytes32"
                },
                {
                  "internalType": "uint256",
                  "name": "totalOriginalConsiderationItems",
                  "type": "uint256"
                }
              ],
              "internalType": "struct OrderParameters",
              "name": "parameters",
              "type": "tuple"
            },
            {
              "internalType": "bytes",
              "name": "signature",
              "type": "bytes"
            }
          ],
          "internalType": "struct Order[]",
          "name": "orders",
          "type": "tuple[]"
        },
        {
          "components": [
            {
              "internalType": "uint256",
              "name": "orderIndex",
              "type": "uint256"
            },
            {
              "internalType": "uint256",
              "name": "itemIndex",
              "type": "uint256"
            }
          ],
          "internalType": "struct FulfillmentComponent[][]",
          "name": "offerFulfillments",
          "type": "tuple[][]"
        },
        {
          "components": [
            {
              "internalType": "uint256",
              "name": "orderIndex",
              "type": "uint256"
            },
            {
              "internalType": "uint256",
              "name": "itemIndex",
              "type": "uint256"
            }
          ],
          "internalType": "struct FulfillmentComponent[][]",
          "name": "considerationFulfillments",
          "type": "tuple[][]"
        },
        {
          "internalType": "bytes32",
          "name": "fulfillerConduitKey",
          "type": "bytes32"
        },
        {
          "internalType": "uint256",
          "name": "maximumFulfilled",
          "type": "uint256"
        }
      ],
      "name": "fulfillAvailableOrders",
      "outputs": [
        {
          "internalType": "bool[]",
          "name": "availableOrders",
          "type": "bool[]"
        },
        {
          "components": [
            {
              "components": [
                {
                  "internalType": "enum ItemType",
                  "name": "itemType",
                  "type": "uint8"
                },
                {
                  "internalType": "address",
                  "name": "token",
                  "type": "address"
                },
                {
                  "internalType": "uint256",
                  "name": "identifier",
                  "type": "uint256"
                },
                {
                  "internalType": "uint256",
                  "name": "amount",
                  "type": "uint256"
                },
                {
                  "internalType": "address payable",
                  "name": "recipient",
                  "type": "address"
                }
              ],
              "internalType": "struct ReceivedItem",
              "name": "item",
              "type": "tuple"
            },
            {
              "internalType": "address",
              "name": "offerer",
              "type": "address"
            },
            {
              "internalType": "bytes32",
              "name": "conduitKey",
              "type": "bytes32"
            }
          ],
          "internalType": "struct Execution[]",
          "name": "standardExecutions",
          "type": "tuple[]"
        },
        {
          "components": [
            {
              "internalType": "address",
              "name": "token",
              "type": "address"
            },
            {
              "internalType": "address",
              "name": "from",
              "type": "address"
            },
            {
              "internalType": "address",
              "name": "to",
              "type": "address"
            },
            {
              "internalType": "uint256[]",
              "name": "tokenIds",
              "type": "uint256[]"
            },
            {
              "internalType": "uint256[]",
              "name": "amounts",
              "type": "uint256[]"
            },
            {
              "internalType": "bytes32",
              "name": "conduitKey",
              "type": "bytes32"
            }
          ],
          "internalType": "struct BatchExecution[]",
          "name": "batchExecutions",
          "type": "tuple[]"
        }
      ],
      "stateMutability": "payable",
      "type": "function"
    },
    {
      "inputs": [
        {
          "components": [
            {
              "internalType": "address",
              "name": "considerationToken",
              "type": "address"
            },
            {
              "internalType": "uint256",
              "name": "considerationIdentifier",
              "type": "uint256"
            },
            {
              "internalType": "uint256",
              "name": "considerationAmount",
              "type": "uint256"
            },
            {
              "internalType": "address payable",
              "name": "offerer",
              "type": "address"
            },
            {
              "internalType": "address",
              "name": "zone",
              "type": "address"
            },
            {
              "internalType": "address",
              "name": "offerToken",
              "type": "address"
            },
            {
              "internalType": "uint256",
              "name": "offerIdentifier",
              "type": "uint256"
            },
            {
              "internalType": "uint256",
              "name": "offerAmount",
              "type": "uint256"
            },
            {
              "internalType": "enum BasicOrderType",
              "name": "basicOrderType",
              "type": "uint8"
            },
            {
              "internalType": "uint256",
              "name": "startTime",
              "type": "uint256"
            },
            {
              "internalType": "uint256",
              "name": "endTime",
              "type": "uint256"
            },
            {
              "internalType": "bytes32",
              "name": "zoneHash",
              "type": "bytes32"
            },
            {
              "internalType": "uint256",
              "name": "salt",
              "type": "uint256"
            },
            {
              "internalType": "bytes32",
              "name": "offererConduitKey",
              "type": "bytes32"
            },
            {
              "internalType": "bytes32",
              "name": "fulfillerConduitKey",
              "type": "bytes32"
            },
            {
              "internalType": "uint256",
              "name": "totalOriginalAdditionalRecipients",
              "type": "uint256"
            },
            {
              "components": [
                {
                  "internalType": "uint256",
                  "name": "amount",
                  "type": "uint256"
                },
                {
                  "internalType": "address payable",
                  "name": "recipient",
                  "type": "address"
                }
              ],
              "internalType": "struct AdditionalRecipient[]",
              "name": "additionalRecipients",
              "type": "tuple[]"
            },
            {
              "internalType": "bytes",
              "name": "signature",
              "type": "bytes"
            }
          ],
          "internalType": "struct BasicOrderParameters",
          "name": "parameters",
          "type": "tuple"
        }
      ],
      "name": "fulfillBasicOrder",
      "outputs": [
        {
          "internalType": "bool",
          "name": "",
          "type": "bool"
        }
      ],
      "stateMutability": "payable",
      "type": "function"
    },
    {
      "inputs": [
        {
          "components": [
            {
              "components": [
                {
                  "internalType": "address",
                  "name": "offerer",
                  "type": "address"
                },
                {
                  "internalType": "address",
                  "name": "zone",
                  "type": "address"
                },
                {
                  "components": [
                    {
                      "internalType": "enum ItemType",
                      "name": "itemType",
                      "type": "uint8"
                    },
                    {
                      "internalType": "address",
                      "name": "token",
                      "type": "address"
                    },
                    {
                      "internalType": "uint256",
                      "name": "identifierOrCriteria",
                      "type": "uint256"
                    },
                    {
                      "internalType": "uint256",
                      "name": "startAmount",
                      "type": "uint256"
                    },
                    {
                      "internalType": "uint256",
                      "name": "endAmount",
                      "type": "uint256"
                    }
                  ],
                  "internalType": "struct OfferItem[]",
                  "name": "offer",
                  "type": "tuple[]"
                },
                {
                  "components": [
                    {
                      "internalType": "enum ItemType",
                      "name": "itemType",
                      "type": "uint8"
                    },
                    {
                      "internalType": "address",
                      "name": "token",
                      "type": "address"
                    },
                    {
                      "internalType": "uint256",
                      "name": "identifierOrCriteria",
                      "type": "uint256"
                    },
                    {
                      "internalType": "uint256",
                      "name": "startAmount",
                      "type": "uint256"
                    },
                    {
                      "internalType": "uint256",
                      "name": "endAmount",
                      "type": "uint256"
                    },
                    {
                      "internalType": "address payable",
                      "name": "recipient",
                      "type": "address"
                    }
                  ],
                  "internalType": "struct ConsiderationItem[]",
                  "name": "consideration",
                  "type": "tuple[]"
                },
                {
                  "internalType": "enum OrderType",
                  "name": "orderType",
                  "type": "uint8"
                },
                {
                  "internalType": "uint256",
                  "name": "startTime",
                  "type": "uint256"
                },
                {
                  "internalType": "uint256",
                  "name": "endTime",
                  "type": "uint256"
                },
                {
                  "internalType": "bytes32",
                  "name": "zoneHash",
                  "type": "bytes32"
                },
                {
                  "internalType": "uint256",
                  "name": "salt",
                  "type": "uint256"
                },
                {
                  "internalType": "bytes32",
                  "name": "conduitKey",
                  "type": "bytes32"
                },
                {
                  "internalType": "uint256",
                  "name": "totalOriginalConsiderationItems",
                  "type": "uint256"
                }
              ],
              "internalType": "struct OrderParameters",
              "name": "parameters",
              "type": "tuple"
            },
            {
              "internalType": "bytes",
              "name": "signature",
              "type": "bytes"
            }
          ],
          "internalType": "struct Order",
          "name": "order",
          "type": "tuple"
        },
        {
          "internalType": "bytes32",
          "name": "fulfillerConduitKey",
          "type": "bytes32"
        }
      ],
      "name": "fulfillOrder",
      "outputs": [
        {
          "internalType": "bool",
          "name": "",
          "type": "bool"
        }
      ],
      "stateMutability": "payable",
      "type": "function"
    },
    {
      "inputs": [
        {
          "internalType": "address",
          "name": "offerer",
          "type": "address"
        }
      ],
      "name": "getNonce",
      "outputs": [
        {
          "internalType": "uint256",
          "name": "",
          "type": "uint256"
        }
      ],
      "stateMutability": "view",
      "type": "function"
    },
    {
      "inputs": [
        {
          "components": [
            {
              "internalType": "address",
              "name": "offerer",
              "type": "address"
            },
            {
              "internalType": "address",
              "name": "zone",
              "type": "address"
            },
            {
              "components": [
                {
                  "internalType": "enum ItemType",
                  "name": "itemType",
                  "type": "uint8"
                },
                {
                  "internalType": "address",
                  "name": "token",
                  "type": "address"
                },
                {
                  "internalType": "uint256",
                  "name": "identifierOrCriteria",
                  "type": "uint256"
                },
                {
                  "internalType": "uint256",
                  "name": "startAmount",
                  "type": "uint256"
                },
                {
                  "internalType": "uint256",
                  "name": "endAmount",
                  "type": "uint256"
                }
              ],
              "internalType": "struct OfferItem[]",
              "name": "offer",
              "type": "tuple[]"
            },
            {
              "components": [
                {
                  "internalType": "enum ItemType",
                  "name": "itemType",
                  "type": "uint8"
                },
                {
                  "internalType": "address",
                  "name": "token",
                  "type": "address"
                },
                {
                  "internalType": "uint256",
                  "name": "identifierOrCriteria",
                  "type": "uint256"
                },
                {
                  "internalType": "uint256",
                  "name": "startAmount",
                  "type": "uint256"
                },
                {
                  "internalType": "uint256",
                  "name": "endAmount",
                  "type": "uint256"
                },
                {
                  "internalType": "address payable",
                  "name": "recipient",
                  "type": "address"
                }
              ],
              "internalType": "struct ConsiderationItem[]",
              "name": "consideration",
              "type": "tuple[]"
            },
            {
              "internalType": "enum OrderType",
              "name": "orderType",
              "type": "uint8"
            },
            {
              "internalType": "uint256",
              "name": "startTime",
              "type": "uint256"
            },
            {
              "internalType": "uint256",
              "name": "endTime",
              "type": "uint256"
            },
            {
              "internalType": "bytes32",
              "name": "zoneHash",
              "type": "bytes32"
            },
            {
              "internalType": "uint256",
              "name": "salt",
              "type": "uint256"
            },
            {
              "internalType": "bytes32",
              "name": "conduitKey",
              "type": "bytes32"
            },
            {
              "internalType": "uint256",
              "name": "nonce",
              "type": "uint256"
            }
          ],
          "internalType": "struct OrderComponents",
          "name": "order",
          "type": "tuple"
        }
      ],
      "name": "getOrderHash",
      "outputs": [
        {
          "internalType": "bytes32",
          "name": "",
          "type": "bytes32"
        }
      ],
      "stateMutability": "view",
      "type": "function"
    },
    {
      "inputs": [
        {
          "internalType": "bytes32",
          "name": "orderHash",
          "type": "bytes32"
        }
      ],
      "name": "getOrderStatus",
      "outputs": [
        {
          "internalType": "bool",
          "name": "isValidated",
          "type": "bool"
        },
        {
          "internalType": "bool",
          "name": "isCancelled",
          "type": "bool"
        },
        {
          "internalType": "uint256",
          "name": "totalFilled",
          "type": "uint256"
        },
        {
          "internalType": "uint256",
          "name": "totalSize",
          "type": "uint256"
        }
      ],
      "stateMutability": "view",
      "type": "function"
    },
    {
      "inputs": [],
      "name": "incrementNonce",
      "outputs": [
        {
          "internalType": "uint256",
          "name": "newNonce",
          "type": "uint256"
        }
      ],
      "stateMutability": "nonpayable",
      "type": "function"
    },
    {
      "inputs": [],
      "name": "information",
      "outputs": [
        {
          "internalType": "string",
          "name": "version",
          "type": "string"
        },
        {
          "internalType": "bytes32",
          "name": "domainSeparator",
          "type": "bytes32"
        },
        {
          "internalType": "address",
          "name": "conduitController",
          "type": "address"
        }
      ],
      "stateMutability": "view",
      "type": "function"
    },
    {
      "inputs": [
        {
          "components": [
            {
              "components": [
                {
                  "internalType": "address",
                  "name": "offerer",
                  "type": "address"
                },
                {
                  "internalType": "address",
                  "name": "zone",
                  "type": "address"
                },
                {
                  "components": [
                    {
                      "internalType": "enum ItemType",
                      "name": "itemType",
                      "type": "uint8"
                    },
                    {
                      "internalType": "address",
                      "name": "token",
                      "type": "address"
                    },
                    {
                      "internalType": "uint256",
                      "name": "identifierOrCriteria",
                      "type": "uint256"
                    },
                    {
                      "internalType": "uint256",
                      "name": "startAmount",
                      "type": "uint256"
                    },
                    {
                      "internalType": "uint256",
                      "name": "endAmount",
                      "type": "uint256"
                    }
                  ],
                  "internalType": "struct OfferItem[]",
                  "name": "offer",
                  "type": "tuple[]"
                },
                {
                  "components": [
                    {
                      "internalType": "enum ItemType",
                      "name": "itemType",
                      "type": "uint8"
                    },
                    {
                      "internalType": "address",
                      "name": "token",
                      "type": "address"
                    },
                    {
                      "internalType": "uint256",
                      "name": "identifierOrCriteria",
                      "type": "uint256"
                    },
                    {
                      "internalType": "uint256",
                      "name": "startAmount",
                      "type": "uint256"
                    },
                    {
                      "internalType": "uint256",
                      "name": "endAmount",
                      "type": "uint256"
                    },
                    {
                      "internalType": "address payable",
                      "name": "recipient",
                      "type": "address"
                    }
                  ],
                  "internalType": "struct ConsiderationItem[]",
                  "name": "consideration",
                  "type": "tuple[]"
                },
                {
                  "internalType": "enum OrderType",
                  "name": "orderType",
                  "type": "uint8"
                },
                {
                  "internalType": "uint256",
                  "name": "startTime",
                  "type": "uint256"
                },
                {
                  "internalType": "uint256",
                  "name": "endTime",
                  "type": "uint256"
                },
                {
                  "internalType": "bytes32",
                  "name": "zoneHash",
                  "type": "bytes32"
                },
                {
                  "internalType": "uint256",
                  "name": "salt",
                  "type": "uint256"
                },
                {
                  "internalType": "bytes32",
                  "name": "conduitKey",
                  "type": "bytes32"
                },
                {
                  "internalType": "uint256",
                  "name": "totalOriginalConsiderationItems",
                  "type": "uint256"
                }
              ],
              "internalType": "struct OrderParameters",
              "name": "parameters",
              "type": "tuple"
            },
            {
              "internalType": "uint120",
              "name": "numerator",
              "type": "uint120"
            },
            {
              "internalType": "uint120",
              "name": "denominator",
              "type": "uint120"
            },
            {
              "internalType": "bytes",
              "name": "signature",
              "type": "bytes"
            },
            {
              "internalType": "bytes",
              "name": "extraData",
              "type": "bytes"
            }
          ],
          "internalType": "struct AdvancedOrder[]",
          "name": "advancedOrders",
          "type": "tuple[]"
        },
        {
          "components": [
            {
              "internalType": "uint256",
              "name": "orderIndex",
              "type": "uint256"
            },
            {
              "internalType": "enum Side",
              "name": "side",
              "type": "uint8"
            },
            {
              "internalType": "uint256",
              "name": "index",
              "type": "uint256"
            },
            {
              "internalType": "uint256",
              "name": "identifier",
              "type": "uint256"
            },
            {
              "internalType": "bytes32[]",
              "name": "criteriaProof",
              "type": "bytes32[]"
            }
          ],
          "internalType": "struct CriteriaResolver[]",
          "name": "criteriaResolvers",
          "type": "tuple[]"
        },
        {
          "components": [
            {
              "components": [
                {
                  "internalType": "uint256",
                  "name": "orderIndex",
                  "type": "uint256"
                },
                {
                  "internalType": "uint256",
                  "name": "itemIndex",
                  "type": "uint256"
                }
              ],
              "internalType": "struct FulfillmentComponent[]",
              "name": "offerComponents",
              "type": "tuple[]"
            },
            {
              "components": [
                {
                  "internalType": "uint256",
                  "name": "orderIndex",
                  "type": "uint256"
                },
                {
                  "internalType": "uint256",
                  "name": "itemIndex",
                  "type": "uint256"
                }
              ],
              "internalType": "struct FulfillmentComponent[]",
              "name": "considerationComponents",
              "type": "tuple[]"
            }
          ],
          "internalType": "struct Fulfillment[]",
          "name": "fulfillments",
          "type": "tuple[]"
        }
      ],
      "name": "matchAdvancedOrders",
      "outputs": [
        {
          "components": [
            {
              "components": [
                {
                  "internalType": "enum ItemType",
                  "name": "itemType",
                  "type": "uint8"
                },
                {
                  "internalType": "address",
                  "name": "token",
                  "type": "address"
                },
                {
                  "internalType": "uint256",
                  "name": "identifier",
                  "type": "uint256"
                },
                {
                  "internalType": "uint256",
                  "name": "amount",
                  "type": "uint256"
                },
                {
                  "internalType": "address payable",
                  "name": "recipient",
                  "type": "address"
                }
              ],
              "internalType": "struct ReceivedItem",
              "name": "item",
              "type": "tuple"
            },
            {
              "internalType": "address",
              "name": "offerer",
              "type": "address"
            },
            {
              "internalType": "bytes32",
              "name": "conduitKey",
              "type": "bytes32"
            }
          ],
          "internalType": "struct Execution[]",
          "name": "standardExecutions",
          "type": "tuple[]"
        },
        {
          "components": [
            {
              "internalType": "address",
              "name": "token",
              "type": "address"
            },
            {
              "internalType": "address",
              "name": "from",
              "type": "address"
            },
            {
              "internalType": "address",
              "name": "to",
              "type": "address"
            },
            {
              "internalType": "uint256[]",
              "name": "tokenIds",
              "type": "uint256[]"
            },
            {
              "internalType": "uint256[]",
              "name": "amounts",
              "type": "uint256[]"
            },
            {
              "internalType": "bytes32",
              "name": "conduitKey",
              "type": "bytes32"
            }
          ],
          "internalType": "struct BatchExecution[]",
          "name": "batchExecutions",
          "type": "tuple[]"
        }
      ],
      "stateMutability": "payable",
      "type": "function"
    },
    {
      "inputs": [
        {
          "components": [
            {
              "components": [
                {
                  "internalType": "address",
                  "name": "offerer",
                  "type": "address"
                },
                {
                  "internalType": "address",
                  "name": "zone",
                  "type": "address"
                },
                {
                  "components": [
                    {
                      "internalType": "enum ItemType",
                      "name": "itemType",
                      "type": "uint8"
                    },
                    {
                      "internalType": "address",
                      "name": "token",
                      "type": "address"
                    },
                    {
                      "internalType": "uint256",
                      "name": "identifierOrCriteria",
                      "type": "uint256"
                    },
                    {
                      "internalType": "uint256",
                      "name": "startAmount",
                      "type": "uint256"
                    },
                    {
                      "internalType": "uint256",
                      "name": "endAmount",
                      "type": "uint256"
                    }
                  ],
                  "internalType": "struct OfferItem[]",
                  "name": "offer",
                  "type": "tuple[]"
                },
                {
                  "components": [
                    {
                      "internalType": "enum ItemType",
                      "name": "itemType",
                      "type": "uint8"
                    },
                    {
                      "internalType": "address",
                      "name": "token",
                      "type": "address"
                    },
                    {
                      "internalType": "uint256",
                      "name": "identifierOrCriteria",
                      "type": "uint256"
                    },
                    {
                      "internalType": "uint256",
                      "name": "startAmount",
                      "type": "uint256"
                    },
                    {
                      "internalType": "uint256",
                      "name": "endAmount",
                      "type": "uint256"
                    },
                    {
                      "internalType": "address payable",
                      "name": "recipient",
                      "type": "address"
                    }
                  ],
                  "internalType": "struct ConsiderationItem[]",
                  "name": "consideration",
                  "type": "tuple[]"
                },
                {
                  "internalType": "enum OrderType",
                  "name": "orderType",
                  "type": "uint8"
                },
                {
                  "internalType": "uint256",
                  "name": "startTime",
                  "type": "uint256"
                },
                {
                  "internalType": "uint256",
                  "name": "endTime",
                  "type": "uint256"
                },
                {
                  "internalType": "bytes32",
                  "name": "zoneHash",
                  "type": "bytes32"
                },
                {
                  "internalType": "uint256",
                  "name": "salt",
                  "type": "uint256"
                },
                {
                  "internalType": "bytes32",
                  "name": "conduitKey",
                  "type": "bytes32"
                },
                {
                  "internalType": "uint256",
                  "name": "totalOriginalConsiderationItems",
                  "type": "uint256"
                }
              ],
              "internalType": "struct OrderParameters",
              "name": "parameters",
              "type": "tuple"
            },
            {
              "internalType": "bytes",
              "name": "signature",
              "type": "bytes"
            }
          ],
          "internalType": "struct Order[]",
          "name": "orders",
          "type": "tuple[]"
        },
        {
          "components": [
            {
              "components": [
                {
                  "internalType": "uint256",
                  "name": "orderIndex",
                  "type": "uint256"
                },
                {
                  "internalType": "uint256",
                  "name": "itemIndex",
                  "type": "uint256"
                }
              ],
              "internalType": "struct FulfillmentComponent[]",
              "name": "offerComponents",
              "type": "tuple[]"
            },
            {
              "components": [
                {
                  "internalType": "uint256",
                  "name": "orderIndex",
                  "type": "uint256"
                },
                {
                  "internalType": "uint256",
                  "name": "itemIndex",
                  "type": "uint256"
                }
              ],
              "internalType": "struct FulfillmentComponent[]",
              "name": "considerationComponents",
              "type": "tuple[]"
            }
          ],
          "internalType": "struct Fulfillment[]",
          "name": "fulfillments",
          "type": "tuple[]"
        }
      ],
      "name": "matchOrders",
      "outputs": [
        {
          "components": [
            {
              "components": [
                {
                  "internalType": "enum ItemType",
                  "name": "itemType",
                  "type": "uint8"
                },
                {
                  "internalType": "address",
                  "name": "token",
                  "type": "address"
                },
                {
                  "internalType": "uint256",
                  "name": "identifier",
                  "type": "uint256"
                },
                {
                  "internalType": "uint256",
                  "name": "amount",
                  "type": "uint256"
                },
                {
                  "internalType": "address payable",
                  "name": "recipient",
                  "type": "address"
                }
              ],
              "internalType": "struct ReceivedItem",
              "name": "item",
              "type": "tuple"
            },
            {
              "internalType": "address",
              "name": "offerer",
              "type": "address"
            },
            {
              "internalType": "bytes32",
              "name": "conduitKey",
              "type": "bytes32"
            }
          ],
          "internalType": "struct Execution[]",
          "name": "standardExecutions",
          "type": "tuple[]"
        },
        {
          "components": [
            {
              "internalType": "address",
              "name": "token",
              "type": "address"
            },
            {
              "internalType": "address",
              "name": "from",
              "type": "address"
            },
            {
              "internalType": "address",
              "name": "to",
              "type": "address"
            },
            {
              "internalType": "uint256[]",
              "name": "tokenIds",
              "type": "uint256[]"
            },
            {
              "internalType": "uint256[]",
              "name": "amounts",
              "type": "uint256[]"
            },
            {
              "internalType": "bytes32",
              "name": "conduitKey",
              "type": "bytes32"
            }
          ],
          "internalType": "struct BatchExecution[]",
          "name": "batchExecutions",
          "type": "tuple[]"
        }
      ],
      "stateMutability": "payable",
      "type": "function"
    },
    {
      "inputs": [],
      "name": "name",
      "outputs": [
        {
          "internalType": "string",
          "name": "",
          "type": "string"
        }
      ],
      "stateMutability": "pure",
      "type": "function"
    },
    {
      "inputs": [
        {
          "components": [
            {
              "components": [
                {
                  "internalType": "address",
                  "name": "offerer",
                  "type": "address"
                },
                {
                  "internalType": "address",
                  "name": "zone",
                  "type": "address"
                },
                {
                  "components": [
                    {
                      "internalType": "enum ItemType",
                      "name": "itemType",
                      "type": "uint8"
                    },
                    {
                      "internalType": "address",
                      "name": "token",
                      "type": "address"
                    },
                    {
                      "internalType": "uint256",
                      "name": "identifierOrCriteria",
                      "type": "uint256"
                    },
                    {
                      "internalType": "uint256",
                      "name": "startAmount",
                      "type": "uint256"
                    },
                    {
                      "internalType": "uint256",
                      "name": "endAmount",
                      "type": "uint256"
                    }
                  ],
                  "internalType": "struct OfferItem[]",
                  "name": "offer",
                  "type": "tuple[]"
                },
                {
                  "components": [
                    {
                      "internalType": "enum ItemType",
                      "name": "itemType",
                      "type": "uint8"
                    },
                    {
                      "internalType": "address",
                      "name": "token",
                      "type": "address"
                    },
                    {
                      "internalType": "uint256",
                      "name": "identifierOrCriteria",
                      "type": "uint256"
                    },
                    {
                      "internalType": "uint256",
                      "name": "startAmount",
                      "type": "uint256"
                    },
                    {
                      "internalType": "uint256",
                      "name": "endAmount",
                      "type": "uint256"
                    },
                    {
                      "internalType": "address payable",
                      "name": "recipient",
                      "type": "address"
                    }
                  ],
                  "internalType": "struct ConsiderationItem[]",
                  "name": "consideration",
                  "type": "tuple[]"
                },
                {
                  "internalType": "enum OrderType",
                  "name": "orderType",
                  "type": "uint8"
                },
                {
                  "internalType": "uint256",
                  "name": "startTime",
                  "type": "uint256"
                },
                {
                  "internalType": "uint256",
                  "name": "endTime",
                  "type": "uint256"
                },
                {
                  "internalType": "bytes32",
                  "name": "zoneHash",
                  "type": "bytes32"
                },
                {
                  "internalType": "uint256",
                  "name": "salt",
                  "type": "uint256"
                },
                {
                  "internalType": "bytes32",
                  "name": "conduitKey",
                  "type": "bytes32"
                },
                {
                  "internalType": "uint256",
                  "name": "totalOriginalConsiderationItems",
                  "type": "uint256"
                }
              ],
              "internalType": "struct OrderParameters",
              "name": "parameters",
              "type": "tuple"
            },
            {
              "internalType": "bytes",
              "name": "signature",
              "type": "bytes"
            }
          ],
          "internalType": "struct Order[]",
          "name": "orders",
          "type": "tuple[]"
        }
      ],
      "name": "validate",
      "outputs": [
        {
          "internalType": "bool",
          "name": "",
          "type": "bool"
        }
      ],
      "stateMutability": "nonpayable",
      "type": "function"
    }
  ],
  "bytecode": {
    "object": "0x6101c06040523480156200001257600080fd5b5060405162008f8b38038062008f8b8339810160408190526200003591620005d3565b604080518082018252600d81526c21b7b739b4b232b930ba34b7b760991b60209182015281518083018352600481526372632e3160e01b90820152905182918291829182917f64987f6373075400d7cbff689f2b7bc23753c7e6ce20688196489b8f5d9d7e6c917f0fd510fdb8600df694e266f9e41ada19224f948f0f9be3fc4cb801d7ea5eb247916000916200017c91016909ecccccae492e8cada560b31b81526e1d5a5b9d0e081a5d195b551e5c194b608a1b600a8201526d1859191c995cdcc81d1bdad95b8b60921b60198201527f75696e74323536206964656e7469666965724f7243726974657269612c00000060278201527f75696e74323536207374617274416d6f756e742c0000000000000000000000006044820152701d5a5b9d0c8d4d88195b99105b5bdd5b9d607a1b6058820152602960f81b6069820152606a0190565b60408051601f1981840301815282825271086dedce6d2c8cae4c2e8d2dedc92e8cada560731b60208401526e1d5a5b9d0e081a5d195b551e5c194b608a1b60328401526d1859191c995cdcc81d1bdad95b8b60921b60418401527f75696e74323536206964656e7469666965724f7243726974657269612c000000604f8401527f75696e74323536207374617274416d6f756e742c000000000000000000000000606c840152711d5a5b9d0c8d4d88195b99105b5bdd5b9d0b60721b6080840152701859191c995cdcc81c9958da5c1a595b9d607a1b6092840152602960f81b60a384018190528251808503608401815260a485019093526f09ee4c8cae486dedae0dedccadce8e6560831b60c48501526f1859191c995cdcc81bd999995c995c8b60821b60d48501526c1859191c995cdcc81e9bdb994b609a1b60e48501527113d999995c925d195b56d7481bd999995c8b60721b60f18501527f436f6e73696465726174696f6e4974656d5b5d20636f6e73696465726174696f610103850152611b8b60f21b6101238501526f1d5a5b9d0e081bdc99195c951e5c194b60821b610125850152711d5a5b9d0c8d4d881cdd185c9d151a5b594b60721b6101358501526f1d5a5b9d0c8d4d88195b99151a5b594b60821b61014785015270189e5d195ccccc881e9bdb9952185cda0b607a1b6101578501526c1d5a5b9d0c8d4d881cd85b1d0b609a1b6101688501527f6279746573333220636f6e647569744b65792c000000000000000000000000006101758501526c75696e74323536206e6f6e636560981b6101888501526101958401529250906000906101960160408051601f19818403018152908290526c08a92a06e626488dedac2d2dc5609b1b60208301526b1cdd1c9a5b99c81b985b594b60a21b602d8301526e1cdd1c9a5b99c81d995c9cda5bdb8b608a1b60398301526f1d5a5b9d0c8d4d8818da185a5b92590b60821b60488301527f6164647265737320766572696679696e67436f6e7472616374000000000000006058830152602960f81b6071830152915060009060720160408051601f1981840301815290829052805160209182012086518783012060e052855186830120610100529250620004bf918491869188910162000668565b60408051808303601f190181528282528051602091820120610120524661014081905260c085815260808b815260a08b81528487018890528686018d9052606087018c9052908601929092523082860152835180860390920182529093019091528151910120610160526001600160601b0319606088901b166101805260408051630a96ad3960e01b8152815189926001600160a01b03841692630a96ad399260048083019392829003018186803b1580156200057b57600080fd5b505afa15801562000590573d6000803e3d6000fd5b505050506040513d601f19601f82011682018060405250810190620005b6919062000605565b506101a05250506001600055506200069598505050505050505050565b600060208284031215620005e657600080fd5b81516001600160a01b0381168114620005fe57600080fd5b9392505050565b600080604083850312156200061957600080fd5b505080516020909101519092909150565b6000815160005b818110156200064d576020818501810151868301520162000631565b818111156200065d576000828601525b509290920192915050565b60006200068c620006856200067e84886200062a565b866200062a565b846200062a565b95945050505050565b60805160a05160c05160e051610100516101205161014051610160516101805160601c6101a05161885b620007306000396000614e1d0152600081816109af0152614dec0152600061215c01526000612090015260008181611a2801526129860152600081816123180152613dee0152600081816128570152613d80015260006120bc0152600061210b015260006120e6015261885b6000f3fe6080604052600436106100e85760003560e01c8063a81744041161008a578063f47b774011610059578063f47b7740146102f9578063fb0f3ee11461031d578063fb4c2af914610330578063fd9f1e101461034357600080fd5b8063a81744041461029e578063b3a34c4c146102b1578063df7b0dac146102c4578063ed98a574146102d757600080fd5b806355944a42116100c657806355944a4214610218578063627cdcb91461023957806379df72bd1461024e578063881477321461026e57600080fd5b806306fdde03146100ed5780632d0335ab1461013257806346423aa714610176575b600080fd5b3480156100f957600080fd5b50604080518082018252600d81526c21b7b739b4b232b930ba34b7b760991b6020820152905161012991906181c2565b60405180910390f35b34801561013e57600080fd5b5061016861014d3660046172e4565b6001600160a01b031660009081526002602052604090205490565b604051908152602001610129565b34801561018257600080fd5b506101f66101913660046175db565b6000908152600160209081526040918290208251608081018452905460ff8082161515808452610100830490911615159383018490526001600160781b036201000083048116958401869052600160881b909204909116606090920182905293919291565b6040805194151585529215156020850152918301526060820152608001610129565b61022b6102263660046173d1565b610363565b604051610129929190617e54565b34801561024557600080fd5b506101686103d3565b34801561025a57600080fd5b506101686102693660046177b5565b610456565b34801561027a57600080fd5b5061028e610289366004617465565b61050a565b6040519015158152602001610129565b61022b6102ac36600461754e565b6106e8565b61028e6102bf3660046177e9565b6107af565b61028e6102d23660046176af565b610855565b6102ea6102e53660046174a6565b6108aa565b60405161012993929190617d15565b34801561030557600080fd5b5061030e610985565b604051610129939291906181d5565b61028e61032b366004617726565b6109d4565b6102ea61033e366004617301565b610e85565b34801561034f57600080fd5b5061028e61035e366004617465565b610edd565b6060806002600054141561038a57604051637fa8a98760e01b815260040160405180910390fd5b6002600090815561039a88611187565b90506103b488826103ab898b6185c1565b60018c51611262565b6103bf8186866116b0565b600160005590999098509650505050505050565b6000600260005414156103f957604051637fa8a98760e01b815260040160405180910390fd5b336000908152600260205260408120805490919061041690618755565b918290555060405181815290915033907f7ab0fc7de8910a6100b24df423c3d0835534506dca9473d30c3e7df51241b2cf9060200160405180910390a290565b600061050460405180610160016040528084600001516001600160a01b0316815260200184602001516001600160a01b031681526020018460400151815260200184606001518152602001846080015160038111156104b7576104b76187be565b81526020018460a0015181526020018460c0015181526020018460e001518152602001846101000151815260200184610120015181526020018460600151518152508361014001516118c7565b92915050565b60006002600054141561053057604051637fa8a98760e01b815260040160405180910390fd5b60008083815b818110156106db5736878783818110610551576105516187d4565b90506020028101906105639190618327565b905036610570828061833d565b905061057f60208201826172e4565b945061059261058d82618706565b611afb565b60008181526001602081815260408084208151608081018352905460ff808216151583526101008204161515938201939093526001600160781b03620100008404811692820192909252600160881b9092041660608201529298506105fb918991849190611b36565b5080516106c75761064e868861061460208701876182e1565b8080601f016020809104026020016040519081016040528093929190818152602001838380828437600092019190915250611bf092505050565b600087815260016020818152604092839020805460ff191690921790915561067a9184019084016172e4565b6001600160a01b0316866001600160a01b03167ffde361574a066b44b3b5fe98a87108b7565e327327954c4faeea56a4e6491a0a896040516106be91815260200190565b60405180910390a35b505050806106d490618755565b9050610536565b5060019695505050505050565b6060806002600054141561070f57604051637fa8a98760e01b815260040160405180910390fd5b600260009081556107208787611dae565b9050600061072d82611187565b90506107a48282600060405190808252806020026020018201604052801561079a57816020015b6107876040805160a081019091526000808252602082019081526020016000815260200160008152602001606081525090565b8152602001906001900390816107545790505b5060018651611262565b6103bf8187876116b0565b6000600260005414156107d557604051637fa8a98760e01b815260040160405180910390fd5b60026000556108496107e684611e72565b6040805160008082526020820190925290610842565b61082f6040805160a081019091526000808252602082019081526020016000815260200160008152602001606081525090565b8152602001906001900390816107fc5790505b5084611f1d565b60016000559392505050565b60006002600054141561087b57604051637fa8a98760e01b815260040160405180910390fd5b600260005561089c61088c866186fa565b61089685876185c1565b84611f1d565b600160005595945050505050565b6060806060600260005414156108d357604051637fa8a98760e01b815260040160405180910390fd5b600260009081556108e48c8c611dae565b905060006108f182611187565b905061096a8282600060405190808252806020026020018201604052801561095e57816020015b61094b6040805160a081019091526000808252602082019081526020016000815260200160008152602001606081525090565b8152602001906001900390816109185790505b508e8e8e8e8e8e612046565b6001600055919f909e50909c509a5050505050505050505050565b60408051808201909152600481526372632e3160e01b60208201526000806109ab61208c565b92937f000000000000000000000000000000000000000000000000000000000000000092509050565b6000600260005414156109fa57604051637fa8a98760e01b815260040160405180910390fd5b600260009081556004610a156101208501610100860161761e565b6017811115610a2657610a266187be565b610a30919061846d565b60ff166005811115610a4457610a446187be565b905060006004610a5c6101208601610100870161761e565b6017811115610a6d57610a6d6187be565b610a779190618770565b60ff166003811115610a8b57610a8b6187be565b905060006001836005811115610aa357610aa36187be565b60ff1611610ab2576000610ab5565b60015b60ff166005811115610ac957610ac96187be565b905060003415801590610aed57506000826005811115610aeb57610aeb6187be565b145b80610b12575034158015610b1257506001826005811115610b1057610b106187be565b145b905080610b3957604051630a61be9f60e41b81523460048201526024015b60405180910390fd5b5060006003846005811115610b5057610b506187be565b60ff1611610b6a57610b6560208701876172e4565b610b7a565b610b7a60c0870160a088016172e4565b905060006002856005811115610b9257610b926187be565b60ff1611610bc1576002856005811115610bae57610bae6187be565b14610bba576000610bf3565b6001610bf3565b6002856005811115610bd557610bd56187be565b610bdf91906184c5565b60ff166005811115610bf357610bf36187be565b905060006003866005811115610c0b57610c0b6187be565b60ff1611610c77576001866005811115610c2757610c276187be565b60ff1611610c6557856005811115610c4157610c416187be565b610c4c906002618434565b60ff166005811115610c6057610c606187be565b610c7a565b856005811115610c4c57610c4c6187be565b60015b9050610c8a88868487878661217e565b6000610c9c60808a0160608b016172e4565b905060006003886005811115610cb457610cb46187be565b60ff1611610cc757896101a00135610cce565b896101c001355b90506000886005811115610ce457610ce46187be565b1415610d2257610d0f610cfd60c08c0160a08d016172e4565b83338d60c001358e60e0013586612ad1565b610d1d8a604001358b612c33565b610e6f565b6001886005811115610d3657610d366187be565b1415610d6157610d0f610d4f60c08c0160a08d016172e4565b83338d60c001358e60e0013586612d2d565b6002886005811115610d7557610d756187be565b1415610dad57610d8e610cfd60c08c0160a08d016172e4565b610d1d3383610da060208e018e6172e4565b8d604001358e6000612d8f565b6003886005811115610dc157610dc16187be565b1415610dda57610d8e610d4f60c08c0160a08d016172e4565b6004886005811115610dee57610dee6187be565b1415610e3857610e16610e0460208c018c6172e4565b33848d602001358e6040013586612ad1565b610d1d8233610e2b60c08e0160a08f016172e4565b8d60e001358e6001612d8f565b610e5a610e4860208c018c6172e4565b33848d602001358e6040013586612d2d565b610e6f8233610e2b60c08e0160a08f016172e4565b6001985050505050505050506001600055919050565b606080606060026000541415610eae57604051637fa8a98760e01b815260040160405180910390fd5b60026000908155610ebe8d611187565b905061096a8d828e8e90610ed291906185c1565b8d8d8d8d8d8d612046565b600060026000541415610f0357604051637fa8a98760e01b815260040160405180910390fd5b60008083815b818110156106db5736878783818110610f2457610f246187d4565b9050602002810190610f36919061833d565b9050610f4560208201826172e4565b9450610f5760408201602083016172e4565b9350336001600160a01b03861614801590610f7b5750336001600160a01b03851614155b15610f995760405163203b1cdd60e21b815260040160405180910390fd5b600061110c604051806101600160405280886001600160a01b03168152602001876001600160a01b03168152602001848060400190610fd89190618299565b808060200260200160405190810160405280939291908181526020016000905b828210156110245761101560a08302860136819003810190617799565b81526020019060010190610ff8565b505050918352505060200161103c6060860186618251565b808060200260200160405190810160405280939291908181526020016000905b828210156110885761107960c08302860136819003810190617761565b8152602001906001019061105c565b50505091835250506020016110a360a086016080870161763f565b60038111156110b4576110b46187be565b81526020018460a0013581526020018460c0013581526020018460e001358152602001846101000135815260200184610120013581526020018480606001906110fd9190618251565b909152506101408401356118c7565b60008181526001602052604090819020805461ffff1916610100179055519091506001600160a01b0380871691908816907f6bacc01dbe442496068f7d234edd811f1a5f833243e0aec824f86ab861f3c90d9061116c9085815260200190565b60405180910390a350508061118090618755565b9050610f09565b8051606090806001600160401b038111156111a4576111a46187ea565b6040519080825280602002602001820160405280156111fd57816020015b6040805160a0810182526000808252606060208084018290529383018190528201819052608082015282526000199092019101816111c25790505b50915060005b8181101561125b5761122d848281518110611220576112206187d4565b6020026020010151612e3b565b83828151811061123f5761123f6187d4565b60200260200101819052508061125490618755565b9050611203565b5050919050565b84516000816001600160401b0381111561127e5761127e6187ea565b6040519080825280602002602001820160405280156112a7578160200160208202803683370190505b50905060005b828110156115685760008882815181106112c9576112c96187d4565b6020026020010151905060008883815181106112e7576112e76187d4565b60200260200101519050856000141561130d576000602090920182905260800152611558565b600080600061131e858c8c8a6130da565b9250925092508160001415611343575050600060209093018390525060800152611558565b82878781518110611356576113566187d4565b60209081029190910101528861136b8161873e565b865160a081015160c090910151919b50915060009061138b9083906184ae565b9050600061139983426184ae565b905060006113a782846184ae565b89516040015190915060005b815181101561147a5760008282815181106113d0576113d06187d4565b6020026020010151905060006113eb8a8a846080015161339c565b9050816080015182606001511415611409576060820181905261141e565b6114188a8a846060015161339c565b60608301525b608082018190526060820151611439908288888b6000613409565b6060830181905260208d0151805185908110611457576114576187d4565b6020026020010151606001818152505050508061147390618755565b90506113b3565b5089516060015160005b815181101561154b5760008282815181106114a1576114a16187d4565b6020026020010151905060006114bc8b8b846080015161339c565b90508160800151826060015114156114da57606082018190526114ef565b6114e98b8b846060015161339c565b60608301525b60808201819052606082015161150a908289898c6001613409565b6060830181905260408e0151805185908110611528576115286187d4565b6020026020010151606001818152505050508061154490618755565b9050611484565b5050505050505050505050505b61156181618755565b90506112ad565b506115738686613479565b6000846115805733611583565b60005b905060005b838110156116a5576000801b8382815181106115a6576115a66187d4565b602002602001015114156115b957611695565b60008982815181106115cd576115cd6187d4565b602002602001015160000151905060008983815181106115ef576115ef6187d4565b602002602001015160200151905060008a8481518110611611576116116187d4565b602002602001015160400151905082602001516001600160a01b031683600001516001600160a01b03167f9d9af8e38d66c62e2c12f0225249fd9d721c54b83f48d9352c97c6cacdcb6f3188878151811061166e5761166e6187d4565b60200260200101518886866040516116899493929190617eec565b60405180910390a35050505b61169e81618755565b9050611588565b505050505050505050565b606080826000816001600160401b038111156116ce576116ce6187ea565b60405190808252806020026020018201604052801561170757816020015b6116f4616c07565b8152602001906001900390816116ec5790505b5090506000805b838110156117d45736888883818110611729576117296187d4565b905060200281019061173b9190618327565b9050600061175f8b61174d8480618208565b61175a6020870187618208565b613842565b905080602001516001600160a01b03168160000151608001516001600160a01b031614156117995761179260018561841c565b93506117c1565b80856117a586866184ae565b815181106117b5576117b56187d4565b60200260200101819052505b5050806117cd90618755565b905061170e565b5080156118ab5760006117e782856184ae565b90506000816001600160401b03811115611803576118036187ea565b60405190808252806020026020018201604052801561183c57816020015b611829616c07565b8152602001906001900390816118215790505b50905060005b828110156118925784818151811061185c5761185c6187d4565b6020026020010151828281518110611876576118766187d4565b60200260200101819052508061188b90618755565b9050611842565b5061189d8a82613b29565b90985096506118bc92505050565b6118b58883613b29565b9096509450505b505050935093915050565b6000808360400151516001600160401b038111156118e7576118e76187ea565b604051908082528060200260200182016040528015611910578160200160208202803683370190505b50905060008461014001516001600160401b03811115611932576119326187ea565b60405190808252806020026020018201604052801561195b578160200160208202803683370190505b50905060005b8560400151518110156119c15761199486604001518281518110611987576119876187d4565b6020026020010151613d7c565b8382815181106119a6576119a66187d4565b60209081029190910101526119ba81618755565b9050611961565b5060005b856101400151811015611a25576119f8866060015182815181106119eb576119eb6187d4565b6020026020010151613dea565b828281518110611a0a57611a0a6187d4565b6020908102919091010152611a1e81618755565b90506119c5565b507f00000000000000000000000000000000000000000000000000000000000000008560000151866020015184604051602001611a629190617c68565b6040516020818303038152906040528051906020012084604051602001611a899190617c68565b6040516020818303038152906040528051906020012089608001518a60a001518b60c001518c60e001518d61010001518e61012001518e604051602001611adb9c9b9a99989796959493929190617e79565b604051602081830303815290604052805190602001209250505092915050565b6000611b11826060015151836101400151613e41565b81516001600160a01b03166000908152600260205260409020546105049083906118c7565b6000836020015115611b6c578115611b6457604051630694555d60e21b815260048101869052602401610b30565b506000611be8565b60408401516001600160781b031615611be4578215611ba15760405163ee9e0e6360e01b815260048101869052602401610b30565b83606001516001600160781b031684604001516001600160781b031610611be4578115611b64576040516310fda3e160e01b815260048101869052602401610b30565b5060015b949350505050565b6001600160a01b038316331415611c0657505050565b6000611c54611c1361208c565b8460405161190160f01b6020820152602281018390526042810182905260009060620160405160208183030381529060405280519060200120905092915050565b90506000806000845160401415611c8857505050602082015160408301516001600160ff1b0381169060ff1c601b01611cf8565b845160411415611ce45750505060208201516040830151606084015160001a601b8114801590611cbc57508060ff16601c14155b15611cdf57604051630f801e8560e11b815260ff82166004820152602401610b30565b611cf8565b611cef878587613e66565b50505050505050565b6040805160008082526020820180845287905260ff841692820192909252606081018590526080810184905260019060a0016020604051602081039080840390855afa158015611d4c573d6000803e3d6000fd5b5050604051601f1901519150506001600160a01b038116611d8057604051638baa579f60e01b815260040160405180910390fd5b876001600160a01b0316816001600160a01b031614611da457611da4888688613e66565b5050505050505050565b606081806001600160401b03811115611dc957611dc96187ea565b604051908082528060200260200182016040528015611e0257816020015b611def616c2e565b815260200190600190039081611de75790505b50915060005b81811015611e6a57611e3c858583818110611e2557611e256187d4565b9050602002810190611e379190618327565b611e72565b838281518110611e4e57611e4e6187d4565b602002602001018190525080611e6390618755565b9050611e08565b505092915050565b611e7a616c2e565b6040805160a0810190915280611e90848061833d565b611e9990618706565b815260200160016001600160781b0316815260200160016001600160781b03168152602001838060200190611ece91906182e1565b8080601f01602080910402602001604051908101604052809392919081815260200183838082843760009201829052509385525050604080516020818101909252928352909201525092915050565b600060606000806000611f3388886001876130da565b604080516001808252818301909252939650919450925060009190816020015b611f5b616c2e565b815260200190600190039081611f535790505090508881600081518110611f8457611f846187d4565b6020026020010181905250611f998189613f0e565b600081600081518110611fae57611fae6187d4565b60200260200101516000015190506000611fd08286868561012001518d6142b3565b905081602001516001600160a01b031682600001516001600160a01b03167f9d9af8e38d66c62e2c12f0225249fd9d721c54b83f48d9352c97c6cacdcb6f3188338560200151866040015160405161202b9493929190617eec565b60405180910390a360019750505050505050505b9392505050565b60608060606120598c8c8c600088611262565b6120778b6120678a8c6184e8565b612071898b6184e8565b886146a7565b919e909d50909b509950505050505050505050565b60007f000000000000000000000000000000000000000000000000000000000000000046146121595750604080517f00000000000000000000000000000000000000000000000000000000000000006020808301919091527f0000000000000000000000000000000000000000000000000000000000000000828401527f000000000000000000000000000000000000000000000000000000000000000060608301524660808301523060a0808401919091528351808403909101815260c0909201909252805191012090565b507f000000000000000000000000000000000000000000000000000000000000000090565b61219486610120013587610140013560016149b5565b5061219d6149fb565b6121c56121ae610200880188618208565b6121ba9150600161841c565b876101e00135613e41565b6040805160e0810182526000808252602082018190529181018290526060808201526080810182905260a0810182905260c081019190915260006040518060a0016040528088600381111561221c5761221c6187be565b8152602001876005811115612233576122336187be565b815260200186600581111561224a5761224a6187be565b8152602001856001600160a01b03168152602001846005811115612270576122706187be565b9052905060006122846102008a018a618208565b6122909150600161841c565b6001600160401b038111156122a7576122a76187ea565b6040519080825280602002602001820160405280156122e057816020015b6122cd616c62565b8152602001906001900390816122c55790505b5060408051600180825281830190925291925060009190816020015b612304616c92565b8152602001906001900390816122fc5750507f000000000000000000000000000000000000000000000000000000000000000085526040805160c08101909152602085015191925060009181906005811115612362576123626187be565b8152602090810190612376908e018e6172e4565b6001600160a01b031681526020018c6020013581526020018c6040013581526020018c6040013581526020018c60600160208101906123b591906172e4565b6001600160a01b0316905290506123d26101e08c0135600161841c565b6001600160401b038111156123e9576123e96187ea565b604051908082528060200260200182016040528015612412578160200160208202803683370190505b506060808701919091528551825160208085015160408087015195870151608088015160a0890151925161244c9894959293919201618166565b604051602081830303815290604052805190602001208560600151600081518110612479576124796187d4565b60200260200101818152505061248d616c62565b6040805160c081018252600080825260208201819052918101829052606081018290526080810182905260a081019190915260006040518060a00160405280886020015160058111156124e2576124e26187be565b815260200185602001516001600160a01b0316815260200185604001518152602001856080015181526020018560a001516001600160a01b031681525090508086600081518110612535576125356187d4565b602002602001018190525060005b8e8061020001906125549190618208565b90508110156127295760008f8061020001906125709190618208565b83818110612580576125806187d4565b905060400201803603810190612596919061765a565b90506040518060a001604052808a6040015160058111156125b9576125b96187be565b81526020018a606001516001600160a01b03168152602001600081526020018260000151815260200182602001516001600160a01b031681525094508488836001612604919061841c565b81518110612614576126146187d4565b60200260200101819052508f6101e0013582106126315750612717565b6040518060c001604052808a604001516005811115612652576126526187be565b81526020018a606001516001600160a01b0316815260200160008152602001826000015181526020018260000151815260200182602001516001600160a01b031681525093508960000151846000015185602001518660400151876060015188608001518960a001516040516020016126d19796959493929190618166565b604051602081830303815290604052805190602001208a606001518360016126f9919061841c565b81518110612709576127096187d4565b602002602001018181525050505b8061272181618755565b915050612543565b50876060015160405160200161273f9190617c68565b60408051601f19818403018152919052805160209091012060808901526101e08e01355b8e8061020001906127749190618208565b90508110156128535760008f8061020001906127909190618208565b838181106127a0576127a06187d4565b9050604002018036038101906127b6919061765a565b90506040518060a001604052808a6040015160058111156127d9576127d96187be565b81526020018a606001516001600160a01b03168152602001600081526020018260000151815260200182602001516001600160a01b031681525094508488836001612824919061841c565b81518110612834576128346187d4565b602002602001018190525050808061284b90618755565b915050612763565b50507f0000000000000000000000000000000000000000000000000000000000000000875250506040805160808082019092529085015160009250819060058111156128a1576128a16187be565b81526020016128b660c08e0160a08f016172e4565b6001600160a01b031681526020018c60c0013581526020018c60e00135815250905080826000815181106128ec576128ec6187d4565b60200260200101819052506000604051806020016040528087600001518460000151856020015186604001518760600151886060015160405160200161293796959493929190618125565b604051602081830303815290604052805190602001208152509050806040516020016129639190617c34565b60408051601f1981840301815291815281516020909201919091209087015250507f000000000000000000000000000000000000000000000000000000000000000084526129b2848b85614ac4565b60208501526129c760a08b0160808c016172e4565b6001600160a01b03166129e060808c0160608d016172e4565b6001600160a01b03167f9d9af8e38d66c62e2c12f0225249fd9d721c54b83f48d9352c97c6cacdcb6f318660200151338587604051612a229493929190617eec565b60405180910390a3612a6484602001518b61016001358b8d6060016020810190612a4c91906172e4565b8e6080016020810190612a5f91906172e4565b614b82565b6020840151612ac590612a7d60808d0160608e016172e4565b612a8b6102208e018e6182e1565b8080601f016020809104026020016040519081016040528093929190818152602001838380828437600092019190915250614c8992505050565b50505050505050505050565b80612b085781600114612af75760405163efcc00b160e01b815260040160405180910390fd5b612b0386868686614d2c565b612c2b565b604080516001808252818301909252600091816020015b612b27616cc4565b815260200190600190039081612b1f5750506040805160c081019091529091508060025b8152602001886001600160a01b03168152602001876001600160a01b03168152602001866001600160a01b031681526020018581526020018481525081600081518110612b9a57612b9a6187d4565b6020026020010181905250612bae82614dc5565b6001600160a01b0316634ce34aa2826040518263ffffffff1660e01b8152600401612bd99190617d79565b602060405180830381600087803b158015612bf357600080fd5b505af1158015612c07573d6000803e3d6000fd5b505050506040513d601f19601f82011682018060405250810190611da491906175f4565b505050505050565b3460005b612c45610200840184618208565b9050811015612cd25736612c5d610200850185618208565b83818110612c6d57612c6d6187d4565b60400291909101915050803583811115612c9a57604051631a783b8d60e01b815260040160405180910390fd5b612cb3612cad60408401602085016172e4565b82614ea6565b612cbd81856184ae565b9350505080612ccb90618755565b9050612c37565b5080831115612cf457604051631a783b8d60e01b815260040160405180910390fd5b612d0d612d0760808401606085016172e4565b84614ea6565b82811115612d2857612d2833612d2385846184ae565b614ea6565b505050565b612d3682614f35565b80612d4857612b038686868686614f53565b604080516001808252818301909252600091816020015b612d67616cc4565b815260200190600190039081612d5f5750506040805160c08101909152909150806003612b4b565b600081612da157826101c00135612da8565b826101a001355b905060005b612dbb610200850185618208565b9050811015612e2d5736612dd3610200860186618208565b83818110612de357612de36187d4565b90506040020190508315612dff57612dfc8135876184ae565b95505b612e1c878a612e1460408501602086016172e4565b843587615002565b50612e2681618755565b9050612dad565b50611cef8588888785615002565b6040805160a0810182526000808252606060208301819052928201839052918101829052608081019190915281516040015180516000906001600160401b03811115612e8957612e896187ea565b604051908082528060200260200182016040528015612ec257816020015b612eaf616c92565b815260200190600190039081612ea75790505b50905060005b8251811015612f6f576000838281518110612ee557612ee56187d4565b602002602001015190506000604051806080016040528083600001516005811115612f1257612f126187be565b815260200183602001516001600160a01b03168152602001836040015181526020018360600151815250905080848481518110612f5157612f516187d4565b6020026020010181905250505080612f6890618755565b9050612ec8565b5083516060015180516000906001600160401b03811115612f9257612f926187ea565b604051908082528060200260200182016040528015612fcb57816020015b612fb8616c62565b815260200190600190039081612fb05790505b50905060005b825181101561308b576000838281518110612fee57612fee6187d4565b6020026020010151905060006040518060a001604052808360000151600581111561301b5761301b6187be565b815260200183602001516001600160a01b0316815260200183604001518152602001836060015181526020018360a001516001600160a01b031681525090508084848151811061306d5761306d6187d4565b602002602001018190525050508061308490618755565b9050612fd1565b506040805160a0810182528751516001600160a01b031681526020808201959095529081019190915285516101200151606082015291909401516001600160781b031660808201529392505050565b600080600080876000015190506130fa8160a001518260c00151886149b5565b61310e575060009250829150819050613392565b602088015160408901516001600160781b03918216911680821180613131575081155b1561314f57604051632d02959960e11b815260040160405180910390fd5b808210801561316657506131668360800151615145565b156131845760405163a11b63ff60e01b815260040160405180910390fd5b61318d83611afb565b95506131af8a8a89898760e00151886080015189600001518a60200151615163565b60008681526001602090815260408083208151608081018352905460ff808216151583526101008204161515938201939093526001600160781b03620100008404811692820192909252600160881b9092041660608201529061321690889083908c611b36565b61322b57506000945084935061339292505050565b8051613244576132448460000151888d60600151611bf0565b604081015160608201516001600160781b039182169116801561332b578360011415613275578094508093506132a1565b8381146132a157613286848361848f565b9150613292818661848f565b945061329e818561848f565b93505b836132ac868461841c565b11156132bf576132bc82856184ae565b94505b6000898152600160208190526040909120805461ffff191690911790556132e6858361841c565b60008a8152600160205260409020805461ffff16620100006001600160781b03938416026001600160881b031617600160881b92871692909202919091179055613387565b600089815260016020819052604090912080546001600160781b03878116600160881b026001600160881b03918a16620100000270ffffffffffffffffffffffffffffffffff1990931692909217909317929092169190911790555b509295509093505050505b9450945094915050565b6000828414156133ad57508061203f565b60006133b9858461848f565b90506133c58482618459565b9150600083866133d5878661848f565b6133df9190618459565b149050806134005760405163c63cf08960e01b815260040160405180910390fd5b50509392505050565b600085871461346c5760008215613428576134256001856184ae565b90505b600081613435888a61848f565b61343f888c61848f565b613449919061841c565b613453919061841c565b905060006134618683618459565b935061346f92505050565b50845b9695505050505050565b805160005b8181101561371457600083828151811061349a5761349a6187d4565b60200260200101519050600081600001519050855181106134ce576040516321a561b160e21b815260040160405180910390fd5b8581815181106134e0576134e06187d4565b6020026020010151608001516001600160781b031660001415613504575050613704565b60408201516000808085602001516001811115613523576135236187be565b14156135f657600089858151811061353d5761353d6187d4565b60200260200101516020015190508051841061356c57604051635fd9fc6760e11b815260040160405180910390fd5b6000818581518110613580576135806187d4565b6020908102919091010151805160408201519095509350905060048460058111156135ad576135ad6187be565b146135b95760036135bc565b60025b819060058111156135cf576135cf6187be565b908160058111156135e2576135e26187be565b9052506060870151604090910152506136bf565b600089858151811061360a5761360a6187d4565b602002602001015160400151905080518410613639576040516330446bef60e11b815260040160405180910390fd5b600081858151811061364d5761364d6187d4565b60209081029190910101518051604082015190955093509050600484600581111561367a5761367a6187be565b14613686576003613689565b60025b8190600581111561369c5761369c6187be565b908160058111156136af576136af6187be565b9052506060870151604090910152505b6136c882615337565b6136e557604051634a75b57b60e11b815260040160405180910390fd5b80156136fe576136fe8560600151828760800151615354565b50505050505b61370d81618755565b905061347e565b5050815160005b8181101561383c576000848281518110613737576137376187d4565b602002602001015190506000816020015151905081608001516001600160781b03166000141561376857505061382c565b60005b818110156137cb5761379d8360200151828151811061378c5761378c6187d4565b602002602001015160000151615337565b156137bb5760405163a6cfc67360e01b815260040160405180910390fd5b6137c481618755565b905061376b565b505060408101515160005b81811015613828576137f78360400151828151811061378c5761378c6187d4565b156138185760405160016202297360e61b0319815260040160405180910390fd5b61382181618755565b90506137d6565b5050505b61383581618755565b905061371b565b50505050565b61384a616c07565b831580613855575081155b1561387357604051634c74edb760e11b815260040160405180910390fd5b60006138d3878585808060200260200160405190810160405280939291908181526020016000905b828210156138c7576138b86040830286013681900381019061777d565b8152602001906001019061389b565b50505050506000615416565b9050613933878787808060200260200160405190810160405280939291908181526020016000905b82821015613927576139186040830286013681900381019061777d565b815260200190600101906138fb565b505050505060006156d9565b81519092506005811115613949576139496187be565b825151600581111561395d5761395d6187be565b141580613988575080602001516001600160a01b03168260000151602001516001600160a01b031614155b8061399f5750806040015182600001516040015114155b156139bd576040516309cfb45560e01b815260040160405180910390fd5b81600001516060015181606001511115613a70576000848460008181106139e6576139e66187d4565b9050604002018036038101906139fc919061777d565b90508260000151606001518260600151613a1691906184ae565b88826000015181518110613a2c57613a2c6187d4565b602002602001015160400151826020015181518110613a4d57613a4d6187d4565b602090810291909101015160609081019190915283518101519083015250613afe565b600086866000818110613a8557613a856187d4565b905060400201803603810190613a9b919061777d565b90508160600151836000015160600151613ab591906184ae565b88826000015181518110613acb57613acb6187d4565b602002602001015160200151826020015181518110613aec57613aec6187d4565b60200260200101516060018181525050505b60608082015183519091015260809081015182516001600160a01b0390911691015295945050505050565b6060806060600085519050806001600160401b03811115613b4c57613b4c6187ea565b604051908082528060200260200182016040528015613b75578160200160208202803683370190505b50935060005b81811015613c6b576000878281518110613b9757613b976187d4565b6020026020010151905080608001516001600160781b031660001415613bbd5750613c5b565b6001868381518110613bd157613bd16187d4565b91151560209283029190910190910152604081015160005b8151811015613c57576000828281518110613c0657613c066187d4565b602002602001015160600151905080600014613c46576040516314bea84160e31b8152600481018690526024810183905260448101829052606401610b30565b50613c5081618755565b9050613be9565b5050505b613c6481618755565b9050613b7b565b50613c7585615965565b90935091503460005b8451811015613d23576000858281518110613c9b57613c9b6187d4565b60209081029190910101518051909150600081516005811115613cc057613cc06187be565b1415613cfd578381606001511115613ceb57604051631a783b8d60e01b815260040160405180910390fd5b6060810151613cfa90856184ae565b93505b613d10818360200151846040015161601e565b505080613d1c90618755565b9050613c7e565b5060005b8351811015613d6257613d52848281518110613d4557613d456187d4565b60200260200101516160d6565b613d5b81618755565b9050613d27565b508015613d7357613d733382614ea6565b50509250925092565b60007f000000000000000000000000000000000000000000000000000000000000000082600001518360200151846040015185606001518660800151604051602001613dcd96959493929190618125565b604051602081830303815290604052805190602001209050919050565b60007f0000000000000000000000000000000000000000000000000000000000000000826000015183602001518460400151856060015186608001518760a00151604051602001613dcd9796959493929190618166565b80821015613e6257604051632335530b60e11b815260040160405180910390fd5b5050565b604051630b135d3f60e11b808252906001600160a01b03851690631626ba7e90613e96908690869060040161810c565b60206040518083038186803b158015613eae57600080fd5b505afa158015613ec2573d6000803e3d6000fd5b505050506040513d601f19601f82011682018060405250810190613ee691906175f4565b6001600160e01b03191614612d2857604051632057875960e21b815260040160405180910390fd5b805160005b81811015614197576000838281518110613f2f57613f2f6187d4565b6020026020010151905060008160000151905085518110613f63576040516321a561b160e21b815260040160405180910390fd5b858181518110613f7557613f756187d4565b6020026020010151602001516001600160781b031660001415613f99575050614187565b6000868281518110613fad57613fad6187d4565b60209081029190910101515160408401519091506000808086602001516001811115613fdb57613fdb6187be565b141561409357836040015151831061400657604051635fd9fc6760e11b815260040160405180910390fd5b60008460400151848151811061401e5761401e6187d4565b60209081029190910101518051604082015190945092509050600483600581111561404b5761404b6187be565b1461405757600361405a565b60025b8190600581111561406d5761406d6187be565b90816005811115614080576140806187be565b9052506060870151604090910152614141565b83606001515183106140b8576040516330446bef60e11b815260040160405180910390fd5b6000846060015184815181106140d0576140d06187d4565b6020908102919091010151805160408201519094509250905060048360058111156140fd576140fd6187be565b1461410957600361410c565b60025b8190600581111561411f5761411f6187be565b90816005811115614132576141326187be565b90525060608701516040909101525b61414a82615337565b61416757604051634a75b57b60e11b815260040160405180910390fd5b8015614180576141808660600151828860800151615354565b5050505050505b61419081618755565b9050613f13565b5050815160005b8181101561383c5760008482815181106141ba576141ba6187d4565b6020026020010151905080602001516001600160781b0316600014156141e057506142a3565b8051606001515160005b818110156142405761420f836000015160600151828151811061378c5761378c6187d4565b156142305760405160016202297360e61b0319815260040160405180910390fd5b61423981618755565b90506141ea565b50508051604001515160005b8181101561429f57614271836000015160400151828151811061378c5761378c6187d4565b1561428f5760405163a6cfc67360e01b815260040160405180910390fd5b61429881618755565b905061424c565b5050505b6142ac81618755565b905061419e565b6040805160a0810182526000808252606060208301819052928201839052918101829052608081019190915260008660a001518760c001516142f591906184ae565b905060008760a001514261430991906184ae565b9050600061431782846184ae565b60408a01515190915034906001600160401b03811115614339576143396187ea565b60405190808252806020026020018201604052801561437257816020015b61435f616c92565b8152602001906001900390816143575790505b50602086015260005b8a60400151518110156144f55760008b6040015182815181106143a0576143a06187d4565b6020026020010151905060006143c5826060015183608001518e8e8a8a8d600061627e565b905060006040518060a00160405280846000015160058111156143ea576143ea6187be565b815260200184602001516001600160a01b0316815260200184604001518152602001838152602001336001600160a01b03168152509050604051806080016040528082600001516005811115614442576144426187be565b815260200182602001516001600160a01b0316815260200182604001518152602001838152508960200151858151811061447e5761447e6187d4565b602090810291909101015260008151600581111561449e5761449e6187be565b14156144d257848211156144c557604051631a783b8d60e01b815260040160405180910390fd5b6144cf82866184ae565b94505b6144e1818f600001518d61601e565b505050806144ee90618755565b905061437b565b508960600151516001600160401b03811115614513576145136187ea565b60405190808252806020026020018201604052801561454c57816020015b614539616c62565b8152602001906001900390816145315790505b50604086015260005b8a60600151518110156146895760008b60600151828151811061457a5761457a6187d4565b60200260200101519050600061459f826060015183608001518e8e8a8a8d600161627e565b905060006040518060a00160405280846000015160058111156145c4576145c46187be565b815260200184602001516001600160a01b03168152602001846040015181526020018381526020018460a001516001600160a01b031681525090508089604001518581518110614616576146166187d4565b6020908102919091010152600081516005811115614636576146366187be565b141561466a578482111561465d57604051631a783b8d60e01b815260040160405180910390fd5b61466782866184ae565b94505b61467581338c61601e565b5050508061468290618755565b9050614555565b50801561469a5761469a3382614ea6565b5050505095945050505050565b82518251606091829182919060006146bf828461841c565b6001600160401b038111156146d6576146d66187ea565b60405190808252806020026020018201604052801561470f57816020015b6146fc616c07565b8152602001906001900390816146f45790505b5090506000805b848110156147c05760008b8281518110614732576147326187d4565b60200260200101519050600061474b8e6000848e6162cb565b905080602001516001600160a01b03168160000151608001516001600160a01b031614156147855761477e60018561841c565b93506147ad565b808561479186866184ae565b815181106147a1576147a16187d4565b60200260200101819052505b5050806147b990618755565b9050614716565b5060005b838110156148795760008a82815181106147e0576147e06187d4565b6020026020010151905060006147f98e6001848e6162cb565b905080602001516001600160a01b03168160000151608001516001600160a01b031614156148335761482c60018561841c565b9350614866565b8085856148408a8761841c565b61484a91906184ae565b8151811061485a5761485a6187d4565b60200260200101819052505b50508061487290618755565b90506147c4565b50801561497d5760008161488d858761841c565b61489791906184ae565b90506000816001600160401b038111156148b3576148b36187ea565b6040519080825280602002602001820160405280156148ec57816020015b6148d9616c07565b8152602001906001900390816148d15790505b50905060005b828110156149425784818151811061490c5761490c6187d4565b6020026020010151828281518110614926576149266187d4565b60200260200101819052508061493b90618755565b90506148f2565b5080516149625760405163d5da9a1b60e01b815260040160405180910390fd5b61496c8d82613b29565b985098509850505050505050613392565b815161499c5760405163d5da9a1b60e01b815260040160405180910390fd5b6149a68b83613b29565b96509650965050505050613392565b6000428411806149c55750428311155b156149f15781156149e9576040516337bf561360e11b815260040160405180910390fd5b50600061203f565b5060019392505050565b6000614a0b6024600436846183f2565b810190614a1891906175db565b6020148015614a455750614a336102446102243660006183f2565b810190614a4091906175db565b610240145b8015614aa15750614a5d6102846102643660006183f2565b810190614a6a91906175db565b614a7590604061848f565b614a819061026061841c565b614a926102646102443660006183f2565b810190614a9f91906175db565b145b905080614ac1576040516339f3e3fd60e01b815260040160405180910390fd5b50565b600080600281614ada60808701606088016172e4565b6001600160a01b031681526020810191909152604001600020548551909150614b0960808601606087016172e4565b614b1960a08701608088016172e4565b8760400151886080015187600001518961012001358a61014001358b61016001358c61018001358d6101a001358b604051602001614b629c9b9a99989796959493929190617e79565b604051602081830303815290604052805190602001209150509392505050565b6001836003811115614b9657614b966187be565b118015614bac5750336001600160a01b03821614155b8015614bc15750336001600160a01b03831614155b15614c82576040516303874c7760e21b808252600482018790523360248301526001600160a01b03848116604484015260648301879052909190831690630e1d31dc9060840160206040518083038186803b158015614c1f57600080fd5b505afa158015614c33573d6000803e3d6000fd5b505050506040513d601f19601f82011682018060405250810190614c5791906175f4565b6001600160e01b03191614614c8257604051633ed4053f60e21b815260048101869052602401610b30565b5050505050565b6000838152600160208181526040928390208351608081018552905460ff808216151583526101008204161515928201929092526001600160781b03620100008304811694820194909452600160881b9091049092166060830152614cf2908590839080611b36565b508051614d0457614d04838584611bf0565b5050506000908152600160205260409020710100000000000000000000000000000100019055565b6001600160a01b0384163b614d5f57604051632f8aeb3960e11b81526001600160a01b0385166004820152602401610b30565b6040516323b872dd60e01b81526001600160a01b0384811660048301528381166024830152604482018390528516906323b872dd90606401600060405180830381600087803b158015614db157600080fd5b505af1158015611da4573d6000803e3d6000fd5b6000614e65826040516001600160f81b031960208201526bffffffffffffffffffffffff197f000000000000000000000000000000000000000000000000000000000000000060601b166021820152603581018290527f0000000000000000000000000000000000000000000000000000000000000000605582015260009060750160408051601f19818403018152919052805160209091012092915050565b90506001600160a01b0381163b614ea157604051630e7ccd9360e11b8152600481018390526001600160a01b0382166024820152604401610b30565b919050565b614eaf81614f35565b6000826001600160a01b03168260405160006040518083038185875af1925050503d8060008114614efc576040519150601f19603f3d011682016040523d82523d6000602084013e614f01565b606091505b5050905080612d285760405163470c7c1d60e01b81526001600160a01b038416600482015260248101839052604401610b30565b80614ac15760405163246cf94560e21b815260040160405180910390fd5b6001600160a01b0385163b614f8657604051632f8aeb3960e11b81526001600160a01b0386166004820152602401610b30565b604051637921219560e11b81526001600160a01b0385811660048301528481166024830152604482018490526064820183905260a06084830152600060a483015286169063f242432a9060c4015b600060405180830381600087803b158015614fee57600080fd5b505af11580156116a5573d6000803e3d6000fd5b61500b82614f35565b806150215761501c85858585616437565b614c82565b604080516001808252818301909252600091816020015b615040616cc4565b815260200190600190039081615038579050506040805160c081019091529091508060018152602001876001600160a01b03168152602001866001600160a01b03168152602001856001600160a01b031681526020016000815260200184815250816000815181106150b4576150b46187d4565b60200260200101819052506150c882614dc5565b6001600160a01b0316634ce34aa2826040518263ffffffff1660e01b81526004016150f39190617d79565b602060405180830381600087803b15801561510d57600080fd5b505af1158015615121573d6000803e3d6000fd5b505050506040513d601f19601f82011682018060405250810190611cef91906175f4565b6000816003811115615159576151596187be565b6001161592915050565b6001836003811115615177576151776187be565b11801561518d5750336001600160a01b03821614155b80156151a25750336001600160a01b03831614155b15611da4576080880151511580156151b957508651155b1561527f576040516303874c7760e21b808252600482018790523360248301526001600160a01b03848116604484015260648301879052909190831690630e1d31dc9060840160206040518083038186803b15801561521757600080fd5b505afa15801561522b573d6000803e3d6000fd5b505050506040513d601f19601f8201168201806040525081019061524f91906175f4565b6001600160e01b0319161461527a57604051633ed4053f60e21b815260048101869052602401610b30565b611da4565b604051630331315760e41b81526303874c7760e21b906001600160a01b038316906333131570906152bc90899033908e908d908f90600401617f86565b60206040518083038186803b1580156152d457600080fd5b505afa1580156152e8573d6000803e3d6000fd5b505050506040513d601f19601f8201168201806040525081019061530c91906175f4565b6001600160e01b03191614611da457604051633ed4053f60e21b815260048101869052602401610b30565b6000600382600581111561534d5761534d6187be565b1192915050565b8260005b82518110156153f5576000838281518110615375576153756187d4565b602002602001015190508083116153b75760408051602081018590529081018290526060016040516020818303038152906040528051906020012092506153e4565b60408051602081018390529081018490526060016040516020818303038152906040528051906020012092505b506153ee81618755565b9050615358565b5080831461383c576040516309bde33960e01b815260040160405180910390fd5b61541e616c62565b615444604051806060016040528060008152602001600081526020016000151581525090565b838381518110615456576154566187d4565b60209081029190910101515181528351849084908110615478576154786187d4565b60209081029190910181015181015190820152845181511015604082018190526156ae576000858260000151815181106154b4576154b46187d4565b602002602001015190508160400151806154d75750806040015151826020015110155b1515604083018190526156ac5760008160400151836020015181518110615500576155006187d4565b602002602001015190506040518060a001604052808260000151600581111561552b5761552b6187be565b815260200182602001516001600160a01b03168152602001826040015181526020018260600151815260200182608001516001600160a01b0316815250935060008160600181815250506000856001615584919061841c565b90505b86518110156156a9578681815181106155a2576155a26187d4565b602090810291909101015151845286518790829081106155c4576155c46187d4565b602090810291909101810151810151908501528751845110801560408601526155ec576156a9565b87846000015181518110615602576156026187d4565b6020026020010151925082608001516001600160781b03166000146156995760408084015151602086015110801591860191909152615640576156a9565b826040015184602001518151811061565a5761565a6187d4565b6020026020010151915081606001518560600151615678919061841c565b60608087019190915260009083015261569182866165c6565b151560408501525b6156a281618755565b9050615587565b50505b505b8060400151156156d157604051637fda727960e01b815260040160405180910390fd5b509392505050565b6156e1616c07565b60008383815181106156f5576156f56187d4565b60200260200101516000015190506000848481518110615717576157176187d4565b60200260200101516020015190506000865183101590508061593c576000878481518110615747576157476187d4565b60200260200101519050818061576257508060200151518310155b91508161593a57600081602001518481518110615781576157816187d4565b6020026020010151905060405180606001604052806040518060a00160405280846000015160058111156157b7576157b76187be565b815260200184602001516001600160a01b031681526020018460400151815260200184606001518152602001336001600160a01b0316815250815260200183600001516001600160a01b03168152602001836060015181525095506000816060018181525050600087600161582c919061841c565b90505b88518110156159375788818151811061584a5761584a6187d4565b602002602001015160000151955088818151811061586a5761586a6187d4565b602002602001015160200151945089518610159350831561588a57615937565b89868151811061589c5761589c6187d4565b6020026020010151925082608001516001600160781b0316600014615927576020830151518510801594506158d057615937565b826020015185815181106158e6576158e66187d4565b602002602001015191508160600151876000015160600151615908919061841c565b875160609081019190915260009083015261592483838961664f565b93505b61593081618755565b905061582f565b50505b505b801561595b57604051637fda727960e01b815260040160405180910390fd5b5050509392505050565b80516060908190600181116159b1576040805160008082526020820190925285916159a6565b615993616cfb565b81526020019060019003908161598b5790505b509250925050915091565b600080826001600160401b038111156159cc576159cc6187ea565b6040519080825280602002602001820160405280156159f5578160200160208202803683370190505b50905060005b8651811015615a7a576003878281518110615a1857615a186187d4565b602002602001015160000151600001516005811115615a3957615a396187be565b1415615a6a57808284615a4b81618755565b955081518110615a5d57615a5d6187d4565b6020026020010181815250505b615a7381618755565b90506159fb565b5060018211615ac257604080516000808252602082019092528791615ab5565b615aa2616cfb565b815260200190600190039081615a9a5790505b5094509450505050915091565b6000826001600160401b03811115615adc57615adc6187ea565b604051908082528060200260200182016040528015615b2257816020015b604080518082019091526000815260606020820152815260200190600190039081615afa5790505b509050600082600081518110615b3a57615b3a6187d4565b602002602001015190506000615b5089836166f9565b60408051600180825281830190925291925060009190602080830190803683370190505090508281600081518110615b8a57615b8a6187d4565b6020026020010181815250508184600081518110615baa57615baa6187d4565b602002602001015160000181815250508084600081518110615bce57615bce6187d4565b60209081029190910181015101526001805b87811015615e13576000878281518110615bfc57615bfc6187d4565b60200260200101519050615c108d826166f9565b94506000805b84811015615d6d57888181518110615c3057615c306187d4565b602002602001015160000151871415615d5d576000898281518110615c5757615c576187d4565b60200260200101516020015190506000815190506000816001615c7a919061841c565b6001600160401b03811115615c9157615c916187ea565b604051908082528060200260200182016040528015615cba578160200160208202803683370190505b50905060005b82811015615d0f57838181518110615cda57615cda6187d4565b6020026020010151828281518110615cf457615cf46187d4565b6020908102919091010152615d0881618755565b9050615cc0565b5085818381518110615d2357615d236187d4565b602002602001018181525050808c8581518110615d4257615d426187d4565b60200260200101516020018190525060019450505050615d6d565b615d6681618755565b9050615c16565b5080615e005760408051600180825281830190925290602080830190803683370190505094508185600081518110615da757615da76187d4565b60200260200101818152505085888581518110615dc657615dc66187d4565b602090810291909101015152848885615dde81618755565b965081518110615df057615df06187d4565b6020026020010151602001819052505b505080615e0c90618755565b9050615be0565b5086811415615e6057604080516000808252602082019092528c91615e4e565b615e3b616cfb565b815260200190600190039081615e335790505b50995099505050505050505050915091565b6000886001600160401b03811115615e7a57615e7a6187ea565b604051908082528060200260200182016040528015615ea3578160200160208202803683370190505b50604080516002808252606082018352929350600092909160208301908036833701905050905060005b83811015615fc9576000888281518110615ee957615ee96187d4565b602002602001015160200151905060008151905060028110615fb65783600181518110615f1857615f186187d4565b602002602001018051615f2a90618755565b9052835181908590600090615f4157615f416187d4565b60200260200101818151615f55919061841c565b90525060005b81811015615fb457615f6e84600161841c565b86848381518110615f8157615f816187d4565b602002602001015181518110615f9957615f996187d4565b6020908102919091010152615fad81618755565b9050615f5b565b505b505080615fc290618755565b9050615ecd565b5061600b8d888484600081518110615fe357615fe36187d4565b602002602001015185600181518110615ffe57615ffe6187d4565b6020026020010151616798565b9b509b5050505050505050505050915091565b600083516005811115616033576160336187be565b141561604b57612d2883608001518460600151614ea6565b600183516005811115616060576160606187be565b141561607f57612d288360200151838560800151866060015185615002565b600283516005811115616094576160946187be565b14156160b857612d2883602001518385608001518660400151876060015186612ad1565b612d2883602001518385608001518660400151876060015186612d2d565b60a08101518151602083015160408401516060850151608086015185616108576161038585858585616b6a565b611cef565b604080516001808252818301909252600091816020015b6040805160a081018252600080825260208083018290529282015260608082018190526080820152825260001990920191018161611f5790505090506040518060a00160405280876001600160a01b03168152602001866001600160a01b03168152602001856001600160a01b0316815260200184815260200183815250816000815181106161b0576161b06187d4565b60200260200101819052506161c487614dc5565b6001600160a01b031663899e104c600060405190808252806020026020018201604052801561620d57816020015b6161fa616cc4565b8152602001906001900390816161f25790505b50836040518363ffffffff1660e01b815260040161622c929190617d8c565b602060405180830381600087803b15801561624657600080fd5b505af115801561625a573d6000803e3d6000fd5b505050506040513d601f19601f820116820180604052508101906116a591906175f4565b60008789141561629a5761629387878a61339c565b90506162bf565b6162bc6162a888888c61339c565b6162b389898c61339c565b87878787613409565b90505b98975050505050505050565b6162d3616c07565b84518351806162f7578560405163375c24c160e01b8152600401610b3091906181b4565b6000805b82811015616397576000878281518110616317576163176187d4565b602002602001015160000151905084811061634557604051637fda727960e01b815260040160405180910390fd5b898181518110616357576163576187d4565b6020026020010151608001516001600160781b03166000146163865761637e82600161841c565b925050616397565b5061639081618755565b90506162fb565b50806163e857505060408051610100810182526000606082018181526080830182905260a0830182905260c0830182905260e08301829052825260208201819052918101919091529150611be89050565b60008760018111156163fc576163fc6187be565b14156164215761641788876164126001856184ae565b6156d9565b9350505050611be8565b61641788876164316001856184ae565b88616bcf565b6001600160a01b0384163b61646a57604051632f8aeb3960e11b81526001600160a01b0385166004820152602401610b30565b604080516001600160a01b0385811660248301528481166044830152606480830185905283518084039091018152608490920183526020820180516001600160e01b03166323b872dd60e01b17905291516000928392908816916164ce9190617c9e565b6000604051808303816000865af19150503d806000811461650b576040519150601f19603f3d011682016040523d82523d6000602084013e616510565b606091505b50915091508161655c5760405163f486bc8760e01b81526001600160a01b038088166004830152808716602483015285166044820152600060648201526084810184905260a401610b30565b80511580159061656e57506020815110155b15612c2b578080602001905181019061658791906175b9565b612c2b57604051639889192360e01b81526001600160a01b03808816600483015280871660248301528516604482015260648101849052608401610b30565b600082608001516001600160a01b031682608001516001600160a01b03161415806166155750825160058111156165ff576165ff6187be565b82516005811115616612576166126187be565b14155b8061663a575082602001516001600160a01b031682602001516001600160a01b031614155b8061203f575050604091820151910151141590565b60008260400151826000015160400151141580616686575083600001516001600160a01b031682602001516001600160a01b031614155b8061669957508360600151826040015114155b806166c95750825160058111156166b2576166b26187be565b82515160058111156166c6576166c66187be565b14155b80611be8575082602001516001600160a01b03168260000151602001516001600160a01b03161415949350505050565b60008083838151811061670e5761670e6187d4565b6020026020010151905060008160000151905061678f816020015183602001518360800151856040015160408051602080820193909352606095861b6bffffffffffffffffffffffff199081168284015294861b851660548201529290941b90921660688201528251605c818303018152607c909101909252815191012090565b95945050505050565b8451606090819060006167ab86836184ae565b6001600160401b038111156167c2576167c26187ea565b6040519080825280602002602001820160405280156167fb57816020015b6167e8616c07565b8152602001906001900390816167e05790505b5090506000856001600160401b03811115616818576168186187ea565b60405190808252806020026020018201604052801561685157816020015b61683e616cfb565b8152602001906001900390816168365790505b509050600080876001600160401b0381111561686f5761686f6187ea565b604051908082528060200260200182016040528015616898578160200160208202803683370190505b50905060005b85811015616b575760008b82815181106168ba576168ba6187d4565b6020026020010151905060008e83815181106168d8576168d86187d4565b602002602001015190508160001415616919578087866168f781618755565b975081518110616909576169096187d4565b6020026020010181905250616b44565b60006169266001846184ae565b905060006001600160a01b0316878281518110616945576169456187d4565b6020026020010151600001516001600160a01b03161415616a845760008f8281518110616974576169746187d4565b6020026020010151602001515190506040518060c001604052808460000151602001516001600160a01b0316815260200184602001516001600160a01b031681526020018460000151608001516001600160a01b03168152602001826001600160401b038111156169e7576169e76187ea565b604051908082528060200260200182016040528015616a10578160200160208202803683370190505b508152602001826001600160401b03811115616a2e57616a2e6187ea565b604051908082528060200260200182016040528015616a57578160200160208202803683370190505b5081526020018460400151815250888381518110616a7757616a776187d4565b6020026020010181905250505b6000858281518110616a9857616a986187d4565b602002602001018051809190616aad90618755565b8152509050826000015160400151888381518110616acd57616acd6187d4565b6020026020010151606001518281518110616aea57616aea6187d4565b6020908102919091010152825160600151616b0481614f35565b80898481518110616b1757616b176187d4565b6020026020010151608001518381518110616b3457616b346187d4565b6020026020010181815250505050505b505080616b5090618755565b905061689e565b50929b919a509098505050505050505050565b6001600160a01b0385163b616b9d57604051632f8aeb3960e11b81526001600160a01b0386166004820152602401610b30565b604051631759616b60e11b81526001600160a01b03861690632eb2c2d690614fd4908790879087908790600401617cba565b616bd7616c07565b6000616be4868686615416565b604080516060810182529182523360208301528101939093525090949350505050565b6040518060600160405280616c1a616c62565b815260006020820181905260409091015290565b6040518060a00160405280616c41616d2f565b81526000602082018190526040820152606080820181905260809091015290565b6040805160a081019091528060008152600060208201819052604082018190526060820181905260809091015290565b6040805160808101909152806000815260200160006001600160a01b0316815260200160008152602001600081525090565b6040805160c08101909152806000815260006020820181905260408201819052606082018190526080820181905260a09091015290565b6040805160c0810182526000808252602082018190529181018290526060808201819052608082015260a081019190915290565b60405180610160016040528060006001600160a01b0316815260200160006001600160a01b03168152602001606081526020016060815260200160006003811115616d7c57616d7c6187be565b815260006020820181905260408201819052606082018190526080820181905260a0820181905260c09091015290565b8035614ea181618810565b60008083601f840112616dc957600080fd5b5081356001600160401b03811115616de057600080fd5b6020830191508360208260051b8501011115616dfb57600080fd5b9250929050565b600082601f830112616e1357600080fd5b81356020616e28616e23836183cf565b61839f565b80838252828201915082860187848660051b8901011115616e4857600080fd5b6000805b86811015616e8a5782356001600160401b03811115616e69578283fd5b616e778b88838d0101616ff3565b8652509385019391850191600101616e4c565b509198975050505050505050565b600082601f830112616ea957600080fd5b81356020616eb9616e23836183cf565b8281528181019085830160c080860288018501891015616ed857600080fd5b60005b86811015616e8a57616eed8a846170a8565b85529385019391810191600101616edb565b600082601f830112616f1057600080fd5b81356020616f20616e23836183cf565b8281528181019085830160a080860288018501891015616f3f57600080fd5b60005b86811015616e8a57616f548a84617189565b85529385019391810191600101616f42565b600082601f830112616f7757600080fd5b81356001600160401b03811115616f9057616f906187ea565b616fa3601f8201601f191660200161839f565b818152846020838601011115616fb857600080fd5b816020850160208301376000918101602001919091529392505050565b803560068110614ea157600080fd5b803560048110614ea157600080fd5b600060a0828403121561700557600080fd5b61700d618354565b905081356001600160401b038082111561702657600080fd5b617032858386016171e9565b8352617040602085016172cd565b6020840152617051604085016172cd565b6040840152606084013591508082111561706a57600080fd5b61707685838601616f66565b6060840152608084013591508082111561708f57600080fd5b5061709c84828501616f66565b60808301525092915050565b600060c082840312156170ba57600080fd5b60405160c081018181106001600160401b03821117156170dc576170dc6187ea565b6040529050806170eb83616fd5565b815260208301356170fb81618810565b8060208301525060408301356040820152606083013560608201526080830135608082015260a083013561712e81618810565b60a0919091015292915050565b60006040828403121561714d57600080fd5b604051604081018181106001600160401b038211171561716f5761716f6187ea565b604052823581526020928301359281019290925250919050565b600060a0828403121561719b57600080fd5b6171a3618354565b90506171ae82616fd5565b815260208201356171be81618810565b8060208301525060408201356040820152606082013560608201526080820135608082015292915050565b600061016082840312156171fc57600080fd5b61720461837c565b905061720f82616dac565b815261721d60208301616dac565b602082015260408201356001600160401b038082111561723c57600080fd5b61724885838601616eff565b6040840152606084013591508082111561726157600080fd5b5061726e84828501616e98565b60608301525061728060808301616fe4565b608082015260a082013560a082015260c082013560c082015260e082013560e082015261010080830135818301525061012080830135818301525061014080830135818301525092915050565b80356001600160781b0381168114614ea157600080fd5b6000602082840312156172f657600080fd5b813561203f81618810565b600080600080600080600080600060c08a8c03121561731f57600080fd5b89356001600160401b038082111561733657600080fd5b6173428d838e01616e02565b9a5060208c013591508082111561735857600080fd5b6173648d838e01616db7565b909a50985060408c013591508082111561737d57600080fd5b6173898d838e01616db7565b909850965060608c01359150808211156173a257600080fd5b506173af8c828d01616db7565b9a9d999c50979a96999598959660808101359660a09091013595509350505050565b6000806000806000606086880312156173e957600080fd5b85356001600160401b038082111561740057600080fd5b61740c89838a01616e02565b9650602088013591508082111561742257600080fd5b61742e89838a01616db7565b9096509450604088013591508082111561744757600080fd5b5061745488828901616db7565b969995985093965092949392505050565b6000806020838503121561747857600080fd5b82356001600160401b0381111561748e57600080fd5b61749a85828601616db7565b90969095509350505050565b60008060008060008060008060a0898b0312156174c257600080fd5b88356001600160401b03808211156174d957600080fd5b6174e58c838d01616db7565b909a50985060208b01359150808211156174fe57600080fd5b61750a8c838d01616db7565b909850965060408b013591508082111561752357600080fd5b506175308b828c01616db7565b999c989b509699959896976060870135966080013595509350505050565b6000806000806040858703121561756457600080fd5b84356001600160401b038082111561757b57600080fd5b61758788838901616db7565b909650945060208701359150808211156175a057600080fd5b506175ad87828801616db7565b95989497509550505050565b6000602082840312156175cb57600080fd5b8151801515811461203f57600080fd5b6000602082840312156175ed57600080fd5b5035919050565b60006020828403121561760657600080fd5b81516001600160e01b03198116811461203f57600080fd5b60006020828403121561763057600080fd5b81356018811061203f57600080fd5b60006020828403121561765157600080fd5b61203f82616fe4565b60006040828403121561766c57600080fd5b604051604081018181106001600160401b038211171561768e5761768e6187ea565b6040528235815260208301356176a381618810565b60208201529392505050565b600080600080606085870312156176c557600080fd5b84356001600160401b03808211156176dc57600080fd5b9086019060a082890312156176f057600080fd5b9094506020860135908082111561770657600080fd5b5061771387828801616db7565b9598909750949560400135949350505050565b60006020828403121561773857600080fd5b81356001600160401b0381111561774e57600080fd5b8201610240818503121561203f57600080fd5b600060c0828403121561777357600080fd5b61203f83836170a8565b60006040828403121561778f57600080fd5b61203f838361713b565b600060a082840312156177ab57600080fd5b61203f8383617189565b6000602082840312156177c757600080fd5b81356001600160401b038111156177dd57600080fd5b611be8848285016171e9565b600080604083850312156177fc57600080fd5b82356001600160401b0381111561781257600080fd5b83016040818603121561782457600080fd5b946020939093013593505050565b600081518084526020808501945080840160005b8381101561786257815187529582019590820190600101617846565b509495945050505050565b600081518084526020808501808196508360051b8101915082860160005b85811015617919578284038952815180516001600160a01b039081168652868201518116878701526040808301519091169086015260608082015160c082880181905291906178dc83890182617832565b92505050608080830151878303828901526178f78382617832565b60a094850151989094019790975250509885019893509084019060010161788b565b5091979650505050505050565b600081518084526020808501945080840160005b83811015617862578151805161794f81618800565b8852808401516001600160a01b03908116858a01526040808301518216908a0152606080830151909116908901526080808201519089015260a0908101519088015260c0909601959082019060010161793a565b600081518084526020808501945080840160005b838110156178625781516179cc888251617bc4565b808401516001600160a01b0390811689860152604080830151908a0152606080830151908a0152608080830151908a015260a091820151169088015260c090960195908201906001016179b7565b600081518084526020808501808196508360051b8101915082860160005b85811015617919578284038952815160a08151865286820151617a5d88880182617be1565b506040828101519087015260608083015190870152608091820151918601819052617a8a81870183617832565b9a87019a9550505090840190600101617a38565b600081518084526020808501945080840160005b83811015617862578151617ac7888251617bf1565b808401516001600160a01b031660a08901526040015160c088015260e09096019590820190600101617ab2565b600081518084526020808501945080840160005b83811015617862578151617b1d888251617bc4565b838101516001600160a01b03168885015260408082015190890152606080820151908901526080908101519088015260a09096019590820190600101617b08565b600081518084526020808501945080840160005b8381101561786257617b85878351617bf1565b60a0969096019590820190600101617b72565b60008151808452617bb0816020860160208601618712565b601f01601f19169290920160200192915050565b60068110617bd457617bd46187be565b9052565b617bd481618800565b60028110617bd457617bd46187be565b617bfc828251617bc4565b6020818101516001600160a01b0390811691840191909152604080830151908401526060808301519084015260809182015116910152565b60008183825b6001811015617c59578151835260209283019290910190600101617c3a565b50505060208201905092915050565b815160009082906020808601845b83811015617c9257815185529382019390820190600101617c76565b50929695505050505050565b60008251617cb0818460208701618712565b9190910192915050565b6001600160a01b0385811682528416602082015260a060408201819052600090617ce690830185617832565b8281036060840152617cf88185617832565b838103608090940193909352505060008152602001949350505050565b606080825284519082018190526000906020906080840190828801845b82811015617d50578151151584529284019290840190600101617d32565b50505083810382850152617d648187617a9e565b915050828103604084015261346f818561786d565b60208152600061203f6020830184617926565b60006040808352617d9f81840186617926565b6020848203818601528186518084528284019150828160051b85010183890160005b83811015617e4457868303601f19018552815180516001600160a01b0390811685528782015181168886015289820151168985015260608082015160a08287018190529190617e1283880182617832565b9250505060808083015192508582038187015250617e308183617832565b968801969450505090850190600101617dc1565b50909a9950505050505050505050565b604081526000617e676040830185617a9e565b828103602084015261678f818561786d565b8c81526001600160a01b038c811660208301528b166040820152606081018a9052608081018990526101808101617eaf89618800565b60a082019890985260c081019690965260e08601949094526101008501929092526101208401526101408301526101609091015295945050505050565b60006080808301878452602060018060a01b03808916828701526040848188015283895180865260a089019150848b01955060005b81811015617f62578651617f36848251617bc4565b808701518616848801528481015185850152606090810151908401529585019591870191600101617f21565b50508781036060890152617f76818a617b5e565b9c9b505050505050505050505050565b85815260018060a01b038516602082015260a060408201526000610140855160a080850152617fc082850182516001600160a01b03169052565b6020810151610160617fdc818701836001600160a01b03169052565b604083015191508061018087015250617ff96102a0860182617af4565b9050606082015161013f19868303016101a087015261801882826179a3565b915050608082015161802e6101c0870182617bd8565b5060a08201516101e086015260c082015161020086015260e082015161022086015261010080830151610240870152610120808401516102608801528484015161028088015260208a0151945061809060c08801866001600160781b03169052565b60408a01516001600160781b031660e088015260608a0151878403609f19908101848a015290955093506180c48386617b98565b945060808a0151925083878603018188015250506180e28382617b98565b9250505082810360608401526180f88186617832565b905082810360808401526162bf8185617a1a565b828152604060208201526000611be86040830184617b98565b86815260c081016181396020830188617bc4565b6001600160a01b039590951660408201526060810193909352608083019190915260a09091015292915050565b87815260e0810161817a6020830189617bc4565b6001600160a01b0396871660408301526060820195909552608081019390935260a083019190915290921660c09092019190915292915050565b602081016105048284617be1565b60208152600061203f6020830184617b98565b6060815260006181e86060830186617b98565b6020830194909452506001600160a01b0391909116604090910152919050565b6000808335601e1984360301811261821f57600080fd5b8301803591506001600160401b0382111561823957600080fd5b6020019150600681901b3603821315616dfb57600080fd5b6000808335601e1984360301811261826857600080fd5b8301803591506001600160401b0382111561828257600080fd5b602001915060c081023603821315616dfb57600080fd5b6000808335601e198436030181126182b057600080fd5b8301803591506001600160401b038211156182ca57600080fd5b602001915060a081023603821315616dfb57600080fd5b6000808335601e198436030181126182f857600080fd5b8301803591506001600160401b0382111561831257600080fd5b602001915036819003821315616dfb57600080fd5b60008235603e19833603018112617cb057600080fd5b6000823561015e19833603018112617cb057600080fd5b60405160a081016001600160401b0381118282101715618376576183766187ea565b60405290565b60405161016081016001600160401b0381118282101715618376576183766187ea565b604051601f8201601f191681016001600160401b03811182821017156183c7576183c76187ea565b604052919050565b60006001600160401b038211156183e8576183e86187ea565b5060051b60200190565b6000808585111561840257600080fd5b8386111561840f57600080fd5b5050820193919092039150565b6000821982111561842f5761842f618792565b500190565b600060ff821660ff84168060ff0382111561845157618451618792565b019392505050565b600082618468576184686187a8565b500490565b600060ff831680618480576184806187a8565b8060ff84160491505092915050565b60008160001904831182151516156184a9576184a9618792565b500290565b6000828210156184c0576184c0618792565b500390565b600060ff821660ff8416808210156184df576184df618792565b90039392505050565b60006184f6616e23846183cf565b808482526020808301925084368760051b8701111561851457600080fd5b60005b878110156185b55781356001600160401b0381111561853557600080fd5b870136601f82011261854657600080fd5b8035618554616e23826183cf565b8181528581019083870136600685901b86018901111561857357600080fd5b600094505b8385101561859f5761858a368261713b565b83526001949094019391870191604001618578565b5088525050509382019390820190600101618517565b50919695505050505050565b60006185cf616e23846183cf565b838152602080820191908460053688821b830111156185ed57600080fd5b60005b888110156186ed5782356001600160401b038082111561860f57600080fd5b818a01915060a0823603121561862457600080fd5b61862c618354565b82358152868301356002811061864157600080fd5b8188015260408381013590820152606080840135908201526080808401358381111561866c57600080fd5b939093019236601f85011261868057600080fd5b83359250618690616e23846183cf565b83815288810190858a0136868a1b88018c0111156186ad57600080fd5b600096505b858710156186d0578035835260019690960195918a01918a016186b2565b5091830191909152508852505094830194918301916001016185f0565b5092979650505050505050565b60006105043683616ff3565b600061050436836171e9565b60005b8381101561872d578181015183820152602001618715565b8381111561383c5750506000910152565b60008161874d5761874d618792565b506000190190565b600060001982141561876957618769618792565b5060010190565b600060ff831680618783576187836187a8565b8060ff84160691505092915050565b634e487b7160e01b600052601160045260246000fd5b634e487b7160e01b600052601260045260246000fd5b634e487b7160e01b600052602160045260246000fd5b634e487b7160e01b600052603260045260246000fd5b634e487b7160e01b600052604160045260246000fd5b60048110614ac157614ac16187be565b6001600160a01b0381168114614ac157600080fdfea2646970667358221220c1d0c8bd67ef87e8ea7bb7cf4b07e48514b0080290c49de502d8e39eec7fdaba64736f6c63430008070033",
    "linkReferences": {}
  }
}