{
  "abi": [
    {
      "constant": true,
      "inputs": [],
      "name": "proxyType",
      "outputs": [
        {
          "name": "proxyTypeId",
          "type": "uint256"
        }
      ],
      "payable": false,
      "stateMutability": "pure",
      "type": "function"
    },
    {
      "constant": true,
      "inputs": [],
      "name": "implementation",
      "outputs": [
        {
          "name": "",
          "type": "address"
        }
      ],
      "payable": false,
      "stateMutability": "view",
      "type": "function"
    },
    {
      "constant": true,
      "inputs": [],
      "name": "upgradeabilityOwner",
      "outputs": [
        {
          "name": "",
          "type": "address"
        }
      ],
      "payable": false,
      "stateMutability": "view",
      "type": "function"
    }
  ],
  "bytecode": {
    "object": "0x608060405234801561001057600080fd5b50610115806100206000396000f30060806040526004361060365760003560e01c63ffffffff1680634555d5c914603b5780635c60da1b14605f5780636fde820214609a575b600080fd5b348015604657600080fd5b50604d60ac565b60408051918252519081900360200190f35b348015606a57600080fd5b50607160b1565b6040805173ffffffffffffffffffffffffffffffffffffffff9092168252519081900360200190f35b34801560a557600080fd5b50607160cd565b600290565b60005473ffffffffffffffffffffffffffffffffffffffff1690565b60015473ffffffffffffffffffffffffffffffffffffffff16905600a165627a7a72305820d450baf36e65923152fdc229835d78629eb9ea5a5d8640eacdefd1a9208ce3660029",
    "linkReferences": {}
  }
}