{
  "address": "0x2C2B9C9a4a25e24B174f26114e8926a9f2128FE4",
  "abi": [
    {
      "inputs": [
        {
          "internalType": "address",
          "name": "legacyProxyRegistry",
          "type": "address"
        },
        {
          "internalType": "address",
          "name": "legacyTokenTransferProxy",
          "type": "address"
        },
        {
          "internalType": "address",
          "name": "requiredProxyImplementation",
          "type": "address"
        }
      ],
      "stateMutability": "nonpayable",
      "type": "constructor"
    },
    {
      "inputs": [],
      "name": "BadContractSignature",
      "type": "error"
    },
    {
      "inputs": [],
      "name": "BadFraction",
      "type": "error"
    },
    {
      "inputs": [
        {
          "internalType": "address",
          "name": "token",
          "type": "address"
        },
        {
          "internalType": "address",
          "name": "from",
          "type": "address"
        },
        {
          "internalType": "address",
          "name": "to",
          "type": "address"
        },
        {
          "internalType": "uint256",
          "name": "amount",
          "type": "uint256"
        }
      ],
      "name": "BadReturnValueFromERC20OnTransfer",
      "type": "error"
    },
    {
      "inputs": [
        {
          "internalType": "uint8",
          "name": "v",
          "type": "uint8"
        }
      ],
      "name": "BadSignatureV",
      "type": "error"
    },
    {
      "inputs": [],
      "name": "ConsiderationCriteriaResolverOutOfRange",
      "type": "error"
    },
    {
      "inputs": [
        {
          "internalType": "uint256",
          "name": "orderIndex",
          "type": "uint256"
        },
        {
          "internalType": "uint256",
          "name": "considerationIndex",
          "type": "uint256"
        },
        {
          "internalType": "uint256",
          "name": "shortfallAmount",
          "type": "uint256"
        }
      ],
      "name": "ConsiderationNotMet",
      "type": "error"
    },
    {
      "inputs": [],
      "name": "CriteriaNotEnabledForItem",
      "type": "error"
    },
    {
      "inputs": [
        {
          "internalType": "address",
          "name": "token",
          "type": "address"
        },
        {
          "internalType": "address",
          "name": "from",
          "type": "address"
        },
        {
          "internalType": "address",
          "name": "to",
          "type": "address"
        },
        {
          "internalType": "uint256[]",
          "name": "identifiers",
          "type": "uint256[]"
        },
        {
          "internalType": "uint256[]",
          "name": "amounts",
          "type": "uint256[]"
        }
      ],
      "name": "ERC1155BatchTransferGenericFailure",
      "type": "error"
    },
    {
      "inputs": [
        {
          "internalType": "address",
          "name": "account",
          "type": "address"
        },
        {
          "internalType": "uint256",
          "name": "amount",
          "type": "uint256"
        }
      ],
      "name": "EtherTransferGenericFailure",
      "type": "error"
    },
    {
      "inputs": [],
      "name": "FulfilledOrderIndexOutOfRange",
      "type": "error"
    },
    {
      "inputs": [],
      "name": "InexactFraction",
      "type": "error"
    },
    {
      "inputs": [],
      "name": "InsufficientEtherSupplied",
      "type": "error"
    },
    {
      "inputs": [],
      "name": "InvalidBasicOrderParameterEncoding",
      "type": "error"
    },
    {
      "inputs": [],
      "name": "InvalidCanceller",
      "type": "error"
    },
    {
      "inputs": [],
      "name": "InvalidERC721TransferAmount",
      "type": "error"
    },
    {
      "inputs": [],
      "name": "InvalidFulfillmentComponentData",
      "type": "error"
    },
    {
      "inputs": [
        {
          "internalType": "uint256",
          "name": "value",
          "type": "uint256"
        }
      ],
      "name": "InvalidMsgValue",
      "type": "error"
    },
    {
      "inputs": [],
      "name": "InvalidProof",
      "type": "error"
    },
    {
      "inputs": [],
      "name": "InvalidProxyImplementation",
      "type": "error"
    },
    {
      "inputs": [
        {
          "internalType": "bytes32",
          "name": "orderHash",
          "type": "bytes32"
        }
      ],
      "name": "InvalidRestrictedOrder",
      "type": "error"
    },
    {
      "inputs": [],
      "name": "InvalidSignature",
      "type": "error"
    },
    {
      "inputs": [],
      "name": "InvalidSigner",
      "type": "error"
    },
    {
      "inputs": [],
      "name": "InvalidTime",
      "type": "error"
    },
    {
      "inputs": [],
      "name": "MismatchedFulfillmentOfferAndConsiderationComponents",
      "type": "error"
    },
    {
      "inputs": [
        {
          "internalType": "enum Side",
          "name": "side",
          "type": "uint8"
        }
      ],
      "name": "MissingFulfillmentComponentOnAggregation",
      "type": "error"
    },
    {
      "inputs": [],
      "name": "MissingItemAmount",
      "type": "error"
    },
    {
      "inputs": [],
      "name": "MissingOriginalConsiderationItems",
      "type": "error"
    },
    {
      "inputs": [
        {
          "internalType": "address",
          "name": "account",
          "type": "address"
        }
      ],
      "name": "NoContract",
      "type": "error"
    },
    {
      "inputs": [],
      "name": "NoReentrantCalls",
      "type": "error"
    },
    {
      "inputs": [],
      "name": "NoSpecifiedOrdersAvailable",
      "type": "error"
    },
    {
      "inputs": [],
      "name": "OfferAndConsiderationRequiredOnFulfillment",
      "type": "error"
    },
    {
      "inputs": [],
      "name": "OfferCriteriaResolverOutOfRange",
      "type": "error"
    },
    {
      "inputs": [
        {
          "internalType": "bytes32",
          "name": "orderHash",
          "type": "bytes32"
        }
      ],
      "name": "OrderAlreadyFilled",
      "type": "error"
    },
    {
      "inputs": [],
      "name": "OrderCriteriaResolverOutOfRange",
      "type": "error"
    },
    {
      "inputs": [
        {
          "internalType": "bytes32",
          "name": "orderHash",
          "type": "bytes32"
        }
      ],
      "name": "OrderIsCancelled",
      "type": "error"
    },
    {
      "inputs": [
        {
          "internalType": "bytes32",
          "name": "orderHash",
          "type": "bytes32"
        }
      ],
      "name": "OrderPartiallyFilled",
      "type": "error"
    },
    {
      "inputs": [],
      "name": "PartialFillsNotEnabledForOrder",
      "type": "error"
    },
    {
      "inputs": [
        {
          "internalType": "address",
          "name": "token",
          "type": "address"
        },
        {
          "internalType": "address",
          "name": "from",
          "type": "address"
        },
        {
          "internalType": "address",
          "name": "to",
          "type": "address"
        },
        {
          "internalType": "uint256",
          "name": "identifier",
          "type": "uint256"
        },
        {
          "internalType": "uint256",
          "name": "amount",
          "type": "uint256"
        }
      ],
      "name": "TokenTransferGenericFailure",
      "type": "error"
    },
    {
      "inputs": [],
      "name": "UnresolvedConsiderationCriteria",
      "type": "error"
    },
    {
      "inputs": [],
      "name": "UnresolvedOfferCriteria",
      "type": "error"
    },
    {
      "anonymous": false,
      "inputs": [
        {
          "indexed": false,
          "internalType": "uint256",
          "name": "newNonce",
          "type": "uint256"
        },
        {
          "indexed": true,
          "internalType": "address",
          "name": "offerer",
          "type": "address"
        }
      ],
      "name": "NonceIncremented",
      "type": "event"
    },
    {
      "anonymous": false,
      "inputs": [
        {
          "indexed": false,
          "internalType": "bytes32",
          "name": "orderHash",
          "type": "bytes32"
        },
        {
          "indexed": true,
          "internalType": "address",
          "name": "offerer",
          "type": "address"
        },
        {
          "indexed": true,
          "internalType": "address",
          "name": "zone",
          "type": "address"
        }
      ],
      "name": "OrderCancelled",
      "type": "event"
    },
    {
      "anonymous": false,
      "inputs": [
        {
          "indexed": false,
          "internalType": "bytes32",
          "name": "orderHash",
          "type": "bytes32"
        },
        {
          "indexed": true,
          "internalType": "address",
          "name": "offerer",
          "type": "address"
        },
        {
          "indexed": true,
          "internalType": "address",
          "name": "zone",
          "type": "address"
        },
        {
          "indexed": false,
          "internalType": "address",
          "name": "fulfiller",
          "type": "address"
        },
        {
          "components": [
            {
              "internalType": "enum ItemType",
              "name": "itemType",
              "type": "uint8"
            },
            {
              "internalType": "address",
              "name": "token",
              "type": "address"
            },
            {
              "internalType": "uint256",
              "name": "identifier",
              "type": "uint256"
            },
            {
              "internalType": "uint256",
              "name": "amount",
              "type": "uint256"
            }
          ],
          "indexed": false,
          "internalType": "struct SpentItem[]",
          "name": "offer",
          "type": "tuple[]"
        },
        {
          "components": [
            {
              "internalType": "enum ItemType",
              "name": "itemType",
              "type": "uint8"
            },
            {
              "internalType": "address",
              "name": "token",
              "type": "address"
            },
            {
              "internalType": "uint256",
              "name": "identifier",
              "type": "uint256"
            },
            {
              "internalType": "uint256",
              "name": "amount",
              "type": "uint256"
            },
            {
              "internalType": "address payable",
              "name": "recipient",
              "type": "address"
            }
          ],
          "indexed": false,
          "internalType": "struct ReceivedItem[]",
          "name": "consideration",
          "type": "tuple[]"
        }
      ],
      "name": "OrderFulfilled",
      "type": "event"
    },
    {
      "anonymous": false,
      "inputs": [
        {
          "indexed": false,
          "internalType": "bytes32",
          "name": "orderHash",
          "type": "bytes32"
        },
        {
          "indexed": true,
          "internalType": "address",
          "name": "offerer",
          "type": "address"
        },
        {
          "indexed": true,
          "internalType": "address",
          "name": "zone",
          "type": "address"
        }
      ],
      "name": "OrderValidated",
      "type": "event"
    },
    {
      "inputs": [],
      "name": "DOMAIN_SEPARATOR",
      "outputs": [
        {
          "internalType": "bytes32",
          "name": "",
          "type": "bytes32"
        }
      ],
      "stateMutability": "view",
      "type": "function"
    },
    {
      "inputs": [
        {
          "components": [
            {
              "internalType": "address",
              "name": "offerer",
              "type": "address"
            },
            {
              "internalType": "address",
              "name": "zone",
              "type": "address"
            },
            {
              "components": [
                {
                  "internalType": "enum ItemType",
                  "name": "itemType",
                  "type": "uint8"
                },
                {
                  "internalType": "address",
                  "name": "token",
                  "type": "address"
                },
                {
                  "internalType": "uint256",
                  "name": "identifierOrCriteria",
                  "type": "uint256"
                },
                {
                  "internalType": "uint256",
                  "name": "startAmount",
                  "type": "uint256"
                },
                {
                  "internalType": "uint256",
                  "name": "endAmount",
                  "type": "uint256"
                }
              ],
              "internalType": "struct OfferItem[]",
              "name": "offer",
              "type": "tuple[]"
            },
            {
              "components": [
                {
                  "internalType": "enum ItemType",
                  "name": "itemType",
                  "type": "uint8"
                },
                {
                  "internalType": "address",
                  "name": "token",
                  "type": "address"
                },
                {
                  "internalType": "uint256",
                  "name": "identifierOrCriteria",
                  "type": "uint256"
                },
                {
                  "internalType": "uint256",
                  "name": "startAmount",
                  "type": "uint256"
                },
                {
                  "internalType": "uint256",
                  "name": "endAmount",
                  "type": "uint256"
                },
                {
                  "internalType": "address payable",
                  "name": "recipient",
                  "type": "address"
                }
              ],
              "internalType": "struct ConsiderationItem[]",
              "name": "consideration",
              "type": "tuple[]"
            },
            {
              "internalType": "enum OrderType",
              "name": "orderType",
              "type": "uint8"
            },
            {
              "internalType": "uint256",
              "name": "startTime",
              "type": "uint256"
            },
            {
              "internalType": "uint256",
              "name": "endTime",
              "type": "uint256"
            },
            {
              "internalType": "bytes32",
              "name": "zoneHash",
              "type": "bytes32"
            },
            {
              "internalType": "uint256",
              "name": "salt",
              "type": "uint256"
            },
            {
              "internalType": "address",
              "name": "conduit",
              "type": "address"
            },
            {
              "internalType": "uint256",
              "name": "nonce",
              "type": "uint256"
            }
          ],
          "internalType": "struct OrderComponents[]",
          "name": "orders",
          "type": "tuple[]"
        }
      ],
      "name": "cancel",
      "outputs": [
        {
          "internalType": "bool",
          "name": "",
          "type": "bool"
        }
      ],
      "stateMutability": "nonpayable",
      "type": "function"
    },
    {
      "inputs": [
        {
          "components": [
            {
              "components": [
                {
                  "internalType": "address",
                  "name": "offerer",
                  "type": "address"
                },
                {
                  "internalType": "address",
                  "name": "zone",
                  "type": "address"
                },
                {
                  "components": [
                    {
                      "internalType": "enum ItemType",
                      "name": "itemType",
                      "type": "uint8"
                    },
                    {
                      "internalType": "address",
                      "name": "token",
                      "type": "address"
                    },
                    {
                      "internalType": "uint256",
                      "name": "identifierOrCriteria",
                      "type": "uint256"
                    },
                    {
                      "internalType": "uint256",
                      "name": "startAmount",
                      "type": "uint256"
                    },
                    {
                      "internalType": "uint256",
                      "name": "endAmount",
                      "type": "uint256"
                    }
                  ],
                  "internalType": "struct OfferItem[]",
                  "name": "offer",
                  "type": "tuple[]"
                },
                {
                  "components": [
                    {
                      "internalType": "enum ItemType",
                      "name": "itemType",
                      "type": "uint8"
                    },
                    {
                      "internalType": "address",
                      "name": "token",
                      "type": "address"
                    },
                    {
                      "internalType": "uint256",
                      "name": "identifierOrCriteria",
                      "type": "uint256"
                    },
                    {
                      "internalType": "uint256",
                      "name": "startAmount",
                      "type": "uint256"
                    },
                    {
                      "internalType": "uint256",
                      "name": "endAmount",
                      "type": "uint256"
                    },
                    {
                      "internalType": "address payable",
                      "name": "recipient",
                      "type": "address"
                    }
                  ],
                  "internalType": "struct ConsiderationItem[]",
                  "name": "consideration",
                  "type": "tuple[]"
                },
                {
                  "internalType": "enum OrderType",
                  "name": "orderType",
                  "type": "uint8"
                },
                {
                  "internalType": "uint256",
                  "name": "startTime",
                  "type": "uint256"
                },
                {
                  "internalType": "uint256",
                  "name": "endTime",
                  "type": "uint256"
                },
                {
                  "internalType": "bytes32",
                  "name": "zoneHash",
                  "type": "bytes32"
                },
                {
                  "internalType": "uint256",
                  "name": "salt",
                  "type": "uint256"
                },
                {
                  "internalType": "address",
                  "name": "conduit",
                  "type": "address"
                },
                {
                  "internalType": "uint256",
                  "name": "totalOriginalConsiderationItems",
                  "type": "uint256"
                }
              ],
              "internalType": "struct OrderParameters",
              "name": "parameters",
              "type": "tuple"
            },
            {
              "internalType": "uint120",
              "name": "numerator",
              "type": "uint120"
            },
            {
              "internalType": "uint120",
              "name": "denominator",
              "type": "uint120"
            },
            {
              "internalType": "bytes",
              "name": "signature",
              "type": "bytes"
            },
            {
              "internalType": "bytes",
              "name": "extraData",
              "type": "bytes"
            }
          ],
          "internalType": "struct AdvancedOrder",
          "name": "advancedOrder",
          "type": "tuple"
        },
        {
          "components": [
            {
              "internalType": "uint256",
              "name": "orderIndex",
              "type": "uint256"
            },
            {
              "internalType": "enum Side",
              "name": "side",
              "type": "uint8"
            },
            {
              "internalType": "uint256",
              "name": "index",
              "type": "uint256"
            },
            {
              "internalType": "uint256",
              "name": "identifier",
              "type": "uint256"
            },
            {
              "internalType": "bytes32[]",
              "name": "criteriaProof",
              "type": "bytes32[]"
            }
          ],
          "internalType": "struct CriteriaResolver[]",
          "name": "criteriaResolvers",
          "type": "tuple[]"
        },
        {
          "internalType": "address",
          "name": "fulfillerConduit",
          "type": "address"
        }
      ],
      "name": "fulfillAdvancedOrder",
      "outputs": [
        {
          "internalType": "bool",
          "name": "",
          "type": "bool"
        }
      ],
      "stateMutability": "payable",
      "type": "function"
    },
    {
      "inputs": [
        {
          "components": [
            {
              "components": [
                {
                  "internalType": "address",
                  "name": "offerer",
                  "type": "address"
                },
                {
                  "internalType": "address",
                  "name": "zone",
                  "type": "address"
                },
                {
                  "components": [
                    {
                      "internalType": "enum ItemType",
                      "name": "itemType",
                      "type": "uint8"
                    },
                    {
                      "internalType": "address",
                      "name": "token",
                      "type": "address"
                    },
                    {
                      "internalType": "uint256",
                      "name": "identifierOrCriteria",
                      "type": "uint256"
                    },
                    {
                      "internalType": "uint256",
                      "name": "startAmount",
                      "type": "uint256"
                    },
                    {
                      "internalType": "uint256",
                      "name": "endAmount",
                      "type": "uint256"
                    }
                  ],
                  "internalType": "struct OfferItem[]",
                  "name": "offer",
                  "type": "tuple[]"
                },
                {
                  "components": [
                    {
                      "internalType": "enum ItemType",
                      "name": "itemType",
                      "type": "uint8"
                    },
                    {
                      "internalType": "address",
                      "name": "token",
                      "type": "address"
                    },
                    {
                      "internalType": "uint256",
                      "name": "identifierOrCriteria",
                      "type": "uint256"
                    },
                    {
                      "internalType": "uint256",
                      "name": "startAmount",
                      "type": "uint256"
                    },
                    {
                      "internalType": "uint256",
                      "name": "endAmount",
                      "type": "uint256"
                    },
                    {
                      "internalType": "address payable",
                      "name": "recipient",
                      "type": "address"
                    }
                  ],
                  "internalType": "struct ConsiderationItem[]",
                  "name": "consideration",
                  "type": "tuple[]"
                },
                {
                  "internalType": "enum OrderType",
                  "name": "orderType",
                  "type": "uint8"
                },
                {
                  "internalType": "uint256",
                  "name": "startTime",
                  "type": "uint256"
                },
                {
                  "internalType": "uint256",
                  "name": "endTime",
                  "type": "uint256"
                },
                {
                  "internalType": "bytes32",
                  "name": "zoneHash",
                  "type": "bytes32"
                },
                {
                  "internalType": "uint256",
                  "name": "salt",
                  "type": "uint256"
                },
                {
                  "internalType": "address",
                  "name": "conduit",
                  "type": "address"
                },
                {
                  "internalType": "uint256",
                  "name": "totalOriginalConsiderationItems",
                  "type": "uint256"
                }
              ],
              "internalType": "struct OrderParameters",
              "name": "parameters",
              "type": "tuple"
            },
            {
              "internalType": "uint120",
              "name": "numerator",
              "type": "uint120"
            },
            {
              "internalType": "uint120",
              "name": "denominator",
              "type": "uint120"
            },
            {
              "internalType": "bytes",
              "name": "signature",
              "type": "bytes"
            },
            {
              "internalType": "bytes",
              "name": "extraData",
              "type": "bytes"
            }
          ],
          "internalType": "struct AdvancedOrder[]",
          "name": "advancedOrders",
          "type": "tuple[]"
        },
        {
          "components": [
            {
              "internalType": "uint256",
              "name": "orderIndex",
              "type": "uint256"
            },
            {
              "internalType": "enum Side",
              "name": "side",
              "type": "uint8"
            },
            {
              "internalType": "uint256",
              "name": "index",
              "type": "uint256"
            },
            {
              "internalType": "uint256",
              "name": "identifier",
              "type": "uint256"
            },
            {
              "internalType": "bytes32[]",
              "name": "criteriaProof",
              "type": "bytes32[]"
            }
          ],
          "internalType": "struct CriteriaResolver[]",
          "name": "criteriaResolvers",
          "type": "tuple[]"
        },
        {
          "components": [
            {
              "internalType": "uint256",
              "name": "orderIndex",
              "type": "uint256"
            },
            {
              "internalType": "uint256",
              "name": "itemIndex",
              "type": "uint256"
            }
          ],
          "internalType": "struct FulfillmentComponent[][]",
          "name": "offerFulfillments",
          "type": "tuple[][]"
        },
        {
          "components": [
            {
              "internalType": "uint256",
              "name": "orderIndex",
              "type": "uint256"
            },
            {
              "internalType": "uint256",
              "name": "itemIndex",
              "type": "uint256"
            }
          ],
          "internalType": "struct FulfillmentComponent[][]",
          "name": "considerationFulfillments",
          "type": "tuple[][]"
        },
        {
          "internalType": "address",
          "name": "fulfillerConduit",
          "type": "address"
        }
      ],
      "name": "fulfillAvailableAdvancedOrders",
      "outputs": [
        {
          "internalType": "bool[]",
          "name": "availableOrders",
          "type": "bool[]"
        },
        {
          "components": [
            {
              "components": [
                {
                  "internalType": "enum ItemType",
                  "name": "itemType",
                  "type": "uint8"
                },
                {
                  "internalType": "address",
                  "name": "token",
                  "type": "address"
                },
                {
                  "internalType": "uint256",
                  "name": "identifier",
                  "type": "uint256"
                },
                {
                  "internalType": "uint256",
                  "name": "amount",
                  "type": "uint256"
                },
                {
                  "internalType": "address payable",
                  "name": "recipient",
                  "type": "address"
                }
              ],
              "internalType": "struct ReceivedItem",
              "name": "item",
              "type": "tuple"
            },
            {
              "internalType": "address",
              "name": "offerer",
              "type": "address"
            },
            {
              "internalType": "address",
              "name": "conduit",
              "type": "address"
            }
          ],
          "internalType": "struct Execution[]",
          "name": "standardExecutions",
          "type": "tuple[]"
        },
        {
          "components": [
            {
              "internalType": "address",
              "name": "token",
              "type": "address"
            },
            {
              "internalType": "address",
              "name": "from",
              "type": "address"
            },
            {
              "internalType": "address",
              "name": "to",
              "type": "address"
            },
            {
              "internalType": "uint256[]",
              "name": "tokenIds",
              "type": "uint256[]"
            },
            {
              "internalType": "uint256[]",
              "name": "amounts",
              "type": "uint256[]"
            },
            {
              "internalType": "address",
              "name": "conduit",
              "type": "address"
            }
          ],
          "internalType": "struct BatchExecution[]",
          "name": "batchExecutions",
          "type": "tuple[]"
        }
      ],
      "stateMutability": "payable",
      "type": "function"
    },
    {
      "inputs": [
        {
          "components": [
            {
              "internalType": "address",
              "name": "considerationToken",
              "type": "address"
            },
            {
              "internalType": "uint256",
              "name": "considerationIdentifier",
              "type": "uint256"
            },
            {
              "internalType": "uint256",
              "name": "considerationAmount",
              "type": "uint256"
            },
            {
              "internalType": "address payable",
              "name": "offerer",
              "type": "address"
            },
            {
              "internalType": "address",
              "name": "zone",
              "type": "address"
            },
            {
              "internalType": "address",
              "name": "offerToken",
              "type": "address"
            },
            {
              "internalType": "uint256",
              "name": "offerIdentifier",
              "type": "uint256"
            },
            {
              "internalType": "uint256",
              "name": "offerAmount",
              "type": "uint256"
            },
            {
              "internalType": "enum BasicOrderType",
              "name": "basicOrderType",
              "type": "uint8"
            },
            {
              "internalType": "uint256",
              "name": "startTime",
              "type": "uint256"
            },
            {
              "internalType": "uint256",
              "name": "endTime",
              "type": "uint256"
            },
            {
              "internalType": "bytes32",
              "name": "zoneHash",
              "type": "bytes32"
            },
            {
              "internalType": "uint256",
              "name": "salt",
              "type": "uint256"
            },
            {
              "internalType": "address",
              "name": "offererConduit",
              "type": "address"
            },
            {
              "internalType": "address",
              "name": "fulfillerConduit",
              "type": "address"
            },
            {
              "internalType": "uint256",
              "name": "totalOriginalAdditionalRecipients",
              "type": "uint256"
            },
            {
              "components": [
                {
                  "internalType": "uint256",
                  "name": "amount",
                  "type": "uint256"
                },
                {
                  "internalType": "address payable",
                  "name": "recipient",
                  "type": "address"
                }
              ],
              "internalType": "struct AdditionalRecipient[]",
              "name": "additionalRecipients",
              "type": "tuple[]"
            },
            {
              "internalType": "bytes",
              "name": "signature",
              "type": "bytes"
            }
          ],
          "internalType": "struct BasicOrderParameters",
          "name": "parameters",
          "type": "tuple"
        }
      ],
      "name": "fulfillBasicOrder",
      "outputs": [
        {
          "internalType": "bool",
          "name": "",
          "type": "bool"
        }
      ],
      "stateMutability": "payable",
      "type": "function"
    },
    {
      "inputs": [
        {
          "components": [
            {
              "components": [
                {
                  "internalType": "address",
                  "name": "offerer",
                  "type": "address"
                },
                {
                  "internalType": "address",
                  "name": "zone",
                  "type": "address"
                },
                {
                  "components": [
                    {
                      "internalType": "enum ItemType",
                      "name": "itemType",
                      "type": "uint8"
                    },
                    {
                      "internalType": "address",
                      "name": "token",
                      "type": "address"
                    },
                    {
                      "internalType": "uint256",
                      "name": "identifierOrCriteria",
                      "type": "uint256"
                    },
                    {
                      "internalType": "uint256",
                      "name": "startAmount",
                      "type": "uint256"
                    },
                    {
                      "internalType": "uint256",
                      "name": "endAmount",
                      "type": "uint256"
                    }
                  ],
                  "internalType": "struct OfferItem[]",
                  "name": "offer",
                  "type": "tuple[]"
                },
                {
                  "components": [
                    {
                      "internalType": "enum ItemType",
                      "name": "itemType",
                      "type": "uint8"
                    },
                    {
                      "internalType": "address",
                      "name": "token",
                      "type": "address"
                    },
                    {
                      "internalType": "uint256",
                      "name": "identifierOrCriteria",
                      "type": "uint256"
                    },
                    {
                      "internalType": "uint256",
                      "name": "startAmount",
                      "type": "uint256"
                    },
                    {
                      "internalType": "uint256",
                      "name": "endAmount",
                      "type": "uint256"
                    },
                    {
                      "internalType": "address payable",
                      "name": "recipient",
                      "type": "address"
                    }
                  ],
                  "internalType": "struct ConsiderationItem[]",
                  "name": "consideration",
                  "type": "tuple[]"
                },
                {
                  "internalType": "enum OrderType",
                  "name": "orderType",
                  "type": "uint8"
                },
                {
                  "internalType": "uint256",
                  "name": "startTime",
                  "type": "uint256"
                },
                {
                  "internalType": "uint256",
                  "name": "endTime",
                  "type": "uint256"
                },
                {
                  "internalType": "bytes32",
                  "name": "zoneHash",
                  "type": "bytes32"
                },
                {
                  "internalType": "uint256",
                  "name": "salt",
                  "type": "uint256"
                },
                {
                  "internalType": "address",
                  "name": "conduit",
                  "type": "address"
                },
                {
                  "internalType": "uint256",
                  "name": "totalOriginalConsiderationItems",
                  "type": "uint256"
                }
              ],
              "internalType": "struct OrderParameters",
              "name": "parameters",
              "type": "tuple"
            },
            {
              "internalType": "bytes",
              "name": "signature",
              "type": "bytes"
            }
          ],
          "internalType": "struct Order",
          "name": "order",
          "type": "tuple"
        },
        {
          "internalType": "address",
          "name": "fulfillerConduit",
          "type": "address"
        }
      ],
      "name": "fulfillOrder",
      "outputs": [
        {
          "internalType": "bool",
          "name": "",
          "type": "bool"
        }
      ],
      "stateMutability": "payable",
      "type": "function"
    },
    {
      "inputs": [
        {
          "internalType": "address",
          "name": "offerer",
          "type": "address"
        }
      ],
      "name": "getNonce",
      "outputs": [
        {
          "internalType": "uint256",
          "name": "",
          "type": "uint256"
        }
      ],
      "stateMutability": "view",
      "type": "function"
    },
    {
      "inputs": [
        {
          "components": [
            {
              "internalType": "address",
              "name": "offerer",
              "type": "address"
            },
            {
              "internalType": "address",
              "name": "zone",
              "type": "address"
            },
            {
              "components": [
                {
                  "internalType": "enum ItemType",
                  "name": "itemType",
                  "type": "uint8"
                },
                {
                  "internalType": "address",
                  "name": "token",
                  "type": "address"
                },
                {
                  "internalType": "uint256",
                  "name": "identifierOrCriteria",
                  "type": "uint256"
                },
                {
                  "internalType": "uint256",
                  "name": "startAmount",
                  "type": "uint256"
                },
                {
                  "internalType": "uint256",
                  "name": "endAmount",
                  "type": "uint256"
                }
              ],
              "internalType": "struct OfferItem[]",
              "name": "offer",
              "type": "tuple[]"
            },
            {
              "components": [
                {
                  "internalType": "enum ItemType",
                  "name": "itemType",
                  "type": "uint8"
                },
                {
                  "internalType": "address",
                  "name": "token",
                  "type": "address"
                },
                {
                  "internalType": "uint256",
                  "name": "identifierOrCriteria",
                  "type": "uint256"
                },
                {
                  "internalType": "uint256",
                  "name": "startAmount",
                  "type": "uint256"
                },
                {
                  "internalType": "uint256",
                  "name": "endAmount",
                  "type": "uint256"
                },
                {
                  "internalType": "address payable",
                  "name": "recipient",
                  "type": "address"
                }
              ],
              "internalType": "struct ConsiderationItem[]",
              "name": "consideration",
              "type": "tuple[]"
            },
            {
              "internalType": "enum OrderType",
              "name": "orderType",
              "type": "uint8"
            },
            {
              "internalType": "uint256",
              "name": "startTime",
              "type": "uint256"
            },
            {
              "internalType": "uint256",
              "name": "endTime",
              "type": "uint256"
            },
            {
              "internalType": "bytes32",
              "name": "zoneHash",
              "type": "bytes32"
            },
            {
              "internalType": "uint256",
              "name": "salt",
              "type": "uint256"
            },
            {
              "internalType": "address",
              "name": "conduit",
              "type": "address"
            },
            {
              "internalType": "uint256",
              "name": "nonce",
              "type": "uint256"
            }
          ],
          "internalType": "struct OrderComponents",
          "name": "order",
          "type": "tuple"
        }
      ],
      "name": "getOrderHash",
      "outputs": [
        {
          "internalType": "bytes32",
          "name": "",
          "type": "bytes32"
        }
      ],
      "stateMutability": "view",
      "type": "function"
    },
    {
      "inputs": [
        {
          "internalType": "bytes32",
          "name": "orderHash",
          "type": "bytes32"
        }
      ],
      "name": "getOrderStatus",
      "outputs": [
        {
          "internalType": "bool",
          "name": "isValidated",
          "type": "bool"
        },
        {
          "internalType": "bool",
          "name": "isCancelled",
          "type": "bool"
        },
        {
          "internalType": "uint256",
          "name": "totalFilled",
          "type": "uint256"
        },
        {
          "internalType": "uint256",
          "name": "totalSize",
          "type": "uint256"
        }
      ],
      "stateMutability": "view",
      "type": "function"
    },
    {
      "inputs": [],
      "name": "incrementNonce",
      "outputs": [
        {
          "internalType": "uint256",
          "name": "newNonce",
          "type": "uint256"
        }
      ],
      "stateMutability": "nonpayable",
      "type": "function"
    },
    {
      "inputs": [
        {
          "components": [
            {
              "components": [
                {
                  "internalType": "address",
                  "name": "offerer",
                  "type": "address"
                },
                {
                  "internalType": "address",
                  "name": "zone",
                  "type": "address"
                },
                {
                  "components": [
                    {
                      "internalType": "enum ItemType",
                      "name": "itemType",
                      "type": "uint8"
                    },
                    {
                      "internalType": "address",
                      "name": "token",
                      "type": "address"
                    },
                    {
                      "internalType": "uint256",
                      "name": "identifierOrCriteria",
                      "type": "uint256"
                    },
                    {
                      "internalType": "uint256",
                      "name": "startAmount",
                      "type": "uint256"
                    },
                    {
                      "internalType": "uint256",
                      "name": "endAmount",
                      "type": "uint256"
                    }
                  ],
                  "internalType": "struct OfferItem[]",
                  "name": "offer",
                  "type": "tuple[]"
                },
                {
                  "components": [
                    {
                      "internalType": "enum ItemType",
                      "name": "itemType",
                      "type": "uint8"
                    },
                    {
                      "internalType": "address",
                      "name": "token",
                      "type": "address"
                    },
                    {
                      "internalType": "uint256",
                      "name": "identifierOrCriteria",
                      "type": "uint256"
                    },
                    {
                      "internalType": "uint256",
                      "name": "startAmount",
                      "type": "uint256"
                    },
                    {
                      "internalType": "uint256",
                      "name": "endAmount",
                      "type": "uint256"
                    },
                    {
                      "internalType": "address payable",
                      "name": "recipient",
                      "type": "address"
                    }
                  ],
                  "internalType": "struct ConsiderationItem[]",
                  "name": "consideration",
                  "type": "tuple[]"
                },
                {
                  "internalType": "enum OrderType",
                  "name": "orderType",
                  "type": "uint8"
                },
                {
                  "internalType": "uint256",
                  "name": "startTime",
                  "type": "uint256"
                },
                {
                  "internalType": "uint256",
                  "name": "endTime",
                  "type": "uint256"
                },
                {
                  "internalType": "bytes32",
                  "name": "zoneHash",
                  "type": "bytes32"
                },
                {
                  "internalType": "uint256",
                  "name": "salt",
                  "type": "uint256"
                },
                {
                  "internalType": "address",
                  "name": "conduit",
                  "type": "address"
                },
                {
                  "internalType": "uint256",
                  "name": "totalOriginalConsiderationItems",
                  "type": "uint256"
                }
              ],
              "internalType": "struct OrderParameters",
              "name": "parameters",
              "type": "tuple"
            },
            {
              "internalType": "uint120",
              "name": "numerator",
              "type": "uint120"
            },
            {
              "internalType": "uint120",
              "name": "denominator",
              "type": "uint120"
            },
            {
              "internalType": "bytes",
              "name": "signature",
              "type": "bytes"
            },
            {
              "internalType": "bytes",
              "name": "extraData",
              "type": "bytes"
            }
          ],
          "internalType": "struct AdvancedOrder[]",
          "name": "advancedOrders",
          "type": "tuple[]"
        },
        {
          "components": [
            {
              "internalType": "uint256",
              "name": "orderIndex",
              "type": "uint256"
            },
            {
              "internalType": "enum Side",
              "name": "side",
              "type": "uint8"
            },
            {
              "internalType": "uint256",
              "name": "index",
              "type": "uint256"
            },
            {
              "internalType": "uint256",
              "name": "identifier",
              "type": "uint256"
            },
            {
              "internalType": "bytes32[]",
              "name": "criteriaProof",
              "type": "bytes32[]"
            }
          ],
          "internalType": "struct CriteriaResolver[]",
          "name": "criteriaResolvers",
          "type": "tuple[]"
        },
        {
          "components": [
            {
              "components": [
                {
                  "internalType": "uint256",
                  "name": "orderIndex",
                  "type": "uint256"
                },
                {
                  "internalType": "uint256",
                  "name": "itemIndex",
                  "type": "uint256"
                }
              ],
              "internalType": "struct FulfillmentComponent[]",
              "name": "offerComponents",
              "type": "tuple[]"
            },
            {
              "components": [
                {
                  "internalType": "uint256",
                  "name": "orderIndex",
                  "type": "uint256"
                },
                {
                  "internalType": "uint256",
                  "name": "itemIndex",
                  "type": "uint256"
                }
              ],
              "internalType": "struct FulfillmentComponent[]",
              "name": "considerationComponents",
              "type": "tuple[]"
            }
          ],
          "internalType": "struct Fulfillment[]",
          "name": "fulfillments",
          "type": "tuple[]"
        }
      ],
      "name": "matchAdvancedOrders",
      "outputs": [
        {
          "components": [
            {
              "components": [
                {
                  "internalType": "enum ItemType",
                  "name": "itemType",
                  "type": "uint8"
                },
                {
                  "internalType": "address",
                  "name": "token",
                  "type": "address"
                },
                {
                  "internalType": "uint256",
                  "name": "identifier",
                  "type": "uint256"
                },
                {
                  "internalType": "uint256",
                  "name": "amount",
                  "type": "uint256"
                },
                {
                  "internalType": "address payable",
                  "name": "recipient",
                  "type": "address"
                }
              ],
              "internalType": "struct ReceivedItem",
              "name": "item",
              "type": "tuple"
            },
            {
              "internalType": "address",
              "name": "offerer",
              "type": "address"
            },
            {
              "internalType": "address",
              "name": "conduit",
              "type": "address"
            }
          ],
          "internalType": "struct Execution[]",
          "name": "standardExecutions",
          "type": "tuple[]"
        },
        {
          "components": [
            {
              "internalType": "address",
              "name": "token",
              "type": "address"
            },
            {
              "internalType": "address",
              "name": "from",
              "type": "address"
            },
            {
              "internalType": "address",
              "name": "to",
              "type": "address"
            },
            {
              "internalType": "uint256[]",
              "name": "tokenIds",
              "type": "uint256[]"
            },
            {
              "internalType": "uint256[]",
              "name": "amounts",
              "type": "uint256[]"
            },
            {
              "internalType": "address",
              "name": "conduit",
              "type": "address"
            }
          ],
          "internalType": "struct BatchExecution[]",
          "name": "batchExecutions",
          "type": "tuple[]"
        }
      ],
      "stateMutability": "payable",
      "type": "function"
    },
    {
      "inputs": [
        {
          "components": [
            {
              "components": [
                {
                  "internalType": "address",
                  "name": "offerer",
                  "type": "address"
                },
                {
                  "internalType": "address",
                  "name": "zone",
                  "type": "address"
                },
                {
                  "components": [
                    {
                      "internalType": "enum ItemType",
                      "name": "itemType",
                      "type": "uint8"
                    },
                    {
                      "internalType": "address",
                      "name": "token",
                      "type": "address"
                    },
                    {
                      "internalType": "uint256",
                      "name": "identifierOrCriteria",
                      "type": "uint256"
                    },
                    {
                      "internalType": "uint256",
                      "name": "startAmount",
                      "type": "uint256"
                    },
                    {
                      "internalType": "uint256",
                      "name": "endAmount",
                      "type": "uint256"
                    }
                  ],
                  "internalType": "struct OfferItem[]",
                  "name": "offer",
                  "type": "tuple[]"
                },
                {
                  "components": [
                    {
                      "internalType": "enum ItemType",
                      "name": "itemType",
                      "type": "uint8"
                    },
                    {
                      "internalType": "address",
                      "name": "token",
                      "type": "address"
                    },
                    {
                      "internalType": "uint256",
                      "name": "identifierOrCriteria",
                      "type": "uint256"
                    },
                    {
                      "internalType": "uint256",
                      "name": "startAmount",
                      "type": "uint256"
                    },
                    {
                      "internalType": "uint256",
                      "name": "endAmount",
                      "type": "uint256"
                    },
                    {
                      "internalType": "address payable",
                      "name": "recipient",
                      "type": "address"
                    }
                  ],
                  "internalType": "struct ConsiderationItem[]",
                  "name": "consideration",
                  "type": "tuple[]"
                },
                {
                  "internalType": "enum OrderType",
                  "name": "orderType",
                  "type": "uint8"
                },
                {
                  "internalType": "uint256",
                  "name": "startTime",
                  "type": "uint256"
                },
                {
                  "internalType": "uint256",
                  "name": "endTime",
                  "type": "uint256"
                },
                {
                  "internalType": "bytes32",
                  "name": "zoneHash",
                  "type": "bytes32"
                },
                {
                  "internalType": "uint256",
                  "name": "salt",
                  "type": "uint256"
                },
                {
                  "internalType": "address",
                  "name": "conduit",
                  "type": "address"
                },
                {
                  "internalType": "uint256",
                  "name": "totalOriginalConsiderationItems",
                  "type": "uint256"
                }
              ],
              "internalType": "struct OrderParameters",
              "name": "parameters",
              "type": "tuple"
            },
            {
              "internalType": "bytes",
              "name": "signature",
              "type": "bytes"
            }
          ],
          "internalType": "struct Order[]",
          "name": "orders",
          "type": "tuple[]"
        },
        {
          "components": [
            {
              "components": [
                {
                  "internalType": "uint256",
                  "name": "orderIndex",
                  "type": "uint256"
                },
                {
                  "internalType": "uint256",
                  "name": "itemIndex",
                  "type": "uint256"
                }
              ],
              "internalType": "struct FulfillmentComponent[]",
              "name": "offerComponents",
              "type": "tuple[]"
            },
            {
              "components": [
                {
                  "internalType": "uint256",
                  "name": "orderIndex",
                  "type": "uint256"
                },
                {
                  "internalType": "uint256",
                  "name": "itemIndex",
                  "type": "uint256"
                }
              ],
              "internalType": "struct FulfillmentComponent[]",
              "name": "considerationComponents",
              "type": "tuple[]"
            }
          ],
          "internalType": "struct Fulfillment[]",
          "name": "fulfillments",
          "type": "tuple[]"
        }
      ],
      "name": "matchOrders",
      "outputs": [
        {
          "components": [
            {
              "components": [
                {
                  "internalType": "enum ItemType",
                  "name": "itemType",
                  "type": "uint8"
                },
                {
                  "internalType": "address",
                  "name": "token",
                  "type": "address"
                },
                {
                  "internalType": "uint256",
                  "name": "identifier",
                  "type": "uint256"
                },
                {
                  "internalType": "uint256",
                  "name": "amount",
                  "type": "uint256"
                },
                {
                  "internalType": "address payable",
                  "name": "recipient",
                  "type": "address"
                }
              ],
              "internalType": "struct ReceivedItem",
              "name": "item",
              "type": "tuple"
            },
            {
              "internalType": "address",
              "name": "offerer",
              "type": "address"
            },
            {
              "internalType": "address",
              "name": "conduit",
              "type": "address"
            }
          ],
          "internalType": "struct Execution[]",
          "name": "standardExecutions",
          "type": "tuple[]"
        },
        {
          "components": [
            {
              "internalType": "address",
              "name": "token",
              "type": "address"
            },
            {
              "internalType": "address",
              "name": "from",
              "type": "address"
            },
            {
              "internalType": "address",
              "name": "to",
              "type": "address"
            },
            {
              "internalType": "uint256[]",
              "name": "tokenIds",
              "type": "uint256[]"
            },
            {
              "internalType": "uint256[]",
              "name": "amounts",
              "type": "uint256[]"
            },
            {
              "internalType": "address",
              "name": "conduit",
              "type": "address"
            }
          ],
          "internalType": "struct BatchExecution[]",
          "name": "batchExecutions",
          "type": "tuple[]"
        }
      ],
      "stateMutability": "payable",
      "type": "function"
    },
    {
      "inputs": [],
      "name": "name",
      "outputs": [
        {
          "internalType": "string",
          "name": "",
          "type": "string"
        }
      ],
      "stateMutability": "pure",
      "type": "function"
    },
    {
      "inputs": [
        {
          "components": [
            {
              "components": [
                {
                  "internalType": "address",
                  "name": "offerer",
                  "type": "address"
                },
                {
                  "internalType": "address",
                  "name": "zone",
                  "type": "address"
                },
                {
                  "components": [
                    {
                      "internalType": "enum ItemType",
                      "name": "itemType",
                      "type": "uint8"
                    },
                    {
                      "internalType": "address",
                      "name": "token",
                      "type": "address"
                    },
                    {
                      "internalType": "uint256",
                      "name": "identifierOrCriteria",
                      "type": "uint256"
                    },
                    {
                      "internalType": "uint256",
                      "name": "startAmount",
                      "type": "uint256"
                    },
                    {
                      "internalType": "uint256",
                      "name": "endAmount",
                      "type": "uint256"
                    }
                  ],
                  "internalType": "struct OfferItem[]",
                  "name": "offer",
                  "type": "tuple[]"
                },
                {
                  "components": [
                    {
                      "internalType": "enum ItemType",
                      "name": "itemType",
                      "type": "uint8"
                    },
                    {
                      "internalType": "address",
                      "name": "token",
                      "type": "address"
                    },
                    {
                      "internalType": "uint256",
                      "name": "identifierOrCriteria",
                      "type": "uint256"
                    },
                    {
                      "internalType": "uint256",
                      "name": "startAmount",
                      "type": "uint256"
                    },
                    {
                      "internalType": "uint256",
                      "name": "endAmount",
                      "type": "uint256"
                    },
                    {
                      "internalType": "address payable",
                      "name": "recipient",
                      "type": "address"
                    }
                  ],
                  "internalType": "struct ConsiderationItem[]",
                  "name": "consideration",
                  "type": "tuple[]"
                },
                {
                  "internalType": "enum OrderType",
                  "name": "orderType",
                  "type": "uint8"
                },
                {
                  "internalType": "uint256",
                  "name": "startTime",
                  "type": "uint256"
                },
                {
                  "internalType": "uint256",
                  "name": "endTime",
                  "type": "uint256"
                },
                {
                  "internalType": "bytes32",
                  "name": "zoneHash",
                  "type": "bytes32"
                },
                {
                  "internalType": "uint256",
                  "name": "salt",
                  "type": "uint256"
                },
                {
                  "internalType": "address",
                  "name": "conduit",
                  "type": "address"
                },
                {
                  "internalType": "uint256",
                  "name": "totalOriginalConsiderationItems",
                  "type": "uint256"
                }
              ],
              "internalType": "struct OrderParameters",
              "name": "parameters",
              "type": "tuple"
            },
            {
              "internalType": "bytes",
              "name": "signature",
              "type": "bytes"
            }
          ],
          "internalType": "struct Order[]",
          "name": "orders",
          "type": "tuple[]"
        }
      ],
      "name": "validate",
      "outputs": [
        {
          "internalType": "bool",
          "name": "",
          "type": "bool"
        }
      ],
      "stateMutability": "nonpayable",
      "type": "function"
    },
    {
      "inputs": [],
      "name": "version",
      "outputs": [
        {
          "internalType": "string",
          "name": "",
          "type": "string"
        }
      ],
      "stateMutability": "pure",
      "type": "function"
    }
  ],
  "transactionHash": "0xee85867c15cfb089f4eba4ba6826caf303dd5eeaaca27f87501b2e9deb052845",
  "args": [
    "0xf25186B5081Ff5cE73482AD761DB0eB0d25abfBF",
    "0x8f0483125FCb9aaAEFA9209D8E9d7b9C8B9Fb90F",
    "0x9FBDa871d559710256a2502A2517b794B482Db40"
  ],
  "numDeployments": 1,
  "solcInputHash": "ccc4e07d484517a8c380a55b06c0e1e8",
  "bytecode": "0x6101e060405234620000af5762000020620000196200011f565b9162000201565b604051615e0d9081620006e3823960805181614021015260a05181614047015260c05181613ffe015260e051818181611c900152614097015261010051818181611b5c01526140e6015261012051818181611d2b015261413401526101405181613fac01526101605181613fd20152610180518161379901526101a0518161316b01526101c051816137f90152f35b600080fd5b604081019081106001600160401b03821117620000d057604052565b634e487b7160e01b600052604160045260246000fd5b601f909101601f19168101906001600160401b03821190821017620000d057604052565b51906001600160a01b0382168203620000af57565b620064f090606082380392836040519485926200013d8285620000e6565b833981010312620000af5762000153826200010a565b9062000170604062000168602086016200010a565b94016200010a565b91929190565b604051906200018582620000b4565b600d82526c21b7b739b4b232b930ba34b7b760991b6020830152565b60405190620001b082620000b4565b600482526372632e3160e01b6020830152565b90815180926000905b828210620001e9575011620001df570190565b6000828201520190565b915080602080928401015181850152018391620001cc565b906200020c62000176565b805160208092012060805262000221620001a1565b80519082012060a0526040516909ecccccae492e8cada560b31b8183019081529181600a84016e1d5a5b9d0e081a5d195b551e5c194b608a1b8152600f016d1859191c995cdcc81d1bdad95b8b60921b8152600e017f75696e74323536206964656e7469666965724f7243726974657269612c0000008152601d017f75696e74323536207374617274416d6f756e742c0000000000000000000000008152601401701d5a5b9d0c8d4d88195b99105b5bdd5b9d607a1b8152601101602960f81b81526001010390601f19918281018452620002fd9084620000e6565b6040519281840184620003298260129071086dedce6d2c8cae4c2e8d2dedc92e8cada560731b81520190565b6e1d5a5b9d0e081a5d195b551e5c194b608a1b8152600f016d1859191c995cdcc81d1bdad95b8b60921b8152600e017f75696e74323536206964656e7469666965724f7243726974657269612c0000008152601d017f75696e74323536207374617274416d6f756e742c0000000000000000000000008152601401711d5a5b9d0c8d4d88195b99105b5bdd5b9d0b60721b8152601201701859191c995cdcc81c9958da5c1a595b9d607a1b8152601101602960f81b8152600101038481018652620003f59086620000e6565b60405195868481016200041f906010906f09ee4c8cae486dedae0dedccadce8e6560831b81520190565b6f1859191c995cdcc81bd999995c995c8b60821b81526010016c1859191c995cdcc81e9bdb994b609a1b8152600d017113d999995c925d195b56d7481bd999995c8b60721b81526012017f436f6e73696465726174696f6e4974656d5b5d20636f6e73696465726174696f8152611b8b60f21b60208201526022016f1d5a5b9d0e081bdc99195c951e5c194b60821b8152601001711d5a5b9d0c8d4d881cdd185c9d151a5b594b60721b81526012016f1d5a5b9d0c8d4d88195b99151a5b594b60821b815260100170189e5d195ccccc881e9bdb9952185cda0b607a1b81526011016c1d5a5b9d0c8d4d881cd85b1d0b609a1b8152600d016f1859191c995cdcc818dbdb991d5a5d0b60821b81526010016c75696e74323536206e6f6e636560981b8152600d01602960f81b8152600101038581018852620005629088620000e6565b6040516c08a92a06e626488dedac2d2dc5609b1b8582019081529080600d83016b1cdd1c9a5b99c81b985b594b60a21b8152600c016e1cdd1c9a5b99c81d995c9cda5bdb8b608a1b8152600f016f1d5a5b9d0c8d4d8818da185a5b92590b60821b81526010017f6164647265737320766572696679696e67436f6e7472616374000000000000008152601901602960f81b81526001010387810182526200060a9082620000e6565b51902060c0528251902060e0528451902061010052604051938492830195866200063491620001c3565b6200063f91620001c3565b6200064a91620001c3565b0390810182526200065c9082620000e6565b5190206101205246610140526200067262000695565b610160526001600160a01b0391821661018052166101a0526101c0526001600055565b60c05160805160a0516040519160208301938452604083015260608201524660808201523060a082015260a0815260c0810181811060018060401b03821117620000d0576040525190209056fe60806040526004361015610013575b600080fd5b60003560e01c806306fdde031461013f5780630dfa8f67146101365780632d0335ab1461012d5780633644e5151461012457806346423aa71461011b57806354fd4d5014610112578063627cdcb9146101095780637ceac2a314610100578063864eba38146100f757806395c37a41146100ee578063c65e79a0146100e5578063d92b6880146100dc578063e58dd01d146100d3578063ef3e0fd2146100ca5763f0f90af0146100c257600080fd5b61000e6114da565b5061000e611435565b5061000e61124f565b5061000e6111cc565b5061000e61112e565b5061000e611020565b5061000e610ed8565b5061000e610dd9565b5061000e6103ae565b5061000e610368565b5061000e6102d6565b5061000e6102b2565b5061000e610274565b5061000e61020a565b5061000e610199565b91908251928382526000905b848210610181575092806020939411610174575b601f01601f1916010190565b6000838284010152610168565b90602090818082850101519082860101520190610154565b503461000e57600036600319011261000e576101e86040516101ba81610488565b600d81526c21b7b739b4b232b930ba34b7b760991b6020820152604051918291602083526020830190610148565b0390f35b6001600160a01b0381160361000e57565b3590610208826101ec565b565b5060031960403682011261000e57600435906001600160401b03821161000e57604090823603011261000e5761026a6020916102546024359161024c836101ec565b600401615c80565b60405190610261826104be565b60008252612070565b6040519015158152f35b503461000e57602036600319011261000e57600435610292816101ec565b60018060a01b031660005260026020526020604060002054604051908152f35b503461000e57600036600319011261000e5760206102ce613fa9565b604051908152f35b503461000e57602036600319011261000e5760043560005260016020526040600020604051906103058261042a565b546101e8606060ff831615159283855260ff8160081c161515948560208201526001600160781b038260101c169182604083015260881c928391015260405194859485909493926060926080830196151583521515602083015260408201520152565b503461000e57600036600319011261000e576101e860405161038981610488565b600481526372632e3160e01b6020820152604051918291602083526020830190610148565b503461000e57600036600319011261000e576103c8613c8b565b3360005260026020526020604060002060018154018091556040518181527f7ab0fc7de8910a6100b24df423c3d0835534506dca9473d30c3e7df51241b2cf833392a2604051908152f35b50634e487b7160e01b600052604160045260246000fd5b608081019081106001600160401b0382111761044557604052565b61044d610413565b604052565b60a081019081106001600160401b0382111761044557604052565b60c081019081106001600160401b0382111761044557604052565b604081019081106001600160401b0382111761044557604052565b606081019081106001600160401b0382111761044557604052565b602081019081106001600160401b0382111761044557604052565b90601f801991011681019081106001600160401b0382111761044557604052565b6040519061016082018281106001600160401b0382111761044557604052565b6040519061020882610452565b60405190610208826104a3565b604051906102088261046d565b6020906001600160401b03811161055a575b60051b0190565b610562610413565b610553565b3590600682101561000e57565b92919261058082610541565b60409461058f865192836104d9565b819584835260208093019160a080960285019481861161000e57925b8584106105bb5750505050505050565b868483031261000e5784879184516105d281610452565b6105db87610567565b8152828701356105ea816101ec565b83820152858701358682015260608088013590820152608080880135908201528152019301926105ab565b9080601f8301121561000e5781602061063093359101610574565b90565b92919261063f82610541565b60409461064e865192836104d9565b819584835260208093019160c080960285019481861161000e57925b85841061067a5750505050505050565b868483031261000e5784879184516106918161046d565b61069a87610567565b8152828701356106a9816101ec565b838201528587013586820152606080880135908201526080808801359082015260a080880135906106d9826101ec565b82015281520193019261066a565b9080601f8301121561000e5781602061063093359101610633565b6004111561000e57565b359061020882610702565b9190916101608184031261000e5761072d6104fa565b92610737826101fd565b8452610745602083016101fd565b60208501526001600160401b0390604083013582811161000e578161076b918501610615565b6040860152606083013591821161000e576107879183016106e7565b60608401526107986080820161070c565b608084015260a081013560a084015260c081013560c084015260e081013560e084015261010080820135908401526101206107d48183016101fd565b908401526101408091013590830152565b35906001600160781b038216820361000e57565b6020906001600160401b038111610816575b601f01601f19160190565b61081e610413565b61080b565b92919261082f826107f9565b9161083d60405193846104d9565b82948184528183011161000e578281602093846000960137010152565b9080601f8301121561000e5781602061063093359101610823565b91909160a08184031261000e5761088a61051a565b926001600160401b03823581811161000e57826108a8918501610717565b85526108b6602084016107e5565b60208601526108c7604084016107e5565b6040860152606083013581811161000e57826108e491850161085a565b6060860152608083013590811161000e576108ff920161085a565b6080830152565b9080601f8301121561000e5781359061091e82610541565b9261092c60405194856104d9565b828452602092838086019160051b8301019280841161000e57848301915b84831061095a5750505050505090565b82356001600160401b03811161000e57869161097b84848094890101610875565b81520192019161094a565b81601f8201121561000e5780359161099d83610541565b926109ab60405194856104d9565b808452602092838086019260051b82010192831161000e578301905b8282106109d5575050505090565b813581529083019083016109c7565b9092916109f084610541565b91604094610a00865194856104d9565b839581855260208095019160051b83019380851161000e5783925b858410610a2b5750505050505050565b6001600160401b0390843582811161000e5786019060a08285031261000e578451610a5581610452565b8235815289830135600281101561000e578a82015285830135868201526060808401359082015260808084013594851161000e57610a97868c96879601610986565b90820152815201930192610a1b565b9080601f8301121561000e57816020610630933591016109e4565b81601f8201121561000e57803590610ad882610541565b92604092610ae8845195866104d9565b808552602091828087019260061b8501019381851161000e578301915b848310610b155750505050505090565b858383031261000e578386918251610b2c81610488565b853581528286013583820152815201920191610b05565b9080601f8301121561000e57813590610b5b82610541565b92610b6960405194856104d9565b828452602092838086019160051b8301019280841161000e57848301915b848310610b975750505050505090565b82356001600160401b03811161000e578691610bb884848094890101610ac1565b815201920191610b87565b50634e487b7160e01b600052602160045260246000fd5b60061115610be457565b610208610bc3565b6080908051610bfa81610bda565b83528160018060a01b03918260208201511660208601526040810151604086015260608101516060860152015116910152565b90815180825260208080930193019160005b828110610c4d575050505090565b909192938260e06001928751610c64828251610bec565b6040858060a01b039182868201511660a085015201511660c0820152019501910192919092610c3f565b90815180825260208080930193019160005b828110610cae575050505090565b835185529381019392810192600101610ca0565b908082519081815260208091019281808460051b8301019501936000915b848310610cf05750505050505090565b9091929394958480600192601f19858203018652895190848060a01b039182815116825282848201511684830152604083818301511690830152610d59610d466060808401519060c08091870152850190610c8e565b6080808401519085830390860152610c8e565b9260a080920151169101529801930193019194939290610ce0565b91939290936060830194606084528051809652608084019560208092019060005b818110610dc35750505094610db591610630959685830390860152610c2d565b916040818403910152610cc2565b8251151589529783019791830191600101610d95565b5060a036600319011261000e576001600160401b0360043581811161000e57610e06903690600401610906565b9060243581811161000e57610e1f903690600401610aa6565b9160443582811161000e57610e38903690600401610b43565b9260643592831161000e576101e893610e58610e6b943690600401610b43565b9160843593610e66856101ec565b61177b565b60409391935193849384610d74565b9181601f8401121561000e578235916001600160401b03831161000e576020808501948460051b01011161000e57565b602060031982011261000e57600435906001600160401b03821161000e57610ed491600401610e7a565b9091565b503461000e57610ee736610eaa565b610eef613c8b565b60005b818110610f055760405160018152602090f35b80610f1360019284866119f3565b610f1d8180611922565b90610f278261175e565b91610f3a610f353683610717565b6141b4565b91610f72610f6e610f5d610f58866000526001602052604060002090565b611a23565b610f678187615b1e565b5051151590565b1590565b610f81575b5050505001610ef2565b610ff7611014917ffde361574a066b44b3b5fe98a87108b7565e327327954c4faeea56a4e6491a0a93610fcd610fc6610fbf60209485810190611a65565b3691610823565b8789613d94565b610ff1610fe4876000526001602052604060002090565b805460ff19166001179055565b0161175e565b604051918291888060a01b03809116961694829190602083019252565b0390a338808080610f77565b503461000e57602036600319011261000e576004356001600160401b03811161000e57611051903690600401610717565b80516001600160a01b031660208201519091906001600160a01b0316906040810151606082019081516080840151611088816119c8565b60a085015160c086015160e08701519161010093848901519561012097888b01516110b89060018060a01b031690565b9951519b6110c46104fa565b6001600160a01b039e8f1681529d1660208e015260408d015260608c01526110ef9060808c016119dc565b60a08a015260c089015260e08801528601526001600160a01b0390911690840152610140918284015201516111239161408a565b604051908152602090f35b5060031960603682011261000e57600435906001600160401b039081831161000e5760a090833603011261000e5760243590811161000e576020916111a161117d61026a933690600401610e7a565b91906111996044359461118f866101ec565b3690600401610875565b9236916109e4565b90612070565b90916111be61063093604084526040840190610c2d565b916020818403910152610cc2565b50606036600319011261000e576001600160401b0360043581811161000e576111f9903690600401610906565b9060243581811161000e57611212903690600401610aa6565b60443591821161000e5761123f9261123161123a933690600401610e7a565b93909282612845565b612d0f565b906101e8604051928392836111a7565b503461000e5761125e36610eaa565b611266613c8b565b60005b81811061127c5760405160018152602090f35b611287818385611938565b6112908161175e565b60209061129e82840161175e565b6001600160a01b03828116939092903385141580611429575b611417576040956112ca8188018261195e565b606091828401926112db8486611993565b60809291908d6112ec8986016119d2565b95610120978d898c016112fe9061175e565b9a611309908d611993565b9d90506113146104fa565b6001600160a01b03909f168f528e6001600160a01b03909216910152369061133b92610574565b908b0152369061134a92610633565b9088015286019061135a916119dc565b60a0838101359086015260c0808401359086015260e0808401359086015261010080840135908601526001600160a01b0390911690840152610140918284015201356113a59161408a565b936113ba856000526001602052604060002090565b805460ff191690556113d6856000526001602052604060002090565b805461ff0019166101001790555193845216917f6bacc01dbe442496068f7d234edd811f1a5f833243e0aec824f86ab861f3c90d90602090a3600101611269565b60405163203b1cdd60e21b8152600490fd5b508383163314156112b7565b50604036600319011261000e576001600160401b0360043581811161000e57611462903690600401610e7a565b9160243590811161000e5761147b903690600401610e7a565b9161148584611fd7565b9360005b8181106114a85750505061123f9261123a6114a2611768565b82612845565b806114be6114b960019385876119f3565b615c80565b6114c8828961204e565b526114d3818861204e565b5001611489565b5060031960203682011261000e57600435906001600160401b03821161000e576102408260040191833603011261000e5761012435918260021c6001811190341582036117425761155c6003821192600283149687600285116001198601020191600183018602811560011b8601039260038760a00260240135931689611b0b565b6115686064840161175e565b9160051b6101c401359461157b82610bda565b816115c9575050906115b66115bd9460449361159960a4850161175e565b60e48501359160c48601359133916001600160a01b03169061331b565b01356138f1565b60405160018152602090f35b6115d282610bda565b60018203611615575050906115b6611610946044936115f360a4850161175e565b60e48501359160c48601359133916001600160a01b03169061343a565b6115bd565b61162182949394610bda565b15611670575061165b6116109461163a60a4840161175e565b6001600160a01b039094169360e48401359060c4850135903390879061331b565b60446116668461175e565b9101359133613a27565b61167981610bda565b600381036116b6575061165b6116109461169560a4840161175e565b6001600160a01b039094169360e48401359060c4850135903390879061343a565b806116c2600492610bda565b03611711576116f8611610946116d78561175e565b6001600160a01b03909416936044840135906024850135908690339061331b565b60e461170660a4830161175e565b91013591339061398f565b6116f8611610946117218561175e565b6001600160a01b03909416936044840135906024850135908690339061343a565b604051630a61be9f60e41b8152346004820152602490fd5b0390fd5b35610630816101ec565b604051611774816104be565b6000815290565b9061178b90959394929582612a75565b6117a061179b8651865190611aff565b612c51565b91600093845b8751861015611833576117c36117bc878a61204e565b51856149b2565b8051608001516001600160a01b031660208201516117f1906001600160a01b03165b6001600160a01b031690565b6001600160a01b039091160361181057506001809101955b01946117a6565b9561182d8297600193830390611826828a61204e565b528761204e565b50611809565b94509495929190956000945b81518610156118c85761185d88611856888561204e565b5185614aab565b8051608001516001600160a01b03166020820151611883906001600160a01b03166117e5565b6001600160a01b03909116036118a257506001809101955b019461183f565b956118c282976001938851840103906118bb828961204e565b528661204e565b5061189b565b935050939450915080611900575b508051156118ee576118e791612dd5565b9192909190565b60405163d5da9a1b60e01b8152600490fd5b8151038152386118d6565b50634e487b7160e01b600052603260045260246000fd5b90359061015e198136030182121561000e570190565b909161063092811015611951575b60051b810190611922565b61195961190b565b611946565b903590601e198136030182121561000e57018035906001600160401b03821161000e576020019160a082023603831361000e57565b903590601e198136030182121561000e57018035906001600160401b03821161000e576020019160c082023603831361000e57565b60041115610be457565b3561063081610702565b60048210156119e85752565b6119f0610bc3565b52565b9190811015611a16575b60051b81013590603e198136030182121561000e570190565b611a1e61190b565b6119fd565b90604051611a308161042a565b606081935460ff81161515835260ff8160081c16151560208401526001600160781b038160101c16604084015260881c910152565b903590601e198136030182121561000e57018035906001600160401b03821161000e5760200191813603831361000e57565b903590601e198136030182121561000e57018035906001600160401b03821161000e57602001918160061b3603831361000e57565b50634e487b7160e01b600052601160045260246000fd5b6001906001198111611af3570190565b611afb611acc565b0190565b81198111611af3570190565b959190611b16613a9f565b611b2a610140880135610120890135613ca9565b50611b33615d9e565b611b5a611b4e611b476102008a018a611a97565b9050611ae3565b6101e089013590615d6c565b7f00000000000000000000000000000000000000000000000000000000000000006080528160a0526060602460c037604060646101203760e06080908120610160526001610264359081016102a060059290921b918201526102c081019384526024906102e00137610160928460a0528560c052600060e05260005b839461020435821015611c335790604060a0600193602090818560061b6102840161010037838560061b6102840161012037019660e0608020885201968888528960c08201526101008360061b6102840191013701939293611bd6565b5090929350969590966001610204350160051b610160206060525b8361026435821015611c815790604060a060019301958787528860c08201526101008360061b6102840191013701611c4e565b505093509490506102089391507f00000000000000000000000000000000000000000000000000000000000000006080528260a052606060c460c03760206101046101203760c0608020600052602060002060e05260016102643560051b610200015261022092836102643560051b0152606060c46102406102643560051b0137611e2c610fbf60843593611d288560018060a01b03166000526002602052604060002090565b547f00000000000000000000000000000000000000000000000000000000000000006080526040608460a03760605161010052846101205260a0610144610140376101e0526101809485608020956102643560051b0190868252336101a06102643560051b015260806101c06102643560051b01526101206101e06102643560051b01527f9d9af8e38d66c62e2c12f0225249fd9d721c54b83f48d9352c97c6cacdcb6f3160a4359260a061026435026101e00190a36000606052611e2360608201611e1e611df68261175e565b96611e036080860161175e565b6001600160a01b03989091908916906101608701358b6141ed565b61175e565b95810190611a65565b921690611f1b916102089382600052600160205282611e94610f6e604060002060405190611e598261042a565b5460ff81161515825260ff8160081c16151560208301526001600160781b038160101c16604083015260881c6060820152610f678185615b8b565b611f30575b611eb39250610fe491506000526001602052604060002090565b611ed5611eca826000526001602052604060002090565b805461ff0019169055565b611f0b611eec826000526001602052604060002090565b805470ffffffffffffffffffffffffffffff0000191662010000179055565b6000526001602052604060002090565b80546001600160881b0316600160881b179055565b611f3992613d94565b388082611e99565b60405190611f4e82610452565b60405160808361016083016001600160401b03811184821017611fca575b6040526000808452806020850152606093846040820152848082015281848201528160a08201528160c08201528160e08201528161010082015281610120820152816101408201528252806020830152604082015282808201520152565b611fd2610413565b611f6c565b90611fe182610541565b611fee60405191826104d9565b8281528092611fff601f1991610541565b019060005b82811061201057505050565b60209061201b611f41565b82828501015201612004565b602090805115612035570190565b611afb61190b565b604090805160011015612035570190565b6020918151811015612063575b60051b010190565b61206b61190b565b61205b565b91909161207b613c8b565b60026000556120898161217d565b90936040519461209886610488565b6001865260005b6020808210156120c157906020916120b5611f41565b90828a0101520161209f565b505090919361211393956120f3612142986120f893835115612151575b60208401526120ec83612027565b5082614fd1565b612027565b51516101208101519094906001600160a01b03169185612665565b80516001600160a01b03165b60208201519092906001600160a01b031660606040840151930151933392613bc3565b61214c6001600055565b600190565b61215961190b565b6120de565b8060001904821181151516612171570290565b612179611acc565b0290565b805191612196610f6e60a085015160c086015190613ca9565b612488576121bd6121b160208401516001600160781b031690565b6001600160781b031690565b926121d56121b160408501516001600160781b031690565b938481118015612480575b61246e5784811080612456575b612444576121fa826141b4565b9161223560e08201516080830151612211816119c8565b83516001600160a01b031660208501519091906001600160a01b031692878a614636565b61224c610f58846000526001602052604060002090565b9461225a610f6e8786615b1e565b612434578361226c610f6e8851151590565b612410575b5050506122a26121b160606122936121b160408901516001600160781b031690565b9601516001600160781b031690565b9485156123b9576001810361238157505083925b836122c18683611aff565b11612377575b84612342612372926122e6610fe4866000526001602052604060002090565b6122fd611eca866000526001602052604060002090565b6001600160781b03928391011661231e856000526001602052604060002090565b9062010000600160881b0382549160101b169062010000600160881b031916179055565b8416612358836000526001602052604060002090565b906001600160881b0382549181199060881b169116179055565b929190565b80840394506122c7565b939094848103612392575b506122b6565b6123ac816123a6876123b29599989961215e565b9661215e565b9561215e565b923861238c565b935093506123d4610fe4826000526001602052604060002090565b6123eb611eca826000526001602052604060002090565b6123726001600160781b0361234281871661231e856000526001602052604060002090565b915161242c92906060906001600160a01b031692015191613d94565b388083612271565b5050509150915090600090600090565b60405163a11b63ff60e01b8152600490fd5b5060016080830151612467816119c8565b16156121ed565b604051632d02959960e11b8152600490fd5b5080156121e0565b600092508291508190565b90918151926124ae610f6e60a086015160c087015190613ca9565b612561576124c96121b160208501516001600160781b031690565b6124e06121b160408601516001600160781b031690565b948582118015612559575b61246e5785821080612541575b61244457612235612508826141b4565b9360e0830151608084015161251c816119c8565b84516001600160a01b0316602086015190929088906001600160a01b0316948b614714565b5060016080820151612552816119c8565b16156124f8565b5081156124eb565b50600092508291508190565b9091815192612588610f6e60a086015160c087015190613cda565b612561576125a36121b160208501516001600160781b031690565b6125ba6121b160408601516001600160781b031690565b94858211801561261f575b61246e5785821080612607575b612444576125e2612508826141b4565b6125f9610f58846000526001602052604060002090565b9461225a610f6e8786615bc4565b5060016080820151612618816119c8565b16156125d2565b5081156125c5565b60018110612637575b6000190190565b61263f611acc565b612630565b81811061264f570390565b612657611acc565b0390565b5161063081610bda565b91909493929460c08301519360a09161268e61268684870197885190612644565b965142612644565b956126998782612644565b349460005b6040808a0151805183101561274757898e92886126d98f94896126c2898d9361204e565b5196606088019687519560808a01968751906158a7565b80935233905282516126ea81610bda565b6126f381610bda565b1561271c575b50508a51600193926127169290916001600160a01b031690612f8e565b0161269e565b90925089839a929a11612737575003968c90816127166126f9565b51631a783b8d60e01b8152600490fd5b5050509397909192949596995060005b6060808c015180518310156127f45790898861279088888f9661277b898b9261204e565b519687019586519560808901968751906158e7565b80925288830151905281516127a481610bda565b6127ad81610bda565b156127c9575b50600192916127c3913390612f8e565b01612757565b90988093925081116127e25790910396899060016127b3565b604051631a783b8d60e01b8152600490fd5b50505050505050509293505050806128095750565b6102089033613085565b9061281d82610541565b61282a60405191826104d9565b828152809261283b601f1991610541565b0190602036910137565b9061284e613a9f565b81519161285a83612813565b91600090818452815b8581106128e757506128759083614fd1565b8381106128825750505050565b8061288f6001928561204e565b51156128e2576128dc6128a2828561204e565b51516128ae838761204e565b5181519091906001600160a01b031660208201516001600160a01b0316906060604084015193015193613aef565b01612875565b6128dc565b6128f1818561204e565b516128fc8682612493565b926001929192938486018a5260c082519360a09485810151928391015103914203808303918d8c8915612a5d57508a6129349161204e565b5284516040015188828d825b6129e5575b5050505060608095510151888c905b61296d575b505050505050505050506001905b01612863565b81518110156129e05789818a8a8a8a6129c38b8b8b61298d8a9b8d61204e565b519560808701986129a08a5188836152af565b918801968751908b5182146000146129d0575050508086525b8089528551615276565b9052015190520190612954565b6129d9926152af565b86526129b9565b612959565b878b88888751851015612a545786956060612a3994612a04888c61204e565b51906080820190612a1782518a836152af565b938493019889519083518214600014612a44575050508188525b528551615241565b905201839082612940565b612a4d926152af565b8852612a31565b50505050612945565b98505050505050506001949350602091500152612967565b90612a7e613a9f565b815191612a8a83612813565b91600090818452815b858110612afd5750612aa59083614fd1565b838110612ab25750505050565b80612abf6001928561204e565b5115612af857612af2612ad2828561204e565b5151612ade838761204e565b5181519091906001600160a01b031661211f565b01612aa5565b612af2565b612b07818561204e565b51612b12868261256d565b926001929192938486018a5260c082519360a09485810151928391015103914203808303918d8c8915612be857508a612b4a9161204e565b5284516040015188828d825b612bb5575b5050505060608095510151888c905b612b83575b505050505050505050506001905b01612a93565b8151811015612bb05789818a8a8a8a612ba38b8b8b61298d8a9b8d61204e565b9052015190520190612b6a565b612b6f565b878b88888751851015612bdf5786956060612bd494612a04888c61204e565b905201839082612b56565b50505050612b5b565b98505050505050506001949350602091500152612b7d565b60405190612c0d82610452565b60006080838281528260208201528260408201528260608201520152565b60405190612c38826104a3565b6000604083612c45612c00565b81528260208201520152565b90612c5b82610541565b612c6860405191826104d9565b8281528092612c79601f1991610541565b019060005b828110612c8a57505050565b602090612c95612c2b565b82828501015201612c7e565b60408136031261000e5760408051916001600160401b0391830182811184821017612d02575b604052803582811161000e57612ce09036908301610ac1565b8352602081013591821161000e57612cfa91369101610ac1565b602082015290565b612d0a610413565b612cc7565b929192612d1b84612c51565b9160009081955b808710612d4f575050612d3d93945080612d44575b50612dd5565b9291509190565b825103825238612d37565b9091612d64612d5f8884866119f3565b612ca1565b612d76815160208093015190876147f7565b8051608001519181015190916001600160a01b0390811691612d9891166117e5565b6001600160a01b0390911603612db957506001809101965b01959190612d22565b96612dcf8298600193830390611826828a61204e565b50612db0565b908151612de181612813565b926000905b828210612ed757505050612df9906153ee565b349360005b8351811015612e8757612e11818561204e565b518051908151612e2081610bda565b612e2981610bda565b15612e69575b602081015160019392612e63929091612e5d906040906001600160a01b03169201516001600160a01b031690565b91612f8e565b01612dfe565b9691906060810190838251116127e257905190920396909190612e2f565b50909260005b8451811015612eb25780612eac612ea66001938861204e565b5161364b565b01612e8d565b5090919380612ec7575b506123726001600055565b612ed19033613085565b38612ebc565b91949093612ee5858461204e565b5193612efe6121b160208701516001600160781b031690565b15612f7f57612f16612f10878461204e565b60019052565b606080955101519660005b8851811015612f6c5786612f35828b61204e565b51015180612f465750600101612f21565b6040516314bea84160e31b8152600481018a905260248101929092526044820152606490fd5b50939296509350936001905b0190612de6565b93509360019095929195612f78565b91908251612f9b81610bda565b612fa481610bda565b612fc75750506080810151606090910151610208916001600160a01b0316613085565b60018351612fd481610bda565b612fdd81610bda565b0361300c57602083015160808401516060909401516102089490926001600160a01b03918216929091166130f6565b6002835161301981610bda565b61302281610bda565b036130565760208301516080840151604085015160609095015161020895909390926001600160a01b03928316921661331b565b60208301516080840151604085015160609095015161020895909390926001600160a01b03928316921661343a565b9061308f81615d85565b600080808084865af1156130a1575050565b604492506130ad615cef565b60405163470c7c1d60e01b81526001600160a01b0390921660048301526024820152fd5b9081602091031261000e5751801515810361000e5790565b506040513d6000823e3d90fd5b909361310184615d85565b6001600160a01b039081168061311d5750509261020893613256565b9193929160010361321b57604051630aed65f560e11b81526001600160a01b0385811660048301528681166024830152831660448201526064810184905290602090829060849082906000907f0000000000000000000000000000000000000000000000000000000000000000165af190811561320e575b6000916131e0575b50156131a95750505050565b604051639889192360e01b81526001600160a01b039384166004820152938316602485015290911660448301526064820152608490fd5b613201915060203d8111613207575b6131f981836104d9565b8101906130d1565b3861319d565b503d6131ef565b6132166130e9565b613195565b60405162461bcd60e51b8152602060048201526013602482015272139bdd081e595d081a5b5c1b195b595b9d1959606a1b6044820152606490fd5b9092604051926000946323b872dd60e01b865280600452816024528260445260208660648180885af1803d15601f3d1160018a51141617163d15158116156132a7575b505050505050604052606052565b80863b1515166132995787959650156132ce57632f8aeb3960e11b85526004869052602485fd5b156132ee5760a494639889192360e01b8552600452602452604452606452fd5b3d6133125760a49463f486bc8760e01b855260045260245260445281606452608452fd5b833d81803e3d90fd5b92909493919360018303613428576001600160a01b0316806133bc5750823b156133a757604051936000956323b872dd60e01b8752806004528160245282604452868060648180895af115613377575050505050604052606052565b869495503d61339e5760a49563f486bc8760e01b8652600452602452604452606452608452fd5b843d81803e3d90fd5b82632f8aeb3960e11b60005260045260246000fd5b600190959193959492941460001461321b576040516323b872dd60e01b60208201526001600160a01b038083166024830152831660448201526064810184905261020895906134239061341c81608481015b03601f1981018352826104d9565b828461376f565b613cfe565b60405163efcc00b160e01b8152600490fd5b909492919261344885615d85565b6001600160a01b0316806134ec5750803b156134d857604051936080519260a05194600097637921219560e11b89528060045281602452826044528360645260a06084528860a452888060c48180895af1156134b157505050505060805260a052604052606052565b889495503d61339e5760a49563f486bc8760e01b8652600452602452604452606452608452fd5b632f8aeb3960e11b60005260045260246000fd5b90949192919060010361321b57604051637921219560e11b60208201526001600160a01b03808316602483015283166044820152606481018490526084810185905260a060a4820152600060c482015261020895906134239061341c8160e4810161340e565b6060519081815260208091019160809160005b828110613573575050505090565b835185529381019392810192600101613565565b926135b690602095926135c49460018060a01b038092168752168686015260a0604086015260a0850190610c8e565b908382036060850152610c8e565b906080818303910152600081520190565b3d15613600573d906135e6826107f9565b916135f460405193846104d9565b82523d6000602084013e565b606090565b6001600160a01b0391821681529181166020830152909116604082015260a06060820181905261063093919261363d91840190610c8e565b916080818403910152610c8e565b60a081015181516020830151604084015160608501516080909501516001600160a01b03938416959284169490939182169116806136f657506000806040516020810190631759616b60e11b82526136ad8161340e8989898d60248601613587565b519082895af16136bb6135d5565b505b156136cf575050505061020890613d5a565b61175a9395506136dd615cef565b6040516357e222f160e11b815295869560048701613605565b60010361321b57604051631759616b60e11b602082015261372c906137258161340e8787878b60248601613587565b868661376f565b6136bd565b9081602091031261000e5751610630816101ec565b6001600160a01b0390911681526000602082015260606040820181905261063092910190610148565b60405163c455279160e01b81526001600160a01b03918216600482015260209392909184836024817f000000000000000000000000000000000000000000000000000000000000000085165afa9283156138c6575b6000936138a7575b50604051635c60da1b60e01b81529085826004818785165afa91821561389a575b60009261386b575b50807f000000000000000000000000000000000000000000000000000000000000000016911603613859576000809493613849829561340e604051938492830196633f801f9160e01b885260248401613746565b51925af16138556135d5565b5090565b60405163dcd488e360e01b8152600490fd5b61388c919250863d8811613893575b61388481836104d9565b810190613731565b90386137f5565b503d61387a565b6138a26130e9565b6137ed565b6138bf919350853d87116138935761388481836104d9565b91386137cc565b6138ce6130e9565b6137c4565b91908110156138e4575b60061b0190565b6138ec61190b565b6138dd565b60009291345b61020082016139068184611a97565b905086101561394e578561391d6139239285611a97565b906138d3565b908135908082116127e2576139458261394060206001960161175e565b613085565b039401936138f7565b509293508282116127e257816139406060613969930161175e565b80821161397d575b50506102086001600055565b613988910333613085565b3880613971565b9493929190946101a0840135936139a5856101ec565b60005b61020082016139b78184611a97565b9050821015613a1257906139ff876139d58361391d60019688611a97565b97602089358281809410613a05575b039901356139f1816101ec565b858060a01b031687896130f6565b016139a8565b613a0d611acc565b6139e4565b505050613a209495916130f6565b6001600055565b919492936101c081013593613a3b856101ec565b60005b6102008301613a4d8185611a97565b9050821015613a905790613a8a87613a6b8361391d60019689611a97565b602081013590613a7a826101ec565b3590858060a01b0316898d6130f6565b01613a3e565b505095613a20959391506130f6565b613aa7613c8b565b6002600055565b90815180825260208080930193019160005b828110613ace575050505090565b909192938260a082613ae36001948951610bec565b01950193929101613ac0565b91939290936040805193608091828601918652602090600082880152838188015285518093528160a088019601936000915b848310613b785750505050848403606086015250506001600160a01b039081169416927f9d9af8e38d66c62e2c12f0225249fd9d721c54b83f48d9352c97c6cacdcb6f3192918291613b739190613aae565b0390a3565b90919293949684836001928a518051613b9081610bda565b8252848060a01b038482015116848301528581015186830152606080910151908201520198019301919094939294613b21565b929094939160409182519460809182870191875260018060a01b0394856020921682890152838189015286518093528160a089019701936000915b848310613c47575050505050508282859493613b7393867f9d9af8e38d66c62e2c12f0225249fd9d721c54b83f48d9352c97c6cacdcb6f31989603606087015216971695613aae565b90919293949784836001928b518051613c5f81610bda565b8252808401518c1684830152858101518683015260609081015190820152019901959493019190613bfe565b600160005403613c9757565b604051637fa8a98760e01b8152600490fd5b4210908115613ccf575b50613cbd57600190565b6040516337bf561360e11b8152600490fd5b905042101538613cb3565b4210908115613cf3575b50613cee57600190565b600090565b905042101538613ce4565b949392909415613d15575050505061020890613d5a565b60a49550613d21615cef565b60405163f486bc8760e01b81526001600160a01b0395861660048201529185166024830152909316604484015260648301526084820152fd5b3d1580613d8b575b613d695750565b604051632f8aeb3960e11b81526001600160a01b039091166004820152602490fd5b50803b15613d62565b6001600160a01b0392909183831690338214613ee857613dd290613db6613fa9565b61190160f01b6000526002526022526042600020906000602252565b90825194604095868114600014613e7e5750602084810151878601516000919060ff81901c601b0190613e2f906001600160ff1b03165b8b519384938a859094939260ff6060936080840197845216602083015260408201520152565b838052039060015afa15613e71575b6000511680613e58578551638baa579f60e01b8152600490fd5b90919293945003613e6857505050565b61020892613eef565b613e796130e9565b613e3e565b604103613eda57602084015186850151606086015160001a90601b82141580613ecf575b613eb55791600091613e2f602094613e09565b8851630f801e8560e11b815260ff83166004820152602490fd5b50601c821415613ea2565b505090916102089350613eef565b5050505050565b613f29610f6e91613f37613f3c9495604051938491630b135d3f60e11b988960208501526024840152604060448401526064830190610148565b03601f1981018452836104d9565b613f93565b613f7957600060203d14613f6e575b6001600160e01b03191603613f5c57565b604051632057875960e21b8152600490fd5b602081803e51613f4b565b613f81615cef565b604051634f7fb80d60e01b8152600490fd5b6000918291602082519201905afa6138556135d5565b467f000000000000000000000000000000000000000000000000000000000000000003613ff4577f000000000000000000000000000000000000000000000000000000000000000090565b60405160208101907f000000000000000000000000000000000000000000000000000000000000000082527f000000000000000000000000000000000000000000000000000000000000000060408201527f000000000000000000000000000000000000000000000000000000000000000060608201524660808201523060a082015260a081526140848161046d565b51902090565b91909161014081018051917f0000000000000000000000000000000000000000000000000000000000000000604051604083018051928351926020809501906000915b868684106141915750505050506040519160051b8220917f00000000000000000000000000000000000000000000000000000000000000009093606086019481865101906000915b8a831061416d5750505050508560051b6040512093601f1901978851907f00000000000000000000000000000000000000000000000000000000000000008a5282519383528451958552865261018089209852525252565b8380600192601f1981510180519089815260e0812087525201920192019190614115565b80600192601f1981510180519088815260c08120875252019201920191906140cd565b610630906141cd60608201515161014083015190615d6c565b80516001600160a01b03166000908152600260205260409020549061408a565b92916001906004811015614290575b118061427d575b8061426a575b614214575b50505050565b6040516303874c7760e21b6020820152602481018490523360448201526001600160a01b03909216606483015260848201526142619261425c9190613f378260a48101613f29565b615ab1565b3880808061420e565b50336001600160a01b0383161415614209565b50336001600160a01b0385161415614203565b614298610bc3565b6141fc565b90815180825260208080930193019160005b8281106142bd575050505090565b909192938260a0600192875180516142d481610bda565b82528084015185841b8690031684830152604080820151908301526060808201519083015260809081015190820152019501939291016142af565b90815180825260208080930193019160005b82811061432f575050505090565b909192938260c06001928751805161434681610bda565b8252848060a01b038085830151168584015260408083015190840152606080830151908401526080808301519084015260a0809201511690820152019501910192919092614321565b9060048210156119e85752565b9192610630936144db92845260018060a01b0316602084015260806040840152805160a060808501526101206143dc818601835160018060a01b03169052565b60208201516001600160a01b0316610140868101919091526144296144116040850151610160808a015261028089019061429d565b606085015188820361011f19016101808a015261430f565b9261443d60808201516101a089019061438f565b60a08101516101c088015260c08101516101e088015260e081015161020088015261010080820151610220890152928101516001600160a01b0316610240880152015161026086015260208301516001600160781b031660a086015260408301516001600160781b031660c086015260806144ca606085015193607f1994858983030160e08a0152610148565b930151918584030190850152610148565b906060818303910152613552565b92610630949261462892855260018060a01b0316602085015260806040850152805160a06080860152610120614529818701835160018060a01b03169052565b60208201516001600160a01b03166101408781019190915261457661455e6040850151610160808b01526102808a019061429d565b606085015189820361011f19016101808b015261430f565b9261458a60808201516101a08a019061438f565b60a08101516101c089015260c08101516101e089015260e0810151610200890152610100808201516102208a0152928101516001600160a01b0316610240890152015161026087015260208301516001600160781b031660a087015260408301516001600160781b031660c08701526080614617606085015193607f1994858a83030160e08b0152610148565b930151918684030190860152610148565b916060818403910152610c8e565b94909392600190614646816119c8565b1180614701575b806146ee575b61465e575050505050565b6146b894608081015151156000146146c257506040516303874c7760e21b6020820152602481018590523360448201526001600160a01b039093166064840152608483019190915261425c9190613f378260a48101613f29565b3880808080613ee8565b604051632bb1c66d60e21b602082015261425c94509250613f37908390613f299033886024850161439c565b50336001600160a01b0384161415614653565b50336001600160a01b038216141561464d565b95919493600190614724816119c8565b11806147e4575b806147d1575b61473e575b505050505050565b61479995608081015151156000146147a45750506040516303874c7760e21b6020820152602481018590523360448201526001600160a01b039093166064840152608483019190915261425c9190613f378260a48101613f29565b388080808080614736565b604051632bb1c66d60e21b602082015261425c95509350613f37918491613f2991903389602486016144e9565b50336001600160a01b0385161415614731565b50336001600160a01b038316141561472b565b9190614801612c2b565b508051158015614996575b6149845761481a8284615921565b926148258282614b4a565b93614830855161265b565b81519061483c82610bda565b61484582610bda565b61484e81610bda565b1480159061494b575b8015614938575b61492657846148e293608093610630966060809481928288019586518484510151106000146148f857506148c2926148b56148ac61489d602094612027565b5194838a519151015190612644565b9684519061204e565b515101519101519061204e565b510152818751015181525b5186519091015201516001600160a01b031690565b82516001600160a01b0390911660809190910152565b602091506148b56148ac61491e95614911604094612027565b5195510151895190612644565b5101526148cd565b6040516309cfb45560e01b8152600490fd5b506040855101516040820151141561485e565b508451602001516001600160a01b03166020820151614972906001600160a01b03166117e5565b6001600160a01b039091161415614857565b604051634c74edb760e11b8152600490fd5b5081511561480c565b60021115610be457565b6119f082610bda565b906149bb612c2b565b50805115614a9257600091825b8251811015614a8b576149db818461204e565b51518251811015614a79576121b160206149f8614a07938661204e565b5101516001600160781b031690565b614a13576001016149c8565b6001019250905b8215614a3257614a2c61063093612627565b91614cd1565b505050614a3d61051a565b6000815260006020820152600060408201526000606082015260006080820152614a65610527565b908152600060208201526000604082015290565b604051631a50ca5560e11b8152600490fd5b5090614a1a565b60405163375c24c160e01b815260006004820152602490fd5b91614ab4612c2b565b50815115614b3157600092835b8351811015614b2957614ad4818561204e565b51518251811015614a79576121b160206149f8614af1938661204e565b614afd57600101614ac1565b600101935090915b8315614b1d57614b1761063094612627565b91614e14565b50505050614a3d61051a565b509091614b05565b60405163375c24c160e01b815260016004820152602490fd5b90614b53612c2b565b92602082015192602084519401519360208083518310159260051b8401015151916040830151908151881015179660051b0101519260006060885195805187526020810151602088015260408101516040880152018051956080339101525261012082519260208901938452015192604088019384528751956001975b8151891081151615614cc1575060208860051b82010151976020895199015183518a1015998a614caf5760209060051b850101516020810151614c19575b505060010197614bd0565b90979199505196604088015190815181101580614c8557506001929160209160051b01015190606082015101976000606083015260208a01516020830151148a5183511416908851610120820151149088519051141616906040808b0151910151141615989038614c0e565b9996505050955050509450606091505b0152614c9d57565b604051637fda727960e01b8152600490fd5b50505050509493905060609150614c95565b9693505050945060609150614c95565b92919092614cdd612c2b565b9360208360051b82010151602081519101519460208085518410159360051b8601015151926040840151908151891015179760051b0101519360006060895196805188526020810151602089015260408101516040890152018051966080339101525261012083519360208a0194855201519360408901948552600189519701975b8151891081151615614cc1575060208860051b82010151976020895199015183518a1015998a614caf5760209060051b850101516020810151614da8575b505060010197614d5f565b90979199505196604088015190815181101580614c8557506001929160209160051b01015190606082015101976000606083015260208a01516020830151148a5183511416908851610120820151149088519051141616906040808b0151910151141615989038614d9d565b9291614e1e612c2b565b50614e27612c00565b9380519060208360051b8501015193602085519501519383861095861596614e7a575b505050505050614c9d5760405191614e61836104a3565b82523360208301526001600160a01b0316604082015290565b606091929394959897965060209060051b850101515101518051881097881598614ea8575b97959697614e4a565b60206001939260a09260051b01015180518952602081015160208a0152604081015160408a0152600060608201805160608c0152520151608088015201955b8151871015614fc5575060208660051b820101519560208751970151848810159788614fb85760209060051b850101516020810151614f2c575b505060010195614ee7565b516060015180519298509181101580614faa57509060209160051b010151600060608201805160608901510160608901525260408601516040820151146020870151602083015114168651825114169060a060808801519101511416159586614f96573880614f21565b5050505090915b9190388080808080614e9f565b959697505050505050614f9d565b5050505050509091614f9d565b93949550505050614f9d565b919060005b815181101561515557614fe9818361204e565b5180519085518210156151435760209161500a6121b1846149f8848b61204e565b1561513857615019908761204e565b51519160409283830151918301516150308161499f565b6150398161499f565b6150da5783018051518210156150c95790615054915161204e565b5191600383519361506485610bda565b849061507b848201916004835198148503906149a9565b606085015190525b11156150b9575090600192918161509e575b50505b01614fd6565b6150b2916080606083015192015191615d00565b3880615095565b51634a75b57b60e11b8152600490fd5b8351635fd9fc6760e11b8152600490fd5b92906060809401805151821015615127576003916150f8915161204e565b519384519461510686610bda565b859161511d858301926004845199148603906149a9565b8501519052615083565b82516330446bef60e11b8152600490fd5b505050600190615098565b6040516321a561b160e21b8152600490fd5b50509060005b815181101561523d5761516e818361204e565b516151866121b160208301516001600160781b031690565b156152345760608082510151519060005b8281106151ff5750505060408082510151519160005b8381106151c257505050506001905b0161515b565b6151e26151dc6151d683868651015161204e565b5161265b565b60031090565b6151ee576001016151ad565b825163a6cfc67360e01b8152600490fd5b6152136151dc6151d683858851015161204e565b61521f57600101615197565b60405160016202297360e61b03198152600490fd5b506001906151bc565b5050565b93929093848103615253575050505090565b9161526661526c9261527295969461215e565b9261215e565b90611aff565b0490565b93929093848103615288575050505090565b9161526c61529e6152aa9361527296979561215e565b9160001987019461215e565b611aff565b92919281811461523d57816152c4828661215e565b0493096152cd57565b60405163c63cf08960e01b8152600490fd5b906152e982610541565b6040906152f8825191826104d9565b8381528093615309601f1991610541565b019160005b83811061531b5750505050565b60209082516153298161046d565b6000815282600081830152600085830152606080808401526080830152600060a083015282860101520161530e565b6040519061536582610488565b6001825260203681840137565b6040519061537f826104a3565b600282526040366020840137565b9061539782610541565b60406153a5815192836104d9565b83825281936153b6601f1991610541565b0191600091825b8481106153cb575050505050565b60209082516153d981610488565b858152826060818301528286010152016153bd565b90815191600192838111156156ad57600061540882612813565b918582815b61565d575b50821115615650576154238261538d565b9061542d84612027565b51926154398487615c17565b615441615358565b9461544b86612027565b5261545584612027565b5152602094848661546586612027565b510152889489805b848110615556575050505083146155485761548790612813565b91615490615372565b9360005b8281106154be57505050610ed49495506154b76154b084612027565b519361203d565b51936156b8565b80826154cb8b938761204e565b51015180519060028210156154e3575b505001615494565b6154f66154ef8a61203d565b5160010190565b6154ff8a61203d565b528161550a8a612027565b51016155158a612027565b528360005b8381106155285750506154db565b81850161553f615538838661204e565b518c61204e565b5201849061551a565b505050509150610630611768565b615560818561204e565b5161556b818c615c17565b90600084815b8c81106155ba575b50501561558b575b5050018a9061546d565b61559485612027565b5261559f898961204e565b515282896155b0848b019a8a61204e565b5101523880615581565b6155c4818d61204e565b515185146155d457018590615571565b9150508b6155e2828c61204e565b510151908c825191846155f6898501612813565b948960005b8681106156255750505061561361561a93948661204e565b528c61204e565b510152838438615579565b8281939597965061563792945061204e565b51615642828861204e565b52018f9293918987926155fb565b5050509150610630611768565b85518110156156a85780600361567e61567785948a61204e565b515161265b565b61568781610bda565b14615694575b018161540d565b806156a2838701968861204e565b5261568d565b615412565b509150610630611768565b949390949291926156cc8151938403612c51565b936156d6836152df565b966156e2600094612813565b91845b8681106156f757505050505050509190565b615701818361204e565b51958a61570e838861204e565b51978061573c57505090615734826001809491019861572d828d61204e565b528a61204e565b505b016156e5565b9197600193926157cc91906080906157b190600019016001600160a01b0380615776615768848a61204e565b51516001600160a01b031690565b16156157d2575b50615788818c61204e565b5193888501615797838e61204e565b52604081510151906060916157b987846157b1878d61204e565b51015161204e565b52510151956157c787615d85565b61204e565b52615736565b61588b6020806157e2858f61204e565b51015151875182810151838a0151918901516001600160a01b0391821696928216938a939092615873928d92911661586361582561581f87612813565b96612813565b6040948501519098906001600160a01b031699615852615843610534565b6001600160a01b03909e168e52565b6001600160a01b03909116908c0152565b166001600160a01b031690880152565b60608601528401526001600160a01b031660a0830152565b615895828861204e565b526158a0818761204e565b503861577d565b959192939490948587146000146158c55750505061063093506152af565b929194846158db610630986158e19497866152af565b936152af565b90615241565b959192939490948587146000146159055750505061063093506152af565b929194846158db6106309861591b9497866152af565b90615276565b91909161592c612c00565b8151602080860151805191015192958282108015959193919290615956575b5050505050614c9d57565b60609192939496955060209060051b840101515101518051861095861596615981575b95949561594b565b9060209160051b0101519182518752602083015191602088019283526040840151916040890192835260a06060860195600087519760608d019889525201519560808a019687526001985b81518a1015615aa2575060208960051b820101519860208a519a0151848b10159a8b615a925760209060051b850101516020810151615a11575b5050600101986159cc565b51606001518051929b509181101580615a8157509060209160051b010151600060608201805189510189525284516040820151148651602083015114168b51825114169060a089519101511416159889615a6c573880615a06565b5050505050505050905b903880808080615979565b999a50505050505050505050615a76565b5050505050505050505090615a76565b97985050505050505050615a76565b15615afe57600060203d14615af3575b6001600160e01b031916633c78b38960e21b01615adb5750565b60249060405190633ed4053f60e21b82526004820152fd5b602081803e51615ac1565b602490615b09615cef565b60405190633ed4053f60e21b82526004820152fd5b906020810151615b72576001600160781b03806040830151169182615b47575b50505050600190565b60600151161115615b5a57808080615b3e565b602490604051906310fda3e160e01b82526004820152fd5b604051630694555d60e21b815260048101839052602490fd5b906020810151615b7257604001516001600160781b0316615bac5750600190565b6024906040519063ee9e0e6360e01b82526004820152fd5b906000906020810151615c0e576001600160781b03806040830151169182615bf1575b5050505050600190565b60600151161115615c0457808080615be7565b615b5a5750600090565b50905050600090565b90615c219161204e565b518051602080820151818401516080909301516040948501516001600160a01b039081169093528216601c5290821660085260601b6bffffffffffffffffffffffff191690821c6bffffffffffffffffffffffff161760009081522090565b615c88611f41565b50615cd2615ca4615c998380611922565b926020810190611a65565b615cbb60405194615cb486610452565b3690610717565b845260016020850152600160408501523691610823565b6060820152604051615ce3816104be565b60008152608082015290565b3d615cf657565b3d6000803e3d6000fd5b92909192906000915b8451831015615d4f57615d1c838661204e565b5190818111615d3b5760005260205260016040600020925b0191615d09565b906000526020526001604060002092615d34565b9150925003615d5a57565b6040516309bde33960e01b8152600490fd5b10615d7357565b604051632335530b60e11b8152600490fd5b15615d8c57565b60405163246cf94560e21b8152600490fd5b6102643560061b6102600161024435146102406102243514602060043514161615615dc557565b6040516339f3e3fd60e01b8152600490fdfea2646970667358221220c658fb668e86f75879bb958d34689da654cd9a6d4e3dd60b8cdf2e0eae9d213264736f6c634300080d0033",
  "devdoc": {
    "author": "0age",
    "custom:coauthor": "d1ll0ntransmissions11",
    "custom:version": "rc-1",
    "errors": {
      "BadContractSignature()": [
        {
          "details": "Revert with an error when an EIP-1271 call to an account fails."
        }
      ],
      "BadFraction()": [
        {
          "details": "Revert with an error when supplying a fraction with a value of zero      for the numerator or denominator, or one where the numerator exceeds      the denominator."
        }
      ],
      "BadReturnValueFromERC20OnTransfer(address,address,address,uint256)": [
        {
          "details": "Revert with an error when an ERC20 token transfer returns a falsey      value.",
          "params": {
            "amount": "The amount for the attempted ERC20 transfer.",
            "from": "The source of the attempted ERC20 transfer.",
            "to": "The recipient of the attempted ERC20 transfer.",
            "token": "The token for which the ERC20 transfer was attempted."
          }
        }
      ],
      "BadSignatureV(uint8)": [
        {
          "details": "Revert with an error when a signature that does not contain a v      value of 27 or 28 has been supplied.",
          "params": {
            "v": "The invalid v value."
          }
        }
      ],
      "ConsiderationCriteriaResolverOutOfRange()": [
        {
          "details": "Revert with an error when providing a criteria resolver that refers      to an order with a consideration item that has not been supplied."
        }
      ],
      "ConsiderationNotMet(uint256,uint256,uint256)": [
        {
          "details": "Revert with an error if a consideration amount has not been fully      zeroed out after applying all fulfillments.",
          "params": {
            "considerationIndex": "The index of the consideration item on the                           order.",
            "orderIndex": "The index of the order with the consideration                           item with a shortfall.",
            "shortfallAmount": "The unfulfilled consideration amount."
          }
        }
      ],
      "CriteriaNotEnabledForItem()": [
        {
          "details": "Revert with an error when providing a criteria resolver that refers      to an order with an item that does not expect a criteria to be      resolved."
        }
      ],
      "ERC1155BatchTransferGenericFailure(address,address,address,uint256[],uint256[])": [
        {
          "details": "Revert with an error when a batch ERC1155 token transfer reverts.",
          "params": {
            "amounts": "The amounts for the attempted transfer.",
            "from": "The source of the attempted transfer.",
            "identifiers": "The identifiers for the attempted transfer.",
            "to": "The recipient of the attempted transfer.",
            "token": "The token for which the transfer was attempted."
          }
        }
      ],
      "EtherTransferGenericFailure(address,uint256)": [
        {
          "details": "Revert with an error when an ether transfer reverts."
        }
      ],
      "FulfilledOrderIndexOutOfRange()": [
        {
          "details": "Revert with an error when a fulfillment is provided with an index      that references an order or item that has not been supplied."
        }
      ],
      "InexactFraction()": [
        {
          "details": "Revert with an error when attempting to apply a fraction as part of      a partial fill that does not divide the target amount cleanly."
        }
      ],
      "InsufficientEtherSupplied()": [
        {
          "details": "Revert with an error when insufficient ether is supplied as part of      msg.value when fulfilling orders."
        }
      ],
      "InvalidBasicOrderParameterEncoding()": [
        {
          "details": "Revert with an error when attempting to fill a basic order using      calldata not produced by default ABI encoding."
        }
      ],
      "InvalidCanceller()": [
        {
          "details": "Revert with an error when attempting to cancel an order as a caller      other than the indicated offerer or zone."
        }
      ],
      "InvalidERC721TransferAmount()": [
        {
          "details": "Revert with an error when an ERC721 transfer with amount other than      one is attempted."
        }
      ],
      "InvalidFulfillmentComponentData()": [
        {
          "details": "Revert with an error when an order or item index are out of range      or a fulfillment component does not match the type, token,      identifier, or conduit preference of the initial consideration item."
        }
      ],
      "InvalidMsgValue(uint256)": [
        {
          "details": "Revert with an error when a caller attempts to supply callvalue to a      non-payable basic order route or does not supply any callvalue to a      payable basic order route."
        }
      ],
      "InvalidProof()": [
        {
          "details": "Revert with an error when providing a criteria resolver that      contains an invalid proof with respect to the given item and      chosen identifier."
        }
      ],
      "InvalidProxyImplementation()": [
        {
          "details": "Revert with an error when the implementation of the respective      legacy user proxy does not match the expected proxy implementation."
        }
      ],
      "InvalidRestrictedOrder(bytes32)": [
        {
          "details": "Revert with an error when attempting to fill an order that specifies      a restricted submitter as its order type when not submitted by      either the offerrer or the order's zone or approved as valid by the      zone in question via a staticcall to `isValidOrder`.",
          "params": {
            "orderHash": "The order hash for the invalid restricted order."
          }
        }
      ],
      "InvalidSignature()": [
        {
          "details": "Revert with an error when a signer cannot be recovered from the      supplied signature."
        }
      ],
      "InvalidSigner()": [
        {
          "details": "Revert with an error when the signer recovered by the supplied      signature does not match the offerer or an allowed EIP-1271 signer      as specified by the offerer in the event they are a contract."
        }
      ],
      "InvalidTime()": [
        {
          "details": "Revert with an error when attempting to fill an order outside the      specified start time and end time ."
        }
      ],
      "MismatchedFulfillmentOfferAndConsiderationComponents()": [
        {
          "details": "Revert with an error when the initial offer item named by a      fulfillment component does not match the type, token, identifier,      or conduit preference of the initial consideration item."
        }
      ],
      "MissingFulfillmentComponentOnAggregation(uint8)": [
        {
          "details": "Revert with an error when a fulfillment is provided as part of an      call to fulfill available orders that does not declare at least one      component."
        }
      ],
      "MissingItemAmount()": [
        {
          "details": "Revert with an error when attempting to fulfill an order where an      item has an amount of zero."
        }
      ],
      "MissingOriginalConsiderationItems()": [
        {
          "details": "Revert with an error when an order is supplied for fulfillment with      a consideration array that is shorter than the original array."
        }
      ],
      "NoContract(address)": [
        {
          "details": "Revert with an error when an account being called as an assumed      contract does not have code and returns no data.",
          "params": {
            "account": "The account that should contain code."
          }
        }
      ],
      "NoReentrantCalls()": [
        {
          "details": "Revert with an error when a caller attempts to reenter a protected      function."
        }
      ],
      "NoSpecifiedOrdersAvailable()": [
        {
          "details": "Revert with an error when attempting to fulfill any number of      available orders when none are fulfillable."
        }
      ],
      "OfferAndConsiderationRequiredOnFulfillment()": [
        {
          "details": "Revert with an error when a fulfillment is provided that does not      declare at least one offer component and at least one consideration      component."
        }
      ],
      "OfferCriteriaResolverOutOfRange()": [
        {
          "details": "Revert with an error when providing a criteria resolver that refers      to an order with an offer item that has not been supplied."
        }
      ],
      "OrderAlreadyFilled(bytes32)": [
        {
          "details": "Revert with an error when attempting to fill an order that has      already been fully filled.",
          "params": {
            "orderHash": "The order hash on which a fill was attempted."
          }
        }
      ],
      "OrderCriteriaResolverOutOfRange()": [
        {
          "details": "Revert with an error when providing a criteria resolver that refers      to an order that has not been supplied."
        }
      ],
      "OrderIsCancelled(bytes32)": [
        {
          "details": "Revert with an error when attempting to fill an order that has been      cancelled.",
          "params": {
            "orderHash": "The hash of the cancelled order."
          }
        }
      ],
      "OrderPartiallyFilled(bytes32)": [
        {
          "details": "Revert with an error when attempting to fill a basic order that has      been partially filled.",
          "params": {
            "orderHash": "The hash of the partially used order."
          }
        }
      ],
      "PartialFillsNotEnabledForOrder()": [
        {
          "details": "Revert with an error when a partial fill is attempted on an order      that does not specify partial fill support in its order type."
        }
      ],
      "TokenTransferGenericFailure(address,address,address,uint256,uint256)": [
        {
          "details": "Revert with an error when an ERC20, ERC721, or ERC1155 token      transfer reverts.",
          "params": {
            "amount": "The amount for the attempted transfer.",
            "from": "The source of the attempted transfer.",
            "identifier": "The identifier for the attempted transfer.",
            "to": "The recipient of the attempted transfer.",
            "token": "The token for which the transfer was attempted."
          }
        }
      ],
      "UnresolvedConsiderationCriteria()": [
        {
          "details": "Revert with an error if a consideration item still has unresolved      criteria after applying all criteria resolvers."
        }
      ],
      "UnresolvedOfferCriteria()": [
        {
          "details": "Revert with an error if an offer item still has unresolved criteria      after applying all criteria resolvers."
        }
      ]
    },
    "kind": "dev",
    "methods": {
      "DOMAIN_SEPARATOR()": {
        "returns": {
          "_0": "The domain separator."
        }
      },
      "cancel((address,address,(uint8,address,uint256,uint256,uint256)[],(uint8,address,uint256,uint256,uint256,address)[],uint8,uint256,uint256,bytes32,uint256,address,uint256)[])": {
        "params": {
          "orders": "The orders to cancel."
        },
        "returns": {
          "_0": "A boolean indicating whether the supplied orders were         successfully cancelled."
        }
      },
      "constructor": {
        "params": {
          "legacyProxyRegistry": "A proxy registry that stores per-user                                    proxies that may optionally be used to                                    transfer approved ERC721+1155 tokens.",
          "legacyTokenTransferProxy": "A shared proxy contract that may                                    optionally be used to transfer                                    approved ERC20 tokens.",
          "requiredProxyImplementation": "The implementation that must be set on                                    each proxy in order to utilize it."
        }
      },
      "fulfillAdvancedOrder(((address,address,(uint8,address,uint256,uint256,uint256)[],(uint8,address,uint256,uint256,uint256,address)[],uint8,uint256,uint256,bytes32,uint256,address,uint256),uint120,uint120,bytes,bytes),(uint256,uint8,uint256,uint256,bytes32[])[],address)": {
        "params": {
          "advancedOrder": "The order to fulfill along with the fraction of                          the order to attempt to fill. Note that both the                          offerer and the fulfiller must first approve                          this contract (or their proxy if indicated by                          the order) to transfer any relevant tokens on                          their behalf and that contracts must implement                          `onERC1155Received` in order to receive ERC1155                          tokens as consideration. Also note that all                          offer and consideration components must have no                          remainder after multiplication of the respective                          amount with the supplied fraction in order for                          the partial fill to be considered valid.",
          "criteriaResolvers": "An array where each element contains a reference                          to a specific offer or consideration, a token                          identifier, and a proof that the supplied token                          identifier is contained in the merkle root held                          by the item in question's criteria element. Note                          that an empty criteria indicates that any                          (transferrable) token identifier on the token in                          question is valid and that no associated proof                          needs to be supplied.",
          "fulfillerConduit": "An address indicating what conduit, if any, to                          source the fulfiller's token approvals from. The                          null address signifies that no conduit should be                          used (and direct approvals set on Consideration)                          and `address(1)` signifies to utilize the legacy                          user proxy for the fulfiller."
        },
        "returns": {
          "_0": "A boolean indicating whether the order has been fulfilled."
        }
      },
      "fulfillAvailableAdvancedOrders(((address,address,(uint8,address,uint256,uint256,uint256)[],(uint8,address,uint256,uint256,uint256,address)[],uint8,uint256,uint256,bytes32,uint256,address,uint256),uint120,uint120,bytes,bytes)[],(uint256,uint8,uint256,uint256,bytes32[])[],(uint256,uint256)[][],(uint256,uint256)[][],address)": {
        "params": {
          "advancedOrders": "The orders to fulfill along with the                                  fraction of those orders to attempt to                                  fill. Note that both the offerer and the                                  fulfiller must first approve this                                  contract (or their proxy if indicated by                                  the order) to transfer any relevant                                  tokens on their behalf and that                                  contracts must implement                                  `onERC1155Received` in order to receive                                  ERC1155 tokens as consideration. Also                                  note that all offer and consideration                                  components must have no remainder after                                  multiplication of the respective amount                                  with the supplied fraction for an                                  order's partial fill amount to be                                  considered valid.",
          "considerationFulfillments": "An array of FulfillmentComponent arrays                                  indicating which consideration items to                                  attempt to aggregate when preparing                                  executions.",
          "criteriaResolvers": "An array where each element contains a                                  reference to a specific offer or                                  consideration, a token identifier, and a                                  proof that the supplied token identifier                                  is contained in the merkle root held by                                  the item in question's criteria element.                                  Note that an empty criteria indicates                                  that any (transferrable) token                                  identifier on the token in question is                                  valid and that no associated proof needs                                  to be supplied.",
          "fulfillerConduit": "An address indicating what conduit, if                                  any, to source the fulfiller's token                                  approvals from. The null address                                  signifies that no conduit should be used                                  (with direct token approvals set on                                  Consideration) and `address(1)`                                  signifies to utilize the legacy user                                  proxy for the fulfiller.",
          "offerFulfillments": "An array of FulfillmentComponent arrays                                  indicating which offer items to attempt                                  to aggregate when preparing executions."
        },
        "returns": {
          "availableOrders": "   An array of booleans indicating if each order                            with an index corresponding to the index of                            the returned boolean was fulfillable or not.",
          "batchExecutions": "   An array of elements indicating the sequence                            of batch transfers performed as part of                            matching the given orders.",
          "standardExecutions": "An array of elements indicating the sequence                            of non-batch transfers performed as part of                            matching the given orders."
        }
      },
      "fulfillBasicOrder((address,uint256,uint256,address,address,address,uint256,uint256,uint8,uint256,uint256,bytes32,uint256,address,address,uint256,(uint256,address)[],bytes))": {
        "params": {
          "parameters": "Additional information on the fulfilled order. Note                   that the offerer and the fulfiller must first approve                   this contract (or their chosen conduit if indicated)                   before any tokens can be transferred. Also note that                   contract recipients of ERC1155 consideration items must                   implement `onERC1155Received` in order to receive those                   items."
        },
        "returns": {
          "_0": "A boolean indicating whether the order has been fulfilled."
        }
      },
      "fulfillOrder(((address,address,(uint8,address,uint256,uint256,uint256)[],(uint8,address,uint256,uint256,uint256,address)[],uint8,uint256,uint256,bytes32,uint256,address,uint256),bytes),address)": {
        "params": {
          "fulfillerConduit": "An address indicating what conduit, if any, to                         source the fulfiller's token approvals from. The                         null address signifies that no conduit should be                         used (and direct approvals set on Consideration)                         and `address(1)` signifies to utilize the legacy                         user proxy for the fulfiller.",
          "order": "The order to fulfill. Note that both the offerer                         and the fulfiller must first approve this                         contract (or the supplied conduit if indicated)                         to transfer any relevant tokens on their behalf                         and that contracts must implement                         `onERC1155Received` in order to receive ERC1155                         tokens as consideration."
        },
        "returns": {
          "_0": "A boolean indicating whether the order has been fulfilled."
        }
      },
      "getNonce(address)": {
        "params": {
          "offerer": "The offerer in question."
        },
        "returns": {
          "_0": "The current nonce."
        }
      },
      "getOrderHash((address,address,(uint8,address,uint256,uint256,uint256)[],(uint8,address,uint256,uint256,uint256,address)[],uint8,uint256,uint256,bytes32,uint256,address,uint256))": {
        "params": {
          "order": "The components of the order."
        },
        "returns": {
          "_0": "The order hash."
        }
      },
      "getOrderStatus(bytes32)": {
        "params": {
          "orderHash": "The order hash in question."
        },
        "returns": {
          "isCancelled": "A boolean indicating whether the order in question                     has been cancelled.",
          "isValidated": "A boolean indicating whether the order in question                     has been validated (i.e. previously approved or                     partially filled).",
          "totalFilled": "The total portion of the order that has been filled                     (i.e. the \"numerator\").",
          "totalSize": "  The total size of the order that is either filled or                     unfilled (i.e. the \"denominator\")."
        }
      },
      "incrementNonce()": {
        "returns": {
          "newNonce": "The new nonce."
        }
      },
      "matchAdvancedOrders(((address,address,(uint8,address,uint256,uint256,uint256)[],(uint8,address,uint256,uint256,uint256,address)[],uint8,uint256,uint256,bytes32,uint256,address,uint256),uint120,uint120,bytes,bytes)[],(uint256,uint8,uint256,uint256,bytes32[])[],((uint256,uint256)[],(uint256,uint256)[])[])": {
        "params": {
          "advancedOrders": "The advanced orders to match. Note that both the                          offerer and fulfiller on each order must first                          approve this contract (or their proxy if                          indicated by the order) to transfer any relevant                          tokens on their behalf and each consideration                          recipient must implement `onERC1155Received` in                          order toreceive ERC1155 tokens. Also note that                          the offer and consideration components for each                          order must have no remainder after multiplying                          the respective amount with the supplied fraction                          in order for the group of partial fills to be                          considered valid.",
          "criteriaResolvers": "An array where each element contains a reference                          to a specific order as well as that order's                          offer or consideration, a token identifier, and                          a proof that the supplied token identifier is                          contained in the order's merkle root. Note that                          an empty root indicates that any (transferrable)                          token identifier is valid and that no associated                          proof needs to be supplied.",
          "fulfillments": "An array of elements allocating offer components                          to consideration components. Note that each                          consideration component must be fully met in                          order for the match operation to be valid."
        },
        "returns": {
          "batchExecutions": "   An array of elements indicating the sequence                            of batch transfers performed as part of                            matching the given orders.",
          "standardExecutions": "An array of elements indicating the sequence                            of non-batch transfers performed as part of                            matching the given orders."
        }
      },
      "matchOrders(((address,address,(uint8,address,uint256,uint256,uint256)[],(uint8,address,uint256,uint256,uint256,address)[],uint8,uint256,uint256,bytes32,uint256,address,uint256),bytes)[],((uint256,uint256)[],(uint256,uint256)[])[])": {
        "params": {
          "fulfillments": "An array of elements allocating offer components                          to consideration components. Note that each                          consideration component must be fully met in                          order for the match operation to be valid.",
          "orders": "The orders to match. Note that both the offerer                          and fulfiller on each order must first approve                          this contract (or their proxy if indicated by                          the order) to transfer any relevant tokens on                          their behalf and each consideration recipient                          must implement `onERC1155Received` in order to                          receive ERC1155 tokens."
        },
        "returns": {
          "batchExecutions": "   An array of elements indicating the sequence                            of batch transfers performed as part of                            matching the given orders.",
          "standardExecutions": "An array of elements indicating the sequence                            of non-batch transfers performed as part of                            matching the given orders."
        }
      },
      "name()": {
        "returns": {
          "_0": "The name of this contract."
        }
      },
      "validate(((address,address,(uint8,address,uint256,uint256,uint256)[],(uint8,address,uint256,uint256,uint256,address)[],uint8,uint256,uint256,bytes32,uint256,address,uint256),bytes)[])": {
        "params": {
          "orders": "The orders to validate."
        },
        "returns": {
          "_0": "A boolean indicating whether the supplied orders were         successfully validated."
        }
      },
      "version()": {
        "returns": {
          "_0": "The version of this contract."
        }
      }
    },
    "title": "Consideration",
    "version": 1
  },
  "userdoc": {
    "kind": "user",
    "methods": {
      "DOMAIN_SEPARATOR()": {
        "notice": "Retrieve the domain separator, used for signing and verifying signed orders via EIP-712."
      },
      "cancel((address,address,(uint8,address,uint256,uint256,uint256)[],(uint8,address,uint256,uint256,uint256,address)[],uint8,uint256,uint256,bytes32,uint256,address,uint256)[])": {
        "notice": "Cancel an arbitrary number of orders. Note that only the offerer or the zone of a given order may cancel it."
      },
      "constructor": {
        "notice": "Derive and set hashes, reference chainId, and associated domain         separator during deployment."
      },
      "fulfillAdvancedOrder(((address,address,(uint8,address,uint256,uint256,uint256)[],(uint8,address,uint256,uint256,uint256,address)[],uint8,uint256,uint256,bytes32,uint256,address,uint256),uint120,uint120,bytes,bytes),(uint256,uint8,uint256,uint256,bytes32[])[],address)": {
        "notice": "Fill an order, fully or partially, with an arbitrary number of         items for offer and consideration alongside criteria resolvers         containing specific token identifiers and associated proofs."
      },
      "fulfillAvailableAdvancedOrders(((address,address,(uint8,address,uint256,uint256,uint256)[],(uint8,address,uint256,uint256,uint256,address)[],uint8,uint256,uint256,bytes32,uint256,address,uint256),uint120,uint120,bytes,bytes)[],(uint256,uint8,uint256,uint256,bytes32[])[],(uint256,uint256)[][],(uint256,uint256)[][],address)": {
        "notice": "Attempt to fill a group of orders, fully or partially, with an         arbitrary number of items for offer and consideration per order         alongside criteria resolvers containing specific token         identifiers and associated proofs. Any order that is not         currently active, has already been fully filled, or has been         cancelled will be omitted. Remaining offer and consideration         items will then be aggregated where possible as indicated by the         supplied offer and consideration component arrays and aggregated         items will be transferred to the fulfiller or to each intended         recipient, respectively. Note that a failing item transfer or an         issue with order formatting will cause the entire batch to fail."
      },
      "fulfillBasicOrder((address,uint256,uint256,address,address,address,uint256,uint256,uint8,uint256,uint256,bytes32,uint256,address,address,uint256,(uint256,address)[],bytes))": {
        "notice": "Fulfill an order offering an ERC20, ERC721, or ERC1155 item by         supplying Ether (or other native tokens), ERC20 tokens, an ERC721         item, or an ERC1155 item as consideration. Six permutations are         supported: Native token to ERC721, Native token to ERC1155, ERC20         to ERC721, ERC20 to ERC1155, ERC721 to ERC20, and ERC1155 to         ERC20 (with native tokens supplied as msg.value). For an order to         be eligible for fulfillment via this method, it must contain a         single offer item (though that item may have a greater amount if         the item is not an ERC721). An arbitrary number of \"additional         recipients\" may also be supplied which will each receive native         tokens or ERC20 items from the fulfiller as consideration. Refer         to the documentation for a more comprehensive summary of how to         utilize with this method and what orders are compatible with it."
      },
      "fulfillOrder(((address,address,(uint8,address,uint256,uint256,uint256)[],(uint8,address,uint256,uint256,uint256,address)[],uint8,uint256,uint256,bytes32,uint256,address,uint256),bytes),address)": {
        "notice": "Fulfill an order with an arbitrary number of items for offer and         consideration. Note that this function does not support         criteria-based orders or partial filling of orders (though         filling the remainder of a partially-filled order is supported)."
      },
      "getNonce(address)": {
        "notice": "Retrieve the current nonce for a given offerer."
      },
      "getOrderHash((address,address,(uint8,address,uint256,uint256,uint256)[],(uint8,address,uint256,uint256,uint256,address)[],uint8,uint256,uint256,bytes32,uint256,address,uint256))": {
        "notice": "Retrieve the order hash for a given order."
      },
      "getOrderStatus(bytes32)": {
        "notice": "Retrieve the status of a given order by hash, including whether         the order has been cancelled or validated and the fraction of the         order that has been filled."
      },
      "incrementNonce()": {
        "notice": "Cancel all orders from a given offerer with a given zone in bulk         by incrementing a nonce. Note that only the offerer may increment         the nonce."
      },
      "matchAdvancedOrders(((address,address,(uint8,address,uint256,uint256,uint256)[],(uint8,address,uint256,uint256,uint256,address)[],uint8,uint256,uint256,bytes32,uint256,address,uint256),uint120,uint120,bytes,bytes)[],(uint256,uint8,uint256,uint256,bytes32[])[],((uint256,uint256)[],(uint256,uint256)[])[])": {
        "notice": "Match an arbitrary number of full or partial orders, each with an         arbitrary number of items for offer and consideration, supplying         criteria resolvers containing specific token identifiers and         associated proofs as well as fulfillments allocating offer         components to consideration components."
      },
      "matchOrders(((address,address,(uint8,address,uint256,uint256,uint256)[],(uint8,address,uint256,uint256,uint256,address)[],uint8,uint256,uint256,bytes32,uint256,address,uint256),bytes)[],((uint256,uint256)[],(uint256,uint256)[])[])": {
        "notice": "Match an arbitrary number of orders, each with an arbitrary         number of items for offer and consideration along with a set of         fulfillments allocating offer components to consideration         components. Note that this function does not support         criteria-based or partial filling of orders (though filling the         remainder of a partially-filled order is supported)."
      },
      "name()": {
        "notice": "Retrieve the name of this contract."
      },
      "validate(((address,address,(uint8,address,uint256,uint256,uint256)[],(uint8,address,uint256,uint256,uint256,address)[],uint8,uint256,uint256,bytes32,uint256,address,uint256),bytes)[])": {
        "notice": "Validate an arbitrary number of orders, thereby registering them         as valid and allowing the fulfiller to skip verification. Note         that anyone can validate a signed order but only the offerer can         validate an order without supplying a signature."
      },
      "version()": {
        "notice": "Retrieve the version of this contract."
      }
    },
    "notice": "Consideration is a generalized ETH/ERC20/ERC721/ERC1155 marketplace.         It minimizes external calls to the greatest extent possible and         provides lightweight methods for common routes as well as more         flexible methods for composing advanced orders or groups of orders.         Each order contains an arbitrary number of items that may be spent         (the \"offer\") along with an arbitrary number of items that must be         received back by the indicated recipients (the \"consideration\").",
    "version": 1
  },
  "storageLayout": {
    "storage": [
      {
        "astId": 3282,
        "contract": "contracts/Consideration.sol:Consideration",
        "label": "_reentrancyGuard",
        "offset": 0,
        "slot": "0",
        "type": "t_uint256"
      },
      {
        "astId": 3287,
        "contract": "contracts/Consideration.sol:Consideration",
        "label": "_orderStatus",
        "offset": 0,
        "slot": "1",
        "type": "t_mapping(t_bytes32,t_struct(OrderStatus)8932_storage)"
      },
      {
        "astId": 3291,
        "contract": "contracts/Consideration.sol:Consideration",
        "label": "_nonces",
        "offset": 0,
        "slot": "2",
        "type": "t_mapping(t_address,t_uint256)"
      }
    ],
    "types": {
      "t_address": {
        "encoding": "inplace",
        "label": "address",
        "numberOfBytes": "20"
      },
      "t_bool": {
        "encoding": "inplace",
        "label": "bool",
        "numberOfBytes": "1"
      },
      "t_bytes32": {
        "encoding": "inplace",
        "label": "bytes32",
        "numberOfBytes": "32"
      },
      "t_mapping(t_address,t_uint256)": {
        "encoding": "mapping",
        "key": "t_address",
        "label": "mapping(address => uint256)",
        "numberOfBytes": "32",
        "value": "t_uint256"
      },
      "t_mapping(t_bytes32,t_struct(OrderStatus)8932_storage)": {
        "encoding": "mapping",
        "key": "t_bytes32",
        "label": "mapping(bytes32 => struct OrderStatus)",
        "numberOfBytes": "32",
        "value": "t_struct(OrderStatus)8932_storage"
      },
      "t_struct(OrderStatus)8932_storage": {
        "encoding": "inplace",
        "label": "struct OrderStatus",
        "members": [
          {
            "astId": 8925,
            "contract": "contracts/Consideration.sol:Consideration",
            "label": "isValidated",
            "offset": 0,
            "slot": "0",
            "type": "t_bool"
          },
          {
            "astId": 8927,
            "contract": "contracts/Consideration.sol:Consideration",
            "label": "isCancelled",
            "offset": 1,
            "slot": "0",
            "type": "t_bool"
          },
          {
            "astId": 8929,
            "contract": "contracts/Consideration.sol:Consideration",
            "label": "numerator",
            "offset": 2,
            "slot": "0",
            "type": "t_uint120"
          },
          {
            "astId": 8931,
            "contract": "contracts/Consideration.sol:Consideration",
            "label": "denominator",
            "offset": 17,
            "slot": "0",
            "type": "t_uint120"
          }
        ],
        "numberOfBytes": "32"
      },
      "t_uint120": {
        "encoding": "inplace",
        "label": "uint120",
        "numberOfBytes": "15"
      },
      "t_uint256": {
        "encoding": "inplace",
        "label": "uint256",
        "numberOfBytes": "32"
      }
    }
  }
}