{
  "abi": [
    {
      "inputs": [],
      "stateMutability": "nonpayable",
      "type": "constructor"
    },
    {
      "inputs": [
        {
          "internalType": "address",
          "name": "token",
          "type": "address"
        },
        {
          "internalType": "address",
          "name": "from",
          "type": "address"
        },
        {
          "internalType": "address",
          "name": "to",
          "type": "address"
        },
        {
          "internalType": "uint256",
          "name": "amount",
          "type": "uint256"
        }
      ],
      "name": "BadReturnValueFromERC20OnTransfer",
      "type": "error"
    },
    {
      "inputs": [],
      "name": "ChannelClosed",
      "type": "error"
    },
    {
      "inputs": [
        {
          "internalType": "address",
          "name": "token",
          "type": "address"
        },
        {
          "internalType": "address",
          "name": "from",
          "type": "address"
        },
        {
          "internalType": "address",
          "name": "to",
          "type": "address"
        },
        {
          "internalType": "uint256[]",
          "name": "identifiers",
          "type": "uint256[]"
        },
        {
          "internalType": "uint256[]",
          "name": "amounts",
          "type": "uint256[]"
        }
      ],
      "name": "ERC1155BatchTransferGenericFailure",
      "type": "error"
    },
    {
      "inputs": [],
      "name": "InvalidController",
      "type": "error"
    },
    {
      "inputs": [],
      "name": "InvalidERC721TransferAmount",
      "type": "error"
    },
    {
      "inputs": [],
      "name": "InvalidItemType",
      "type": "error"
    },
    {
      "inputs": [
        {
          "internalType": "address",
          "name": "account",
          "type": "address"
        }
      ],
      "name": "NoContract",
      "type": "error"
    },
    {
      "inputs": [
        {
          "internalType": "address",
          "name": "token",
          "type": "address"
        },
        {
          "internalType": "address",
          "name": "from",
          "type": "address"
        },
        {
          "internalType": "address",
          "name": "to",
          "type": "address"
        },
        {
          "internalType": "uint256",
          "name": "identifier",
          "type": "uint256"
        },
        {
          "internalType": "uint256",
          "name": "amount",
          "type": "uint256"
        }
      ],
      "name": "TokenTransferGenericFailure",
      "type": "error"
    },
    {
      "anonymous": false,
      "inputs": [
        {
          "indexed": false,
          "internalType": "address",
          "name": "channel",
          "type": "address"
        },
        {
          "indexed": false,
          "internalType": "bool",
          "name": "open",
          "type": "bool"
        }
      ],
      "name": "ChannelUpdated",
      "type": "event"
    },
    {
      "inputs": [
        {
          "components": [
            {
              "internalType": "enum ConduitItemType",
              "name": "itemType",
              "type": "uint8"
            },
            {
              "internalType": "address",
              "name": "token",
              "type": "address"
            },
            {
              "internalType": "address",
              "name": "from",
              "type": "address"
            },
            {
              "internalType": "address",
              "name": "to",
              "type": "address"
            },
            {
              "internalType": "uint256",
              "name": "identifier",
              "type": "uint256"
            },
            {
              "internalType": "uint256",
              "name": "amount",
              "type": "uint256"
            }
          ],
          "internalType": "struct ConduitTransfer[]",
          "name": "transfers",
          "type": "tuple[]"
        }
      ],
      "name": "execute",
      "outputs": [
        {
          "internalType": "bytes4",
          "name": "magicValue",
          "type": "bytes4"
        }
      ],
      "stateMutability": "nonpayable",
      "type": "function"
    },
    {
      "inputs": [
        {
          "components": [
            {
              "internalType": "enum ConduitItemType",
              "name": "itemType",
              "type": "uint8"
            },
            {
              "internalType": "address",
              "name": "token",
              "type": "address"
            },
            {
              "internalType": "address",
              "name": "from",
              "type": "address"
            },
            {
              "internalType": "address",
              "name": "to",
              "type": "address"
            },
            {
              "internalType": "uint256",
              "name": "identifier",
              "type": "uint256"
            },
            {
              "internalType": "uint256",
              "name": "amount",
              "type": "uint256"
            }
          ],
          "internalType": "struct ConduitTransfer[]",
          "name": "standardTransfers",
          "type": "tuple[]"
        },
        {
          "components": [
            {
              "internalType": "address",
              "name": "token",
              "type": "address"
            },
            {
              "internalType": "address",
              "name": "from",
              "type": "address"
            },
            {
              "internalType": "address",
              "name": "to",
              "type": "address"
            },
            {
              "internalType": "uint256[]",
              "name": "ids",
              "type": "uint256[]"
            },
            {
              "internalType": "uint256[]",
              "name": "amounts",
              "type": "uint256[]"
            }
          ],
          "internalType": "struct ConduitBatch1155Transfer[]",
          "name": "batchTransfers",
          "type": "tuple[]"
        }
      ],
      "name": "executeWithBatch1155",
      "outputs": [
        {
          "internalType": "bytes4",
          "name": "magicValue",
          "type": "bytes4"
        }
      ],
      "stateMutability": "nonpayable",
      "type": "function"
    },
    {
      "inputs": [
        {
          "internalType": "address",
          "name": "channel",
          "type": "address"
        },
        {
          "internalType": "bool",
          "name": "isOpen",
          "type": "bool"
        }
      ],
      "name": "updateChannel",
      "outputs": [],
      "stateMutability": "nonpayable",
      "type": "function"
    }
  ],
  "bytecode": {
    "object": "0x60a060405234801561001057600080fd5b5033606081901b608052610bf161003260003960006102040152610bf16000f3fe608060405234801561001057600080fd5b50600436106100415760003560e01c80634ce34aa214610046578063899e104c14610076578063c4e8fcb514610089575b600080fd5b610059610054366004610903565b61009e565b6040516001600160e01b0319909116815260200160405180910390f35b610059610084366004610945565b610122565b61009c6100973660046108cc565b6101f9565b005b3360009081526020819052604081205460ff166100ce57604051636821b7df60e01b815260040160405180910390fd5b8160005b8181101561011157368585838181106100ed576100ed610b97565b905060c0020190506100fe816102a3565b508061010981610b58565b9150506100d2565b50632671a55160e11b949350505050565b3360009081526020819052604081205460ff1661015257604051636821b7df60e01b815260040160405180910390fd5b8360005b81811015610195573687878381811061017157610171610b97565b905060c002019050610182816102a3565b508061018d81610b58565b915050610156565b508260005b818110156101e557368686838181106101b5576101b5610b97565b90506020028101906101c79190610b38565b90506101d281610412565b50806101dd81610b58565b91505061019a565b50632671a55160e11b979650505050505050565b336001600160a01b037f00000000000000000000000000000000000000000000000000000000000000001614610242576040516336abb4df60e11b815260040160405180910390fd5b6001600160a01b03821660008181526020818152604091829020805460ff19168515159081179091558251938452908301527fae63067d43ac07563b7eb8db6595635fc77f1578a2a5ea06ba91b63e2afa37e2910160405180910390a15050565b60016102b260208301836109fc565b60038111156102c3576102c3610b81565b1415610309576103066102dc60408301602084016108aa565b6102ec60608401604085016108aa565b6102fc60808501606086016108aa565b8460a001356104ee565b50565b600261031860208301836109fc565b600381111561032957610329610b81565b1415610391578060a001356001146103545760405163efcc00b160e01b815260040160405180910390fd5b61030661036760408301602084016108aa565b61037760608401604085016108aa565b61038760808501606086016108aa565b846080013561068a565b60036103a060208301836109fc565b60038111156103b1576103b1610b81565b14156103f9576103066103ca60408301602084016108aa565b6103da60608401604085016108aa565b6103ea60808501606086016108aa565b84608001358560a00135610723565b604051631e4cbc7f60e21b815260040160405180910390fd5b600061042160208301836108aa565b9050600061043560408401602085016108aa565b9050600061044960608501604086016108aa565b905036600061045b6060870187610aee565b90925090503660006104706080890189610aee565b915091506104e487878787878080602002602001604051908101604052809392919081815260200183836020028082843760009201919091525050604080516020808b0282810182019093528a82529093508a9250899182918501908490808284376000920191909152506107dd92505050565b5050505050505050565b6001600160a01b0384163b61052657604051632f8aeb3960e11b81526001600160a01b03851660048201526024015b60405180910390fd5b604080516001600160a01b0385811660248301528481166044830152606480830185905283518084039091018152608490920183526020820180516001600160e01b03166323b872dd60e01b179052915160009283929088169161058a9190610a58565b6000604051808303816000865af19150503d80600081146105c7576040519150601f19603f3d011682016040523d82523d6000602084013e6105cc565b606091505b5091509150816106185760405163f486bc8760e01b81526001600160a01b038088166004830152808716602483015285166044820152600060648201526084810184905260a40161051d565b80511580159061062a57506020815110155b15610682578080602001905181019061064391906109df565b61068257604051639889192360e01b81526001600160a01b0380881660048301528087166024830152851660448201526064810184905260840161051d565b505050505050565b6001600160a01b0384163b6106bd57604051632f8aeb3960e11b81526001600160a01b038516600482015260240161051d565b6040516323b872dd60e01b81526001600160a01b0384811660048301528381166024830152604482018390528516906323b872dd90606401600060405180830381600087803b15801561070f57600080fd5b505af11580156104e4573d6000803e3d6000fd5b6001600160a01b0385163b61075657604051632f8aeb3960e11b81526001600160a01b038616600482015260240161051d565b604051637921219560e11b81526001600160a01b0385811660048301528481166024830152604482018490526064820183905260a06084830152600060a483015286169063f242432a9060c4015b600060405180830381600087803b1580156107be57600080fd5b505af11580156107d2573d6000803e3d6000fd5b505050505050505050565b6001600160a01b0385163b61081057604051632f8aeb3960e11b81526001600160a01b038616600482015260240161051d565b604051631759616b60e11b81526001600160a01b03861690632eb2c2d6906107a4908790879087908790600401610a93565b80356001600160a01b038116811461085957600080fd5b919050565b60008083601f84011261087057600080fd5b50813567ffffffffffffffff81111561088857600080fd5b60208301915083602060c0830285010111156108a357600080fd5b9250929050565b6000602082840312156108bc57600080fd5b6108c582610842565b9392505050565b600080604083850312156108df57600080fd5b6108e883610842565b915060208301356108f881610bad565b809150509250929050565b6000806020838503121561091657600080fd5b823567ffffffffffffffff81111561092d57600080fd5b6109398582860161085e565b90969095509350505050565b6000806000806040858703121561095b57600080fd5b843567ffffffffffffffff8082111561097357600080fd5b61097f8883890161085e565b9096509450602087013591508082111561099857600080fd5b818701915087601f8301126109ac57600080fd5b8135818111156109bb57600080fd5b8860208260051b85010111156109d057600080fd5b95989497505060200194505050565b6000602082840312156109f157600080fd5b81516108c581610bad565b600060208284031215610a0e57600080fd5b8135600481106108c557600080fd5b600081518084526020808501945080840160005b83811015610a4d57815187529582019590820190600101610a31565b509495945050505050565b6000825160005b81811015610a795760208186018101518583015201610a5f565b81811115610a88576000828501525b509190910192915050565b6001600160a01b0385811682528416602082015260a060408201819052600090610abf90830185610a1d565b8281036060840152610ad18185610a1d565b838103608090940193909352505060008152602001949350505050565b6000808335601e19843603018112610b0557600080fd5b83018035915067ffffffffffffffff821115610b2057600080fd5b6020019150600581901b36038213156108a357600080fd5b60008235609e19833603018112610b4e57600080fd5b9190910192915050565b6000600019821415610b7a57634e487b7160e01b600052601160045260246000fd5b5060010190565b634e487b7160e01b600052602160045260246000fd5b634e487b7160e01b600052603260045260246000fd5b801515811461030657600080fdfea2646970667358221220422a7d2ac9b94ad911e0fc9ca08443b8d513fac8e6a8fc50d91b23c1515838de64736f6c63430008070033",
    "linkReferences": {}
  }
}