{
  "abi": [
    {
      "constant": true,
      "inputs": [],
      "name": "proxyOwner",
      "outputs": [
        {
          "name": "",
          "type": "address"
        }
      ],
      "payable": false,
      "stateMutability": "view",
      "type": "function"
    },
    {
      "constant": false,
      "inputs": [
        {
          "name": "implementation",
          "type": "address"
        }
      ],
      "name": "upgradeTo",
      "outputs": [],
      "payable": false,
      "stateMutability": "nonpayable",
      "type": "function"
    },
    {
      "constant": true,
      "inputs": [],
      "name": "proxyType",
      "outputs": [
        {
          "name": "proxyTypeId",
          "type": "uint256"
        }
      ],
      "payable": false,
      "stateMutability": "pure",
      "type": "function"
    },
    {
      "constant": false,
      "inputs": [
        {
          "name": "implementation",
          "type": "address"
        },
        {
          "name": "data",
          "type": "bytes"
        }
      ],
      "name": "upgradeToAndCall",
      "outputs": [],
      "payable": true,
      "stateMutability": "payable",
      "type": "function"
    },
    {
      "constant": true,
      "inputs": [],
      "name": "implementation",
      "outputs": [
        {
          "name": "",
          "type": "address"
        }
      ],
      "payable": false,
      "stateMutability": "view",
      "type": "function"
    },
    {
      "constant": true,
      "inputs": [],
      "name": "upgradeabilityOwner",
      "outputs": [
        {
          "name": "",
          "type": "address"
        }
      ],
      "payable": false,
      "stateMutability": "view",
      "type": "function"
    },
    {
      "constant": false,
      "inputs": [
        {
          "name": "newOwner",
          "type": "address"
        }
      ],
      "name": "transferProxyOwnership",
      "outputs": [],
      "payable": false,
      "stateMutability": "nonpayable",
      "type": "function"
    },
    {
      "inputs": [
        {
          "name": "owner",
          "type": "address"
        },
        {
          "name": "initialImplementation",
          "type": "address"
        },
        {
          "name": "calldata",
          "type": "bytes"
        }
      ],
      "payable": false,
      "stateMutability": "nonpayable",
      "type": "constructor"
    },
    {
      "payable": true,
      "stateMutability": "payable",
      "type": "fallback"
    },
    {
      "anonymous": false,
      "inputs": [
        {
          "indexed": false,
          "name": "previousOwner",
          "type": "address"
        },
        {
          "indexed": false,
          "name": "newOwner",
          "type": "address"
        }
      ],
      "name": "ProxyOwnershipTransferred",
      "type": "event"
    },
    {
      "anonymous": false,
      "inputs": [
        {
          "indexed": true,
          "name": "implementation",
          "type": "address"
        }
      ],
      "name": "Upgraded",
      "type": "event"
    }
  ],
  "bytecode": {
    "object": "0x608060405234801561001057600080fd5b50604051610592380380610592833981016040908152815160208084015192840151919391909101906100489084906100df811b901c565b6100578261010160201b60201c565b81600160a060020a03168160405180828051906020019080838360005b8381101561008c578181015183820152602001610074565b50505050905090810190601f1680156100b95780820380516001836020036101000a031916815260200191505b50915050600060405180830381855af491505015156100d757600080fd5b505050610164565b60018054600160a060020a031916600160a060020a0392909216919091179055565b600054600160a060020a038281169116141561011c57600080fd5b60008054600160a060020a031916600160a060020a038316908117825560405190917fbc7cd75a20ee27fd9adebab32041f755214dbc6bffa90cc0225b39da2e5c2d3b91a250565b61041f806101736000396000f3006080604052600436106100665760003560e01c63ffffffff168063025313a2146100ac5780633659cfe6146100dd5780634555d5c9146101005780634f1ef286146101275780635c60da1b146101815780636fde820214610196578063f1739cae146101ab575b60006100706101cc565b9050600160a060020a038116151561008757600080fd5b60405136600082376000803683855af43d806000843e8180156100a8578184f35b8184fd5b3480156100b857600080fd5b506100c16101db565b60408051600160a060020a039092168252519081900360200190f35b3480156100e957600080fd5b506100fe600160a060020a03600435166101ea565b005b34801561010c57600080fd5b50610115610212565b60408051918252519081900360200190f35b60408051602060046024803582810135601f81018590048502860185019096528585526100fe958335600160a060020a03169536956044949193909101919081908401838280828437509497506102179650505050505050565b34801561018d57600080fd5b506100c16101cc565b3480156101a257600080fd5b506100c16102c0565b3480156101b757600080fd5b506100fe600160a060020a03600435166102cf565b600054600160a060020a031690565b60006101e56102c0565b905090565b6101f26101db565b600160a060020a0316331461020657600080fd5b61020f81610354565b50565b600290565b61021f6101db565b600160a060020a0316331461023357600080fd5b61023c826101ea565b30600160a060020a03168160405180828051906020019080838360005b83811015610271578181015183820152602001610259565b50505050905090810190601f16801561029e5780820380516001836020036101000a031916815260200191505b50915050600060405180830381855af491505015156102bc57600080fd5b5050565b600154600160a060020a031690565b6102d76101db565b600160a060020a031633146102eb57600080fd5b600160a060020a038116151561030057600080fd5b7f5a3e66efaa1e445ebd894728a69d6959842ea1e97bd79b892797106e270efcd96103296101db565b60408051600160a060020a03928316815291841660208301528051918290030190a161020f816103c4565b600054600160a060020a038281169116141561036f57600080fd5b6000805473ffffffffffffffffffffffffffffffffffffffff1916600160a060020a038316908117825560405190917fbc7cd75a20ee27fd9adebab32041f755214dbc6bffa90cc0225b39da2e5c2d3b91a250565b6001805473ffffffffffffffffffffffffffffffffffffffff1916600160a060020a03929092169190911790555600a165627a7a723058200ce055aa63665ea84dbca96aaffa6f2e20fc7331af67b1098c61fa33562b5d070029",
    "linkReferences": {}
  }
}