{
  "abi": [
    {
      "inputs": [],
      "stateMutability": "nonpayable",
      "type": "constructor"
    },
    {
      "inputs": [
        {
          "internalType": "address",
          "name": "conduit",
          "type": "address"
        }
      ],
      "name": "CallerIsNotNewPotentialOwner",
      "type": "error"
    },
    {
      "inputs": [
        {
          "internalType": "address",
          "name": "conduit",
          "type": "address"
        }
      ],
      "name": "CallerIsNotOwner",
      "type": "error"
    },
    {
      "inputs": [
        {
          "internalType": "address",
          "name": "conduit",
          "type": "address"
        }
      ],
      "name": "ChannelOutOfRange",
      "type": "error"
    },
    {
      "inputs": [
        {
          "internalType": "address",
          "name": "conduit",
          "type": "address"
        }
      ],
      "name": "ConduitAlreadyExists",
      "type": "error"
    },
    {
      "inputs": [],
      "name": "InvalidCreator",
      "type": "error"
    },
    {
      "inputs": [
        {
          "internalType": "address",
          "name": "conduit",
          "type": "address"
        }
      ],
      "name": "NewPotentialOwnerIsZeroAddress",
      "type": "error"
    },
    {
      "inputs": [],
      "name": "NoConduit",
      "type": "error"
    },
    {
      "anonymous": false,
      "inputs": [
        {
          "indexed": false,
          "internalType": "address",
          "name": "conduit",
          "type": "address"
        },
        {
          "indexed": false,
          "internalType": "bytes32",
          "name": "conduitKey",
          "type": "bytes32"
        }
      ],
      "name": "NewConduit",
      "type": "event"
    },
    {
      "anonymous": false,
      "inputs": [
        {
          "indexed": true,
          "internalType": "address",
          "name": "conduit",
          "type": "address"
        },
        {
          "indexed": true,
          "internalType": "address",
          "name": "previousOwner",
          "type": "address"
        },
        {
          "indexed": true,
          "internalType": "address",
          "name": "newOwner",
          "type": "address"
        }
      ],
      "name": "OwnershipTransferred",
      "type": "event"
    },
    {
      "anonymous": false,
      "inputs": [
        {
          "indexed": true,
          "internalType": "address",
          "name": "conduit",
          "type": "address"
        },
        {
          "indexed": true,
          "internalType": "address",
          "name": "previousOwner",
          "type": "address"
        },
        {
          "indexed": true,
          "internalType": "address",
          "name": "newOwner",
          "type": "address"
        }
      ],
      "name": "PotentialOwnerUpdated",
      "type": "event"
    },
    {
      "inputs": [
        {
          "internalType": "address",
          "name": "conduit",
          "type": "address"
        }
      ],
      "name": "acceptOwnership",
      "outputs": [],
      "stateMutability": "nonpayable",
      "type": "function"
    },
    {
      "inputs": [
        {
          "internalType": "address",
          "name": "conduit",
          "type": "address"
        }
      ],
      "name": "cancelOwnershipTransfer",
      "outputs": [],
      "stateMutability": "nonpayable",
      "type": "function"
    },
    {
      "inputs": [
        {
          "internalType": "bytes32",
          "name": "conduitKey",
          "type": "bytes32"
        },
        {
          "internalType": "address",
          "name": "initialOwner",
          "type": "address"
        }
      ],
      "name": "createConduit",
      "outputs": [
        {
          "internalType": "address",
          "name": "conduit",
          "type": "address"
        }
      ],
      "stateMutability": "nonpayable",
      "type": "function"
    },
    {
      "inputs": [
        {
          "internalType": "address",
          "name": "conduit",
          "type": "address"
        },
        {
          "internalType": "uint256",
          "name": "channelIndex",
          "type": "uint256"
        }
      ],
      "name": "getChannel",
      "outputs": [
        {
          "internalType": "address",
          "name": "channel",
          "type": "address"
        }
      ],
      "stateMutability": "view",
      "type": "function"
    },
    {
      "inputs": [
        {
          "internalType": "address",
          "name": "conduit",
          "type": "address"
        },
        {
          "internalType": "address",
          "name": "channel",
          "type": "address"
        }
      ],
      "name": "getChannelStatus",
      "outputs": [
        {
          "internalType": "bool",
          "name": "isOpen",
          "type": "bool"
        }
      ],
      "stateMutability": "view",
      "type": "function"
    },
    {
      "inputs": [
        {
          "internalType": "address",
          "name": "conduit",
          "type": "address"
        }
      ],
      "name": "getChannels",
      "outputs": [
        {
          "internalType": "address[]",
          "name": "channels",
          "type": "address[]"
        }
      ],
      "stateMutability": "view",
      "type": "function"
    },
    {
      "inputs": [
        {
          "internalType": "bytes32",
          "name": "conduitKey",
          "type": "bytes32"
        }
      ],
      "name": "getConduit",
      "outputs": [
        {
          "internalType": "address",
          "name": "conduit",
          "type": "address"
        },
        {
          "internalType": "bool",
          "name": "exists",
          "type": "bool"
        }
      ],
      "stateMutability": "view",
      "type": "function"
    },
    {
      "inputs": [],
      "name": "getConduitCodeHashes",
      "outputs": [
        {
          "internalType": "bytes32",
          "name": "creationCodeHash",
          "type": "bytes32"
        },
        {
          "internalType": "bytes32",
          "name": "runtimeCodeHash",
          "type": "bytes32"
        }
      ],
      "stateMutability": "view",
      "type": "function"
    },
    {
      "inputs": [
        {
          "internalType": "address",
          "name": "conduit",
          "type": "address"
        }
      ],
      "name": "getKey",
      "outputs": [
        {
          "internalType": "bytes32",
          "name": "conduitKey",
          "type": "bytes32"
        }
      ],
      "stateMutability": "view",
      "type": "function"
    },
    {
      "inputs": [
        {
          "internalType": "address",
          "name": "conduit",
          "type": "address"
        }
      ],
      "name": "getPotentialOwner",
      "outputs": [
        {
          "internalType": "address",
          "name": "potentialOwner",
          "type": "address"
        }
      ],
      "stateMutability": "view",
      "type": "function"
    },
    {
      "inputs": [
        {
          "internalType": "address",
          "name": "conduit",
          "type": "address"
        }
      ],
      "name": "getTotalChannels",
      "outputs": [
        {
          "internalType": "uint256",
          "name": "totalChannels",
          "type": "uint256"
        }
      ],
      "stateMutability": "view",
      "type": "function"
    },
    {
      "inputs": [
        {
          "internalType": "address",
          "name": "conduit",
          "type": "address"
        }
      ],
      "name": "ownerOf",
      "outputs": [
        {
          "internalType": "address",
          "name": "owner",
          "type": "address"
        }
      ],
      "stateMutability": "view",
      "type": "function"
    },
    {
      "inputs": [
        {
          "internalType": "address",
          "name": "conduit",
          "type": "address"
        },
        {
          "internalType": "address",
          "name": "newPotentialOwner",
          "type": "address"
        }
      ],
      "name": "transferOwnership",
      "outputs": [],
      "stateMutability": "nonpayable",
      "type": "function"
    },
    {
      "inputs": [
        {
          "internalType": "address",
          "name": "conduit",
          "type": "address"
        },
        {
          "internalType": "address",
          "name": "channel",
          "type": "address"
        },
        {
          "internalType": "bool",
          "name": "isOpen",
          "type": "bool"
        }
      ],
      "name": "updateChannel",
      "outputs": [],
      "stateMutability": "nonpayable",
      "type": "function"
    }
  ],
  "bytecode": {
    "object": "0x60c060405234801561001057600080fd5b5060405161002060208201610088565b6020820181038252601f19601f82011660405250805190602001206080818152505060008060001b60405161005490610088565b8190604051809103906000f5905080158015610074573d6000803e3d6000fd5b506001600160a01b03163f60a05250610095565b610c2380611b2783390190565b60805160a051611a516100d6600039600081816101480152818161082601526108d4015260008181610125015281816107ce015261088f0152611a516000f3fe608060405234801561001057600080fd5b50600436106100ea5760003560e01c80636d4354211161008c5780637b37e561116100665780637b37e561146102495780638b9e028b1461025c578063906c87cc1461027c57806393790f441461028f57600080fd5b80636d435421146101f15780636e9bfd9f14610204578063794593bc1461023657600080fd5b806314afd79e116100c857806314afd79e1461018757806333bc85721461019a5780634e3f9580146101bd57806351710e45146101de57600080fd5b8063027cc764146100ef5780630a96ad391461011f57806313ad9cab14610172575b600080fd5b6101026100fd366004610cbb565b6102a2565b6040516001600160a01b0390911681526020015b60405180910390f35b604080517f000000000000000000000000000000000000000000000000000000000000000081527f0000000000000000000000000000000000000000000000000000000000000000602082015201610116565b610185610180366004610c6f565b610343565b005b610102610195366004610c1a565b610553565b6101ad6101a8366004610c3c565b610580565b6040519015158152602001610116565b6101d06101cb366004610c1a565b6105bb565b604051908152602001610116565b6101856101ec366004610c1a565b6105e5565b6101856101ff366004610c3c565b610709565b610217610212366004610ce5565b6107c2565b604080516001600160a01b039093168352901515602083015201610116565b610102610244366004610cfe565b61084d565b610185610257366004610c1a565b610a06565b61026f61026a366004610c1a565b610a83565b6040516101169190610d5a565b61010261028a366004610c1a565b610b03565b6101d061029d366004610c1a565b610b30565b60006102ad83610b6c565b6001600160a01b0383166000908152602081905260409020600301548083106102f957604051636ceb340b60e01b81526001600160a01b03851660048201526024015b60405180910390fd5b6001600160a01b038416600090815260208190526040902060030180548490811061032657610326610de2565b6000918252602090912001546001600160a01b0316949350505050565b61034c83610ba5565b60405163c4e8fcb560e01b81526001600160a01b038381166004830152821515602483015284169063c4e8fcb590604401600060405180830381600087803b15801561039757600080fd5b505af11580156103ab573d6000803e3d6000fd5b505050506001600160a01b038381166000908152602081815260408083209386168352600484019091529020548015158380156103e6575080155b15610436576003830180546001810182556000828152602080822090920180546001600160a01b0319166001600160a01b038a16908117909155925492815260048601909152604090205561054b565b831580156104415750805b1561054b576000610453600184610da7565b600385015490915060009061046a90600190610da7565b90508181146104f857600085600301828154811061048a5761048a610de2565b6000918252602090912001546003870180546001600160a01b0390921692508291859081106104bb576104bb610de2565b600091825260208083209190910180546001600160a01b0319166001600160a01b0394851617905592909116815260048701909152604090208490555b8460030180548061050b5761050b610dcc565b60008281526020808220830160001990810180546001600160a01b03191690559092019092556001600160a01b0389168252600487019052604081205550505b505050505050565b600061055e82610b6c565b506001600160a01b039081166000908152602081905260409020600101541690565b600061058b83610b6c565b506001600160a01b0391821660009081526020818152604080832093909416825260049092019091522054151590565b60006105c682610b6c565b506001600160a01b031660009081526020819052604090206003015490565b6105ee81610b6c565b6001600160a01b03818116600090815260208190526040902060020154163314610636576040516388c3a11560e01b81526001600160a01b03821660048201526024016102f0565b6001600160a01b0381811660008181526020819052604080822060020154905191931691907f3a1bf61027579f05195a98c902eef26c8f46a5a095ba767024c9065dcfe0b7e0908490a46001600160a01b038082166000818152602081905260408082206002810180546001600160a01b031916905560010154905133949190911692917fc8894f26f396ce8c004245c8b7cd1b92103a6e4302fcbab883987149ac01b7ec91a46001600160a01b0316600090815260208190526040902060010180546001600160a01b03191633179055565b61071282610ba5565b6001600160a01b0381166107445760405163a388d26360e01b81526001600160a01b03831660048201526024016102f0565b6001600160a01b03828116600081815260208190526040808220600201549051848616949190911692917f3a1bf61027579f05195a98c902eef26c8f46a5a095ba767024c9065dcfe0b7e091a46001600160a01b03918216600090815260208190526040902060020180546001600160a01b03191691909216179055565b60008060ff60f81b30847f00000000000000000000000000000000000000000000000000000000000000006040516020016108009493929190610d21565b60408051601f198184030181529190528051602090910120936001600160a01b0385163f7f0000000000000000000000000000000000000000000000000000000000000000149350915050565b60006001600160a01b0383163314610878576040516332db94d160e21b815260040160405180910390fd5b6040516108b7906001600160f81b031990309086907f000000000000000000000000000000000000000000000000000000000000000090602001610d21565b6040516020818303038152906040528051906020012060001c90507f0000000000000000000000000000000000000000000000000000000000000000816001600160a01b03163f141561092857604051633194665960e11b81526001600160a01b03821660048201526024016102f0565b8260405161093590610bf6565b8190604051809103906000f5905080158015610955573d6000803e3d6000fd5b50506001600160a01b03818116600081815260208181526040918290206001810180546001600160a01b031916958816959095179094559286905580519182529181018590527f4397af6128d529b8ae0442f99db1296d5136062597a15bbc61c1b2a6431a7d15910160405180910390a16040516001600160a01b03808416916000918416907fc8894f26f396ce8c004245c8b7cd1b92103a6e4302fcbab883987149ac01b7ec908390a492915050565b610a0f81610ba5565b6001600160a01b0381811660008181526020819052604080822060020154905191931691907f3a1bf61027579f05195a98c902eef26c8f46a5a095ba767024c9065dcfe0b7e0908490a46001600160a01b0316600090815260208190526040902060020180546001600160a01b0319169055565b6060610a8e82610b6c565b6001600160a01b0382166000908152602081815260409182902060030180548351818402810184019094528084529091830182828015610af757602002820191906000526020600020905b81546001600160a01b03168152600190910190602001808311610ad9575b50505050509050919050565b6000610b0e82610b6c565b506001600160a01b039081166000908152602081905260409020600201541690565b6001600160a01b03811660009081526020819052604090205480610b67576040516304ca820960e41b815260040160405180910390fd5b919050565b6001600160a01b038116600090815260208190526040902054610ba2576040516304ca820960e41b815260040160405180910390fd5b50565b610bae81610b6c565b6001600160a01b03818116600090815260208190526040902060010154163314610ba25760405163d4ed9a1760e01b81526001600160a01b03821660048201526024016102f0565b610c2380610df983390190565b80356001600160a01b0381168114610b6757600080fd5b600060208284031215610c2c57600080fd5b610c3582610c03565b9392505050565b60008060408385031215610c4f57600080fd5b610c5883610c03565b9150610c6660208401610c03565b90509250929050565b600080600060608486031215610c8457600080fd5b610c8d84610c03565b9250610c9b60208501610c03565b915060408401358015158114610cb057600080fd5b809150509250925092565b60008060408385031215610cce57600080fd5b610cd783610c03565b946020939093013593505050565b600060208284031215610cf757600080fd5b5035919050565b60008060408385031215610d1157600080fd5b82359150610c6660208401610c03565b6001600160f81b031994909416845260609290921b6bffffffffffffffffffffffff191660018401526015830152603582015260550190565b6020808252825182820181905260009190848201906040850190845b81811015610d9b5783516001600160a01b031683529284019291840191600101610d76565b50909695505050505050565b600082821015610dc757634e487b7160e01b600052601160045260246000fd5b500390565b634e487b7160e01b600052603160045260246000fd5b634e487b7160e01b600052603260045260246000fdfe60a060405234801561001057600080fd5b5033606081901b608052610bf161003260003960006102040152610bf16000f3fe608060405234801561001057600080fd5b50600436106100415760003560e01c80634ce34aa214610046578063899e104c14610076578063c4e8fcb514610089575b600080fd5b610059610054366004610903565b61009e565b6040516001600160e01b0319909116815260200160405180910390f35b610059610084366004610945565b610122565b61009c6100973660046108cc565b6101f9565b005b3360009081526020819052604081205460ff166100ce57604051636821b7df60e01b815260040160405180910390fd5b8160005b8181101561011157368585838181106100ed576100ed610b97565b905060c0020190506100fe816102a3565b508061010981610b58565b9150506100d2565b50632671a55160e11b949350505050565b3360009081526020819052604081205460ff1661015257604051636821b7df60e01b815260040160405180910390fd5b8360005b81811015610195573687878381811061017157610171610b97565b905060c002019050610182816102a3565b508061018d81610b58565b915050610156565b508260005b818110156101e557368686838181106101b5576101b5610b97565b90506020028101906101c79190610b38565b90506101d281610412565b50806101dd81610b58565b91505061019a565b50632671a55160e11b979650505050505050565b336001600160a01b037f00000000000000000000000000000000000000000000000000000000000000001614610242576040516336abb4df60e11b815260040160405180910390fd5b6001600160a01b03821660008181526020818152604091829020805460ff19168515159081179091558251938452908301527fae63067d43ac07563b7eb8db6595635fc77f1578a2a5ea06ba91b63e2afa37e2910160405180910390a15050565b60016102b260208301836109fc565b60038111156102c3576102c3610b81565b1415610309576103066102dc60408301602084016108aa565b6102ec60608401604085016108aa565b6102fc60808501606086016108aa565b8460a001356104ee565b50565b600261031860208301836109fc565b600381111561032957610329610b81565b1415610391578060a001356001146103545760405163efcc00b160e01b815260040160405180910390fd5b61030661036760408301602084016108aa565b61037760608401604085016108aa565b61038760808501606086016108aa565b846080013561068a565b60036103a060208301836109fc565b60038111156103b1576103b1610b81565b14156103f9576103066103ca60408301602084016108aa565b6103da60608401604085016108aa565b6103ea60808501606086016108aa565b84608001358560a00135610723565b604051631e4cbc7f60e21b815260040160405180910390fd5b600061042160208301836108aa565b9050600061043560408401602085016108aa565b9050600061044960608501604086016108aa565b905036600061045b6060870187610aee565b90925090503660006104706080890189610aee565b915091506104e487878787878080602002602001604051908101604052809392919081815260200183836020028082843760009201919091525050604080516020808b0282810182019093528a82529093508a9250899182918501908490808284376000920191909152506107dd92505050565b5050505050505050565b6001600160a01b0384163b61052657604051632f8aeb3960e11b81526001600160a01b03851660048201526024015b60405180910390fd5b604080516001600160a01b0385811660248301528481166044830152606480830185905283518084039091018152608490920183526020820180516001600160e01b03166323b872dd60e01b179052915160009283929088169161058a9190610a58565b6000604051808303816000865af19150503d80600081146105c7576040519150601f19603f3d011682016040523d82523d6000602084013e6105cc565b606091505b5091509150816106185760405163f486bc8760e01b81526001600160a01b038088166004830152808716602483015285166044820152600060648201526084810184905260a40161051d565b80511580159061062a57506020815110155b15610682578080602001905181019061064391906109df565b61068257604051639889192360e01b81526001600160a01b0380881660048301528087166024830152851660448201526064810184905260840161051d565b505050505050565b6001600160a01b0384163b6106bd57604051632f8aeb3960e11b81526001600160a01b038516600482015260240161051d565b6040516323b872dd60e01b81526001600160a01b0384811660048301528381166024830152604482018390528516906323b872dd90606401600060405180830381600087803b15801561070f57600080fd5b505af11580156104e4573d6000803e3d6000fd5b6001600160a01b0385163b61075657604051632f8aeb3960e11b81526001600160a01b038616600482015260240161051d565b604051637921219560e11b81526001600160a01b0385811660048301528481166024830152604482018490526064820183905260a06084830152600060a483015286169063f242432a9060c4015b600060405180830381600087803b1580156107be57600080fd5b505af11580156107d2573d6000803e3d6000fd5b505050505050505050565b6001600160a01b0385163b61081057604051632f8aeb3960e11b81526001600160a01b038616600482015260240161051d565b604051631759616b60e11b81526001600160a01b03861690632eb2c2d6906107a4908790879087908790600401610a93565b80356001600160a01b038116811461085957600080fd5b919050565b60008083601f84011261087057600080fd5b50813567ffffffffffffffff81111561088857600080fd5b60208301915083602060c0830285010111156108a357600080fd5b9250929050565b6000602082840312156108bc57600080fd5b6108c582610842565b9392505050565b600080604083850312156108df57600080fd5b6108e883610842565b915060208301356108f881610bad565b809150509250929050565b6000806020838503121561091657600080fd5b823567ffffffffffffffff81111561092d57600080fd5b6109398582860161085e565b90969095509350505050565b6000806000806040858703121561095b57600080fd5b843567ffffffffffffffff8082111561097357600080fd5b61097f8883890161085e565b9096509450602087013591508082111561099857600080fd5b818701915087601f8301126109ac57600080fd5b8135818111156109bb57600080fd5b8860208260051b85010111156109d057600080fd5b95989497505060200194505050565b6000602082840312156109f157600080fd5b81516108c581610bad565b600060208284031215610a0e57600080fd5b8135600481106108c557600080fd5b600081518084526020808501945080840160005b83811015610a4d57815187529582019590820190600101610a31565b509495945050505050565b6000825160005b81811015610a795760208186018101518583015201610a5f565b81811115610a88576000828501525b509190910192915050565b6001600160a01b0385811682528416602082015260a060408201819052600090610abf90830185610a1d565b8281036060840152610ad18185610a1d565b838103608090940193909352505060008152602001949350505050565b6000808335601e19843603018112610b0557600080fd5b83018035915067ffffffffffffffff821115610b2057600080fd5b6020019150600581901b36038213156108a357600080fd5b60008235609e19833603018112610b4e57600080fd5b9190910192915050565b6000600019821415610b7a57634e487b7160e01b600052601160045260246000fd5b5060010190565b634e487b7160e01b600052602160045260246000fd5b634e487b7160e01b600052603260045260246000fd5b801515811461030657600080fdfea2646970667358221220422a7d2ac9b94ad911e0fc9ca08443b8d513fac8e6a8fc50d91b23c1515838de64736f6c63430008070033a264697066735822122009b90dfe92c3d72b9653886bf7e72c6fd005619606a978801d654cfb144b357064736f6c6343000807003360a060405234801561001057600080fd5b5033606081901b608052610bf161003260003960006102040152610bf16000f3fe608060405234801561001057600080fd5b50600436106100415760003560e01c80634ce34aa214610046578063899e104c14610076578063c4e8fcb514610089575b600080fd5b610059610054366004610903565b61009e565b6040516001600160e01b0319909116815260200160405180910390f35b610059610084366004610945565b610122565b61009c6100973660046108cc565b6101f9565b005b3360009081526020819052604081205460ff166100ce57604051636821b7df60e01b815260040160405180910390fd5b8160005b8181101561011157368585838181106100ed576100ed610b97565b905060c0020190506100fe816102a3565b508061010981610b58565b9150506100d2565b50632671a55160e11b949350505050565b3360009081526020819052604081205460ff1661015257604051636821b7df60e01b815260040160405180910390fd5b8360005b81811015610195573687878381811061017157610171610b97565b905060c002019050610182816102a3565b508061018d81610b58565b915050610156565b508260005b818110156101e557368686838181106101b5576101b5610b97565b90506020028101906101c79190610b38565b90506101d281610412565b50806101dd81610b58565b91505061019a565b50632671a55160e11b979650505050505050565b336001600160a01b037f00000000000000000000000000000000000000000000000000000000000000001614610242576040516336abb4df60e11b815260040160405180910390fd5b6001600160a01b03821660008181526020818152604091829020805460ff19168515159081179091558251938452908301527fae63067d43ac07563b7eb8db6595635fc77f1578a2a5ea06ba91b63e2afa37e2910160405180910390a15050565b60016102b260208301836109fc565b60038111156102c3576102c3610b81565b1415610309576103066102dc60408301602084016108aa565b6102ec60608401604085016108aa565b6102fc60808501606086016108aa565b8460a001356104ee565b50565b600261031860208301836109fc565b600381111561032957610329610b81565b1415610391578060a001356001146103545760405163efcc00b160e01b815260040160405180910390fd5b61030661036760408301602084016108aa565b61037760608401604085016108aa565b61038760808501606086016108aa565b846080013561068a565b60036103a060208301836109fc565b60038111156103b1576103b1610b81565b14156103f9576103066103ca60408301602084016108aa565b6103da60608401604085016108aa565b6103ea60808501606086016108aa565b84608001358560a00135610723565b604051631e4cbc7f60e21b815260040160405180910390fd5b600061042160208301836108aa565b9050600061043560408401602085016108aa565b9050600061044960608501604086016108aa565b905036600061045b6060870187610aee565b90925090503660006104706080890189610aee565b915091506104e487878787878080602002602001604051908101604052809392919081815260200183836020028082843760009201919091525050604080516020808b0282810182019093528a82529093508a9250899182918501908490808284376000920191909152506107dd92505050565b5050505050505050565b6001600160a01b0384163b61052657604051632f8aeb3960e11b81526001600160a01b03851660048201526024015b60405180910390fd5b604080516001600160a01b0385811660248301528481166044830152606480830185905283518084039091018152608490920183526020820180516001600160e01b03166323b872dd60e01b179052915160009283929088169161058a9190610a58565b6000604051808303816000865af19150503d80600081146105c7576040519150601f19603f3d011682016040523d82523d6000602084013e6105cc565b606091505b5091509150816106185760405163f486bc8760e01b81526001600160a01b038088166004830152808716602483015285166044820152600060648201526084810184905260a40161051d565b80511580159061062a57506020815110155b15610682578080602001905181019061064391906109df565b61068257604051639889192360e01b81526001600160a01b0380881660048301528087166024830152851660448201526064810184905260840161051d565b505050505050565b6001600160a01b0384163b6106bd57604051632f8aeb3960e11b81526001600160a01b038516600482015260240161051d565b6040516323b872dd60e01b81526001600160a01b0384811660048301528381166024830152604482018390528516906323b872dd90606401600060405180830381600087803b15801561070f57600080fd5b505af11580156104e4573d6000803e3d6000fd5b6001600160a01b0385163b61075657604051632f8aeb3960e11b81526001600160a01b038616600482015260240161051d565b604051637921219560e11b81526001600160a01b0385811660048301528481166024830152604482018490526064820183905260a06084830152600060a483015286169063f242432a9060c4015b600060405180830381600087803b1580156107be57600080fd5b505af11580156107d2573d6000803e3d6000fd5b505050505050505050565b6001600160a01b0385163b61081057604051632f8aeb3960e11b81526001600160a01b038616600482015260240161051d565b604051631759616b60e11b81526001600160a01b03861690632eb2c2d6906107a4908790879087908790600401610a93565b80356001600160a01b038116811461085957600080fd5b919050565b60008083601f84011261087057600080fd5b50813567ffffffffffffffff81111561088857600080fd5b60208301915083602060c0830285010111156108a357600080fd5b9250929050565b6000602082840312156108bc57600080fd5b6108c582610842565b9392505050565b600080604083850312156108df57600080fd5b6108e883610842565b915060208301356108f881610bad565b809150509250929050565b6000806020838503121561091657600080fd5b823567ffffffffffffffff81111561092d57600080fd5b6109398582860161085e565b90969095509350505050565b6000806000806040858703121561095b57600080fd5b843567ffffffffffffffff8082111561097357600080fd5b61097f8883890161085e565b9096509450602087013591508082111561099857600080fd5b818701915087601f8301126109ac57600080fd5b8135818111156109bb57600080fd5b8860208260051b85010111156109d057600080fd5b95989497505060200194505050565b6000602082840312156109f157600080fd5b81516108c581610bad565b600060208284031215610a0e57600080fd5b8135600481106108c557600080fd5b600081518084526020808501945080840160005b83811015610a4d57815187529582019590820190600101610a31565b509495945050505050565b6000825160005b81811015610a795760208186018101518583015201610a5f565b81811115610a88576000828501525b509190910192915050565b6001600160a01b0385811682528416602082015260a060408201819052600090610abf90830185610a1d565b8281036060840152610ad18185610a1d565b838103608090940193909352505060008152602001949350505050565b6000808335601e19843603018112610b0557600080fd5b83018035915067ffffffffffffffff821115610b2057600080fd5b6020019150600581901b36038213156108a357600080fd5b60008235609e19833603018112610b4e57600080fd5b9190910192915050565b6000600019821415610b7a57634e487b7160e01b600052601160045260246000fd5b5060010190565b634e487b7160e01b600052602160045260246000fd5b634e487b7160e01b600052603260045260246000fd5b801515811461030657600080fdfea2646970667358221220422a7d2ac9b94ad911e0fc9ca08443b8d513fac8e6a8fc50d91b23c1515838de64736f6c63430008070033",
    "linkReferences": {}
  }
}