{
  "abi": [
    {
      "constant": false,
      "inputs": [
        {
          "name": "dest",
          "type": "address"
        },
        {
          "name": "howToCall",
          "type": "uint8"
        },
        {
          "name": "calldata",
          "type": "bytes"
        }
      ],
      "name": "proxy",
      "outputs": [
        {
          "name": "result",
          "type": "bool"
        }
      ],
      "payable": false,
      "stateMutability": "nonpayable",
      "type": "function"
    },
    {
      "constant": false,
      "inputs": [
        {
          "name": "dest",
          "type": "address"
        },
        {
          "name": "howToCall",
          "type": "uint8"
        },
        {
          "name": "calldata",
          "type": "bytes"
        }
      ],
      "name": "proxyAssert",
      "outputs": [],
      "payable": false,
      "stateMutability": "nonpayable",
      "type": "function"
    },
    {
      "constant": true,
      "inputs": [],
      "name": "proxyType",
      "outputs": [
        {
          "name": "proxyTypeId",
          "type": "uint256"
        }
      ],
      "payable": false,
      "stateMutability": "pure",
      "type": "function"
    },
    {
      "constant": false,
      "inputs": [
        {
          "name": "addrUser",
          "type": "address"
        },
        {
          "name": "addrRegistry",
          "type": "address"
        }
      ],
      "name": "initialize",
      "outputs": [],
      "payable": false,
      "stateMutability": "nonpayable",
      "type": "function"
    },
    {
      "constant": false,
      "inputs": [
        {
          "name": "revoke",
          "type": "bool"
        }
      ],
      "name": "setRevoke",
      "outputs": [],
      "payable": false,
      "stateMutability": "nonpayable",
      "type": "function"
    },
    {
      "constant": true,
      "inputs": [],
      "name": "user",
      "outputs": [
        {
          "name": "",
          "type": "address"
        }
      ],
      "payable": false,
      "stateMutability": "view",
      "type": "function"
    },
    {
      "constant": true,
      "inputs": [],
      "name": "implementation",
      "outputs": [
        {
          "name": "",
          "type": "address"
        }
      ],
      "payable": false,
      "stateMutability": "view",
      "type": "function"
    },
    {
      "constant": true,
      "inputs": [],
      "name": "revoked",
      "outputs": [
        {
          "name": "",
          "type": "bool"
        }
      ],
      "payable": false,
      "stateMutability": "view",
      "type": "function"
    },
    {
      "constant": true,
      "inputs": [],
      "name": "upgradeabilityOwner",
      "outputs": [
        {
          "name": "",
          "type": "address"
        }
      ],
      "payable": false,
      "stateMutability": "view",
      "type": "function"
    },
    {
      "constant": true,
      "inputs": [],
      "name": "registry",
      "outputs": [
        {
          "name": "",
          "type": "address"
        }
      ],
      "payable": false,
      "stateMutability": "view",
      "type": "function"
    },
    {
      "constant": false,
      "inputs": [
        {
          "name": "from",
          "type": "address"
        },
        {
          "name": "value",
          "type": "uint256"
        },
        {
          "name": "token",
          "type": "address"
        },
        {
          "name": "extraData",
          "type": "bytes"
        }
      ],
      "name": "receiveApproval",
      "outputs": [],
      "payable": false,
      "stateMutability": "nonpayable",
      "type": "function"
    },
    {
      "payable": true,
      "stateMutability": "payable",
      "type": "fallback"
    },
    {
      "anonymous": false,
      "inputs": [
        {
          "indexed": false,
          "name": "revoked",
          "type": "bool"
        }
      ],
      "name": "Revoked",
      "type": "event"
    },
    {
      "anonymous": false,
      "inputs": [
        {
          "indexed": true,
          "name": "sender",
          "type": "address"
        },
        {
          "indexed": false,
          "name": "amount",
          "type": "uint256"
        }
      ],
      "name": "ReceivedEther",
      "type": "event"
    },
    {
      "anonymous": false,
      "inputs": [
        {
          "indexed": true,
          "name": "from",
          "type": "address"
        },
        {
          "indexed": false,
          "name": "value",
          "type": "uint256"
        },
        {
          "indexed": true,
          "name": "token",
          "type": "address"
        },
        {
          "indexed": false,
          "name": "extraData",
          "type": "bytes"
        }
      ],
      "name": "ReceivedTokens",
      "type": "event"
    }
  ],
  "bytecode": {
    "object": "0x60806040526001805460a060020a60ff021916905534801561002057600080fd5b506107f1806100306000396000f3006080604052600436106100925760003560e01c63ffffffff1680631b0f7ba9146100ca5780633f801f911461014a5780634555d5c9146101b8578063485cc955146101df5780634c93505f146102065780634f8632ba146102205780635c60da1b1461025157806363d256ce146102665780636fde82021461027b5780637b103999146102905780638f4ffcb1146102a5575b60408051348152905133917fa419615bc8fda4c87663805ee2a3597a6d71c1d476911d9892f340d965bc7bf1919081900360200190a2005b3480156100d657600080fd5b50604080516020600460443581810135601f8101849004840285018401909552848452610136948235600160a060020a0316946024803560ff16953695946064949201919081908401838280828437509497506103159650505050505050565b604080519115158252519081900360200190f35b34801561015657600080fd5b50604080516020600460443581810135601f81018490048402850184019095528484526101b6948235600160a060020a0316946024803560ff16953695946064949201919081908401838280828437509497506105039650505050505050565b005b3480156101c457600080fd5b506101cd61051e565b60408051918252519081900360200190f35b3480156101eb57600080fd5b506101b6600160a060020a0360043581169060243516610523565b34801561021257600080fd5b506101b66004351515610599565b34801561022c57600080fd5b50610235610614565b60408051600160a060020a039092168252519081900360200190f35b34801561025d57600080fd5b50610235610623565b34801561027257600080fd5b50610136610632565b34801561028757600080fd5b50610235610642565b34801561029c57600080fd5b50610235610651565b3480156102b157600080fd5b50604080516020601f6064356004818101359283018490048402850184019095528184526101b694600160a060020a038135811695602480359660443590931695369560849492019181908401838280828437509497506106609650505050505050565b600254600090600160a060020a03163314806103d4575060035460a060020a900460ff161580156103d45750600354604080517f69dc9ff30000000000000000000000000000000000000000000000000000000081523360048201529051600160a060020a03909216916369dc9ff3916024808201926020929091908290030181600087803b1580156103a757600080fd5b505af11580156103bb573d6000803e3d6000fd5b505050506040513d60208110156103d157600080fd5b50515b15156103df57600080fd5b60008360018111156103ed57fe5b14156104715783600160a060020a03168260405180828051906020019080838360005b83811015610428578181015183820152602001610410565b50505050905090810190601f1680156104555780820380516001836020036101000a031916815260200191505b509150506000604051808303816000865af191505090506104fc565b600183600181111561047f57fe5b14156104fc5783600160a060020a03168260405180828051906020019080838360005b838110156104ba5781810151838201526020016104a2565b50505050905090810190601f1680156104e75780820380516001836020036101000a031916815260200191505b50915050600060405180830381855af4925050505b9392505050565b61050e838383610315565b151561051957600080fd5b505050565b600290565b60015460a060020a900460ff161561053a57600080fd5b6001805474ff0000000000000000000000000000000000000000191660a060020a17905560028054600160a060020a0393841673ffffffffffffffffffffffffffffffffffffffff199182161790915560038054929093169116179055565b600254600160a060020a031633146105b057600080fd5b6003805482151560a060020a810274ff0000000000000000000000000000000000000000199092169190911790915560408051918252517f2165014523a6f4135deffed62d70149aad59b64de5aac51e3abbcbe2a83e2f7e9181900360200190a150565b600254600160a060020a031681565b600054600160a060020a031690565b60035460a060020a900460ff1681565b600154600160a060020a031690565b600354600160a060020a031681565b604080517f23b872dd000000000000000000000000000000000000000000000000000000008152600160a060020a03868116600483015230602483015260448201869052915184928316916323b872dd9160648083019260209291908290030181600087803b1580156106d257600080fd5b505af11580156106e6573d6000803e3d6000fd5b505050506040513d60208110156106fc57600080fd5b5051151561070957600080fd5b82600160a060020a031685600160a060020a03167fd65b48fd35864b3528d38e44760be5553248f89bf3ff6b06cca57817cc2650bf86856040518083815260200180602001828103825283818151815260200191508051906020019080838360005b8381101561078357818101518382015260200161076b565b50505050905090810190601f1680156107b05780820380516001836020036101000a031916815260200191505b50935050505060405180910390a350505050505600a165627a7a72305820ca4361c3b27c208a198f9f853a51a3d2fce79d62a3b8c3aeeb9ae88dfb1f26cf0029",
    "linkReferences": {}
  }
}