{
  "abi": [
    {
      "constant": false,
      "inputs": [
        {
          "name": "addr",
          "type": "address"
        }
      ],
      "name": "endGrantAuthentication",
      "outputs": [],
      "payable": false,
      "stateMutability": "nonpayable",
      "type": "function"
    },
    {
      "constant": false,
      "inputs": [
        {
          "name": "addr",
          "type": "address"
        }
      ],
      "name": "revokeAuthentication",
      "outputs": [],
      "payable": false,
      "stateMutability": "nonpayable",
      "type": "function"
    },
    {
      "constant": true,
      "inputs": [
        {
          "name": "",
          "type": "address"
        }
      ],
      "name": "pending",
      "outputs": [
        {
          "name": "",
          "type": "uint256"
        }
      ],
      "payable": false,
      "stateMutability": "view",
      "type": "function"
    },
    {
      "constant": true,
      "inputs": [
        {
          "name": "",
          "type": "address"
        }
      ],
      "name": "contracts",
      "outputs": [
        {
          "name": "",
          "type": "bool"
        }
      ],
      "payable": false,
      "stateMutability": "view",
      "type": "function"
    },
    {
      "constant": false,
      "inputs": [],
      "name": "renounceOwnership",
      "outputs": [],
      "payable": false,
      "stateMutability": "nonpayable",
      "type": "function"
    },
    {
      "constant": true,
      "inputs": [],
      "name": "owner",
      "outputs": [
        {
          "name": "",
          "type": "address"
        }
      ],
      "payable": false,
      "stateMutability": "view",
      "type": "function"
    },
    {
      "constant": true,
      "inputs": [],
      "name": "delegateProxyImplementation",
      "outputs": [
        {
          "name": "",
          "type": "address"
        }
      ],
      "payable": false,
      "stateMutability": "view",
      "type": "function"
    },
    {
      "constant": true,
      "inputs": [
        {
          "name": "",
          "type": "address"
        }
      ],
      "name": "proxies",
      "outputs": [
        {
          "name": "",
          "type": "address"
        }
      ],
      "payable": false,
      "stateMutability": "view",
      "type": "function"
    },
    {
      "constant": false,
      "inputs": [
        {
          "name": "addr",
          "type": "address"
        }
      ],
      "name": "startGrantAuthentication",
      "outputs": [],
      "payable": false,
      "stateMutability": "nonpayable",
      "type": "function"
    },
    {
      "constant": false,
      "inputs": [],
      "name": "registerProxy",
      "outputs": [
        {
          "name": "proxy",
          "type": "address"
        }
      ],
      "payable": false,
      "stateMutability": "nonpayable",
      "type": "function"
    },
    {
      "constant": true,
      "inputs": [],
      "name": "DELAY_PERIOD",
      "outputs": [
        {
          "name": "",
          "type": "uint256"
        }
      ],
      "payable": false,
      "stateMutability": "view",
      "type": "function"
    },
    {
      "constant": false,
      "inputs": [
        {
          "name": "newOwner",
          "type": "address"
        }
      ],
      "name": "transferOwnership",
      "outputs": [],
      "payable": false,
      "stateMutability": "nonpayable",
      "type": "function"
    },
    {
      "anonymous": false,
      "inputs": [
        {
          "indexed": true,
          "name": "previousOwner",
          "type": "address"
        }
      ],
      "name": "OwnershipRenounced",
      "type": "event"
    },
    {
      "anonymous": false,
      "inputs": [
        {
          "indexed": true,
          "name": "previousOwner",
          "type": "address"
        },
        {
          "indexed": true,
          "name": "newOwner",
          "type": "address"
        }
      ],
      "name": "OwnershipTransferred",
      "type": "event"
    }
  ],
  "bytecode": {
    "object": "0x60806040526212750060055560008054600160a060020a03191633179055610c798061002c6000396000f30060806040526004361061009d5760003560e01c63ffffffff16806338b6e407146100a257806353376d1f146100c55780635eebea20146100e657806369dc9ff314610119578063715018a61461014e5780638da5cb5b1461016357806397204d8e14610194578063c4552791146101a9578063d4e8e063146101ca578063ddd81f82146101eb578063e71a02e114610200578063f2fde38b14610215575b600080fd5b3480156100ae57600080fd5b506100c3600160a060020a0360043516610236565b005b3480156100d157600080fd5b506100c3600160a060020a03600435166102f1565b3480156100f257600080fd5b50610107600160a060020a0360043516610329565b60408051918252519081900360200190f35b34801561012557600080fd5b5061013a600160a060020a036004351661033b565b604080519115158252519081900360200190f35b34801561015a57600080fd5b506100c3610350565b34801561016f57600080fd5b506101786103bc565b60408051600160a060020a039092168252519081900360200190f35b3480156101a057600080fd5b506101786103cb565b3480156101b557600080fd5b50610178600160a060020a03600435166103da565b3480156101d657600080fd5b506100c3600160a060020a03600435166103f5565b3480156101f757600080fd5b50610178610472565b34801561020c57600080fd5b50610107610611565b34801561022157600080fd5b506100c3600160a060020a0360043516610617565b600054600160a060020a0316331461024d57600080fd5b600160a060020a03811660009081526004602052604090205460ff1615801561028d5750600160a060020a03811660009081526003602052604090205415155b80156102b55750600554600160a060020a038216600090815260036020526040902054429101105b15156102c057600080fd5b600160a060020a0316600090815260036020908152604080832083905560049091529020805460ff19166001179055565b600054600160a060020a0316331461030857600080fd5b600160a060020a03166000908152600460205260409020805460ff19169055565b60036020526000908152604090205481565b60046020526000908152604090205460ff1681565b600054600160a060020a0316331461036757600080fd5b60008054604051600160a060020a03909116917ff8df31144d9c2f0f6b59d69b8b98abd5459d07f2742c4df920b25aae33c6482091a26000805473ffffffffffffffffffffffffffffffffffffffff19169055565b600054600160a060020a031681565b600154600160a060020a031681565b600260205260009081526040902054600160a060020a031681565b600054600160a060020a0316331461040c57600080fd5b600160a060020a03811660009081526004602052604090205460ff1615801561044b5750600160a060020a038116600090815260036020526040902054155b151561045657600080fd5b600160a060020a03166000908152600360205260409020429055565b33600090815260026020526040812054600160a060020a03161561049557600080fd5b600154604080513360248201819052306044808401919091528351808403909101815260649092019092526020810180517bffffffffffffffffffffffffffffffffffffffffffffffffffffffff167f485cc955000000000000000000000000000000000000000000000000000000001790529091600160a060020a03169061051c6106ab565b8084600160a060020a0316600160a060020a0316815260200183600160a060020a0316600160a060020a0316815260200180602001828103825283818151815260200191508051906020019080838360005b8381101561058657818101518382015260200161056e565b50505050905090810190601f1680156105b35780820380516001836020036101000a031916815260200191505b50945050505050604051809103906000f0801580156105d6573d6000803e3d6000fd5b50336000908152600260205260409020805473ffffffffffffffffffffffffffffffffffffffff1916600160a060020a038316179055919050565b60055481565b600054600160a060020a0316331461062e57600080fd5b600160a060020a038116151561064357600080fd5b60008054604051600160a060020a03808516939216917f8be0079c531659141344cd1fd0a4f28419497f9722a3daafe3b4186f6b6457e091a36000805473ffffffffffffffffffffffffffffffffffffffff1916600160a060020a0392909216919091179055565b604051610592806106bc833901905600608060405234801561001057600080fd5b50604051610592380380610592833981016040908152815160208084015192840151919391909101906100489084906100df811b901c565b6100578261010160201b60201c565b81600160a060020a03168160405180828051906020019080838360005b8381101561008c578181015183820152602001610074565b50505050905090810190601f1680156100b95780820380516001836020036101000a031916815260200191505b50915050600060405180830381855af491505015156100d757600080fd5b505050610164565b60018054600160a060020a031916600160a060020a0392909216919091179055565b600054600160a060020a038281169116141561011c57600080fd5b60008054600160a060020a031916600160a060020a038316908117825560405190917fbc7cd75a20ee27fd9adebab32041f755214dbc6bffa90cc0225b39da2e5c2d3b91a250565b61041f806101736000396000f3006080604052600436106100665760003560e01c63ffffffff168063025313a2146100ac5780633659cfe6146100dd5780634555d5c9146101005780634f1ef286146101275780635c60da1b146101815780636fde820214610196578063f1739cae146101ab575b60006100706101cc565b9050600160a060020a038116151561008757600080fd5b60405136600082376000803683855af43d806000843e8180156100a8578184f35b8184fd5b3480156100b857600080fd5b506100c16101db565b60408051600160a060020a039092168252519081900360200190f35b3480156100e957600080fd5b506100fe600160a060020a03600435166101ea565b005b34801561010c57600080fd5b50610115610212565b60408051918252519081900360200190f35b60408051602060046024803582810135601f81018590048502860185019096528585526100fe958335600160a060020a03169536956044949193909101919081908401838280828437509497506102179650505050505050565b34801561018d57600080fd5b506100c16101cc565b3480156101a257600080fd5b506100c16102c0565b3480156101b757600080fd5b506100fe600160a060020a03600435166102cf565b600054600160a060020a031690565b60006101e56102c0565b905090565b6101f26101db565b600160a060020a0316331461020657600080fd5b61020f81610354565b50565b600290565b61021f6101db565b600160a060020a0316331461023357600080fd5b61023c826101ea565b30600160a060020a03168160405180828051906020019080838360005b83811015610271578181015183820152602001610259565b50505050905090810190601f16801561029e5780820380516001836020036101000a031916815260200191505b50915050600060405180830381855af491505015156102bc57600080fd5b5050565b600154600160a060020a031690565b6102d76101db565b600160a060020a031633146102eb57600080fd5b600160a060020a038116151561030057600080fd5b7f5a3e66efaa1e445ebd894728a69d6959842ea1e97bd79b892797106e270efcd96103296101db565b60408051600160a060020a03928316815291841660208301528051918290030190a161020f816103c4565b600054600160a060020a038281169116141561036f57600080fd5b6000805473ffffffffffffffffffffffffffffffffffffffff1916600160a060020a038316908117825560405190917fbc7cd75a20ee27fd9adebab32041f755214dbc6bffa90cc0225b39da2e5c2d3b91a250565b6001805473ffffffffffffffffffffffffffffffffffffffff1916600160a060020a03929092169190911790555600a165627a7a723058200ce055aa63665ea84dbca96aaffa6f2e20fc7331af67b1098c61fa33562b5d070029a165627a7a7230582026dcb64a0b7aa362e78fbe93ec23e03bf4ee54af5516aedb6cddfe347c55aec10029",
    "linkReferences": {}
  }
}