{
  "abi": [
    {
      "constant": false,
      "inputs": [
        {
          "name": "token",
          "type": "address"
        },
        {
          "name": "from",
          "type": "address"
        },
        {
          "name": "to",
          "type": "address"
        },
        {
          "name": "amount",
          "type": "uint256"
        }
      ],
      "name": "transferFrom",
      "outputs": [
        {
          "name": "",
          "type": "bool"
        }
      ],
      "payable": false,
      "stateMutability": "nonpayable",
      "type": "function"
    },
    {
      "constant": true,
      "inputs": [],
      "name": "registry",
      "outputs": [
        {
          "name": "",
          "type": "address"
        }
      ],
      "payable": false,
      "stateMutability": "view",
      "type": "function"
    }
  ],
  "bytecode": {
    "object": "0x608060405234801561001057600080fd5b5061026b806100206000396000f30060806040526004361061002f5760003560e01c63ffffffff16806315dacbea146100345780637b10399914610085575b600080fd5b34801561004057600080fd5b5061007173ffffffffffffffffffffffffffffffffffffffff600435811690602435811690604435166064356100c3565b604080519115158252519081900360200190f35b34801561009157600080fd5b5061009a610223565b6040805173ffffffffffffffffffffffffffffffffffffffff9092168252519081900360200190f35b60008054604080517f69dc9ff3000000000000000000000000000000000000000000000000000000008152336004820152905173ffffffffffffffffffffffffffffffffffffffff909216916369dc9ff39160248082019260209290919082900301818787803b15801561013657600080fd5b505af115801561014a573d6000803e3d6000fd5b505050506040513d602081101561016057600080fd5b5051151561016d57600080fd5b604080517f23b872dd00000000000000000000000000000000000000000000000000000000815273ffffffffffffffffffffffffffffffffffffffff86811660048301528581166024830152604482018590529151918716916323b872dd916064808201926020929091908290030181600087803b1580156101ee57600080fd5b505af1158015610202573d6000803e3d6000fd5b505050506040513d602081101561021857600080fd5b505195945050505050565b60005473ffffffffffffffffffffffffffffffffffffffff16815600a165627a7a723058208466a4b54534001d568273e8d848d8591c7ad580c232e23b2058008fa97c40950029",
    "linkReferences": {}
  }
}