{
  "abi": [
    {
      "constant": false,
      "inputs": [
        {
          "name": "from",
          "type": "address"
        },
        {
          "name": "value",
          "type": "uint256"
        },
        {
          "name": "token",
          "type": "address"
        },
        {
          "name": "extraData",
          "type": "bytes"
        }
      ],
      "name": "receiveApproval",
      "outputs": [],
      "payable": false,
      "stateMutability": "nonpayable",
      "type": "function"
    },
    {
      "payable": true,
      "stateMutability": "payable",
      "type": "fallback"
    },
    {
      "anonymous": false,
      "inputs": [
        {
          "indexed": true,
          "name": "sender",
          "type": "address"
        },
        {
          "indexed": false,
          "name": "amount",
          "type": "uint256"
        }
      ],
      "name": "ReceivedEther",
      "type": "event"
    },
    {
      "anonymous": false,
      "inputs": [
        {
          "indexed": true,
          "name": "from",
          "type": "address"
        },
        {
          "indexed": false,
          "name": "value",
          "type": "uint256"
        },
        {
          "indexed": true,
          "name": "token",
          "type": "address"
        },
        {
          "indexed": false,
          "name": "extraData",
          "type": "bytes"
        }
      ],
      "name": "ReceivedTokens",
      "type": "event"
    }
  ],
  "bytecode": {
    "object": "0x608060405234801561001057600080fd5b50610293806100206000396000f3006080604052600436106100245760003560e01c63ffffffff1680638f4ffcb11461005c575b60408051348152905133917fa419615bc8fda4c87663805ee2a3597a6d71c1d476911d9892f340d965bc7bf1919081900360200190a2005b34801561006857600080fd5b50604080516020601f6064356004818101359283018490048402850184019095528184526100d99473ffffffffffffffffffffffffffffffffffffffff8135811695602480359660443590931695369560849492019181908401838280828437509497506100db9650505050505050565b005b604080517f23b872dd00000000000000000000000000000000000000000000000000000000815273ffffffffffffffffffffffffffffffffffffffff868116600483015230602483015260448201869052915184928316916323b872dd9160648083019260209291908290030181600087803b15801561015a57600080fd5b505af115801561016e573d6000803e3d6000fd5b505050506040513d602081101561018457600080fd5b5051151561019157600080fd5b8273ffffffffffffffffffffffffffffffffffffffff168573ffffffffffffffffffffffffffffffffffffffff167fd65b48fd35864b3528d38e44760be5553248f89bf3ff6b06cca57817cc2650bf86856040518083815260200180602001828103825283818151815260200191508051906020019080838360005b8381101561022557818101518382015260200161020d565b50505050905090810190601f1680156102525780820380516001836020036101000a031916815260200191505b50935050505060405180910390a350505050505600a165627a7a7230582085e41a2e6facf253d3e17db133813d2f6cd360260a9d1ddfb46b71ca2969edc10029",
    "linkReferences": {}
  }
}