{
  "abi": [
    {
      "constant": true,
      "inputs": [],
      "name": "name",
      "outputs": [
        {
          "name": "",
          "type": "string"
        }
      ],
      "payable": false,
      "stateMutability": "view",
      "type": "function"
    },
    {
      "constant": true,
      "inputs": [],
      "name": "initialAddressSet",
      "outputs": [
        {
          "name": "",
          "type": "bool"
        }
      ],
      "payable": false,
      "stateMutability": "view",
      "type": "function"
    },
    {
      "constant": false,
      "inputs": [
        {
          "name": "addr",
          "type": "address"
        }
      ],
      "name": "endGrantAuthentication",
      "outputs": [],
      "payable": false,
      "stateMutability": "nonpayable",
      "type": "function"
    },
    {
      "constant": false,
      "inputs": [
        {
          "name": "addr",
          "type": "address"
        }
      ],
      "name": "revokeAuthentication",
      "outputs": [],
      "payable": false,
      "stateMutability": "nonpayable",
      "type": "function"
    },
    {
      "constant": true,
      "inputs": [
        {
          "name": "",
          "type": "address"
        }
      ],
      "name": "pending",
      "outputs": [
        {
          "name": "",
          "type": "uint256"
        }
      ],
      "payable": false,
      "stateMutability": "view",
      "type": "function"
    },
    {
      "constant": true,
      "inputs": [
        {
          "name": "",
          "type": "address"
        }
      ],
      "name": "contracts",
      "outputs": [
        {
          "name": "",
          "type": "bool"
        }
      ],
      "payable": false,
      "stateMutability": "view",
      "type": "function"
    },
    {
      "constant": false,
      "inputs": [],
      "name": "renounceOwnership",
      "outputs": [],
      "payable": false,
      "stateMutability": "nonpayable",
      "type": "function"
    },
    {
      "constant": true,
      "inputs": [],
      "name": "owner",
      "outputs": [
        {
          "name": "",
          "type": "address"
        }
      ],
      "payable": false,
      "stateMutability": "view",
      "type": "function"
    },
    {
      "constant": true,
      "inputs": [],
      "name": "delegateProxyImplementation",
      "outputs": [
        {
          "name": "",
          "type": "address"
        }
      ],
      "payable": false,
      "stateMutability": "view",
      "type": "function"
    },
    {
      "constant": true,
      "inputs": [
        {
          "name": "",
          "type": "address"
        }
      ],
      "name": "proxies",
      "outputs": [
        {
          "name": "",
          "type": "address"
        }
      ],
      "payable": false,
      "stateMutability": "view",
      "type": "function"
    },
    {
      "constant": false,
      "inputs": [
        {
          "name": "addr",
          "type": "address"
        }
      ],
      "name": "startGrantAuthentication",
      "outputs": [],
      "payable": false,
      "stateMutability": "nonpayable",
      "type": "function"
    },
    {
      "constant": false,
      "inputs": [],
      "name": "registerProxy",
      "outputs": [
        {
          "name": "proxy",
          "type": "address"
        }
      ],
      "payable": false,
      "stateMutability": "nonpayable",
      "type": "function"
    },
    {
      "constant": true,
      "inputs": [],
      "name": "DELAY_PERIOD",
      "outputs": [
        {
          "name": "",
          "type": "uint256"
        }
      ],
      "payable": false,
      "stateMutability": "view",
      "type": "function"
    },
    {
      "constant": false,
      "inputs": [
        {
          "name": "authAddress",
          "type": "address"
        }
      ],
      "name": "grantInitialAuthentication",
      "outputs": [],
      "payable": false,
      "stateMutability": "nonpayable",
      "type": "function"
    },
    {
      "constant": false,
      "inputs": [
        {
          "name": "newOwner",
          "type": "address"
        }
      ],
      "name": "transferOwnership",
      "outputs": [],
      "payable": false,
      "stateMutability": "nonpayable",
      "type": "function"
    },
    {
      "inputs": [],
      "payable": false,
      "stateMutability": "nonpayable",
      "type": "constructor"
    },
    {
      "anonymous": false,
      "inputs": [
        {
          "indexed": true,
          "name": "previousOwner",
          "type": "address"
        }
      ],
      "name": "OwnershipRenounced",
      "type": "event"
    },
    {
      "anonymous": false,
      "inputs": [
        {
          "indexed": true,
          "name": "previousOwner",
          "type": "address"
        },
        {
          "indexed": true,
          "name": "newOwner",
          "type": "address"
        }
      ],
      "name": "OwnershipTransferred",
      "type": "event"
    }
  ],
  "bytecode": {
    "object": "0x6080604052621275006005556006805460ff1916905534801561002157600080fd5b5060008054600160a060020a0319163317905561003c61007e565b604051809103906000f080158015610058573d6000803e3d6000fd5b5060018054600160a060020a031916600160a060020a039290921691909117905561008e565b60405161082180610e9383390190565b610df68061009d6000396000f3006080604052600436106100be5760003560e01c63ffffffff16806306fdde03146100c35780631a86ac4f1461014d57806338b6e4071461017657806353376d1f146101995780635eebea20146101ba57806369dc9ff3146101ed578063715018a61461020e5780638da5cb5b1461022357806397204d8e14610254578063c455279114610269578063d4e8e0631461028a578063ddd81f82146102ab578063e71a02e1146102c0578063ef7f3834146102d5578063f2fde38b146102f6575b600080fd5b3480156100cf57600080fd5b506100d8610317565b6040805160208082528351818301528351919283929083019185019080838360005b838110156101125781810151838201526020016100fa565b50505050905090810190601f16801561013f5780820380516001836020036101000a031916815260200191505b509250505060405180910390f35b34801561015957600080fd5b5061016261034e565b604080519115158252519081900360200190f35b34801561018257600080fd5b50610197600160a060020a0360043516610357565b005b3480156101a557600080fd5b50610197600160a060020a0360043516610412565b3480156101c657600080fd5b506101db600160a060020a036004351661044a565b60408051918252519081900360200190f35b3480156101f957600080fd5b50610162600160a060020a036004351661045c565b34801561021a57600080fd5b50610197610471565b34801561022f57600080fd5b506102386104dd565b60408051600160a060020a039092168252519081900360200190f35b34801561026057600080fd5b506102386104ec565b34801561027557600080fd5b50610238600160a060020a03600435166104fb565b34801561029657600080fd5b50610197600160a060020a0360043516610516565b3480156102b757600080fd5b50610238610593565b3480156102cc57600080fd5b506101db610732565b3480156102e157600080fd5b50610197600160a060020a0360043516610738565b34801561030257600080fd5b50610197600160a060020a0360043516610794565b60408051808201909152601d81527f50726f6a6563742057797665726e2050726f7879205265676973747279000000602082015281565b60065460ff1681565b600054600160a060020a0316331461036e57600080fd5b600160a060020a03811660009081526004602052604090205460ff161580156103ae5750600160a060020a03811660009081526003602052604090205415155b80156103d65750600554600160a060020a038216600090815260036020526040902054429101105b15156103e157600080fd5b600160a060020a0316600090815260036020908152604080832083905560049091529020805460ff19166001179055565b600054600160a060020a0316331461042957600080fd5b600160a060020a03166000908152600460205260409020805460ff19169055565b60036020526000908152604090205481565b60046020526000908152604090205460ff1681565b600054600160a060020a0316331461048857600080fd5b60008054604051600160a060020a03909116917ff8df31144d9c2f0f6b59d69b8b98abd5459d07f2742c4df920b25aae33c6482091a26000805473ffffffffffffffffffffffffffffffffffffffff19169055565b600054600160a060020a031681565b600154600160a060020a031681565b600260205260009081526040902054600160a060020a031681565b600054600160a060020a0316331461052d57600080fd5b600160a060020a03811660009081526004602052604090205460ff1615801561056c5750600160a060020a038116600090815260036020526040902054155b151561057757600080fd5b600160a060020a03166000908152600360205260409020429055565b33600090815260026020526040812054600160a060020a0316156105b657600080fd5b600154604080513360248201819052306044808401919091528351808403909101815260649092019092526020810180517bffffffffffffffffffffffffffffffffffffffffffffffffffffffff167f485cc955000000000000000000000000000000000000000000000000000000001790529091600160a060020a03169061063d610828565b8084600160a060020a0316600160a060020a0316815260200183600160a060020a0316600160a060020a0316815260200180602001828103825283818151815260200191508051906020019080838360005b838110156106a757818101518382015260200161068f565b50505050905090810190601f1680156106d45780820380516001836020036101000a031916815260200191505b50945050505050604051809103906000f0801580156106f7573d6000803e3d6000fd5b50336000908152600260205260409020805473ffffffffffffffffffffffffffffffffffffffff1916600160a060020a038316179055919050565b60055481565b600054600160a060020a0316331461074f57600080fd5b60065460ff161561075f57600080fd5b6006805460ff199081166001908117909255600160a060020a0390921660009081526004602052604090208054909216179055565b600054600160a060020a031633146107ab57600080fd5b600160a060020a03811615156107c057600080fd5b60008054604051600160a060020a03808516939216917f8be0079c531659141344cd1fd0a4f28419497f9722a3daafe3b4186f6b6457e091a36000805473ffffffffffffffffffffffffffffffffffffffff1916600160a060020a0392909216919091179055565b60405161059280610839833901905600608060405234801561001057600080fd5b50604051610592380380610592833981016040908152815160208084015192840151919391909101906100489084906100df811b901c565b6100578261010160201b60201c565b81600160a060020a03168160405180828051906020019080838360005b8381101561008c578181015183820152602001610074565b50505050905090810190601f1680156100b95780820380516001836020036101000a031916815260200191505b50915050600060405180830381855af491505015156100d757600080fd5b505050610164565b60018054600160a060020a031916600160a060020a0392909216919091179055565b600054600160a060020a038281169116141561011c57600080fd5b60008054600160a060020a031916600160a060020a038316908117825560405190917fbc7cd75a20ee27fd9adebab32041f755214dbc6bffa90cc0225b39da2e5c2d3b91a250565b61041f806101736000396000f3006080604052600436106100665760003560e01c63ffffffff168063025313a2146100ac5780633659cfe6146100dd5780634555d5c9146101005780634f1ef286146101275780635c60da1b146101815780636fde820214610196578063f1739cae146101ab575b60006100706101cc565b9050600160a060020a038116151561008757600080fd5b60405136600082376000803683855af43d806000843e8180156100a8578184f35b8184fd5b3480156100b857600080fd5b506100c16101db565b60408051600160a060020a039092168252519081900360200190f35b3480156100e957600080fd5b506100fe600160a060020a03600435166101ea565b005b34801561010c57600080fd5b50610115610212565b60408051918252519081900360200190f35b60408051602060046024803582810135601f81018590048502860185019096528585526100fe958335600160a060020a03169536956044949193909101919081908401838280828437509497506102179650505050505050565b34801561018d57600080fd5b506100c16101cc565b3480156101a257600080fd5b506100c16102c0565b3480156101b757600080fd5b506100fe600160a060020a03600435166102cf565b600054600160a060020a031690565b60006101e56102c0565b905090565b6101f26101db565b600160a060020a0316331461020657600080fd5b61020f81610354565b50565b600290565b61021f6101db565b600160a060020a0316331461023357600080fd5b61023c826101ea565b30600160a060020a03168160405180828051906020019080838360005b83811015610271578181015183820152602001610259565b50505050905090810190601f16801561029e5780820380516001836020036101000a031916815260200191505b50915050600060405180830381855af491505015156102bc57600080fd5b5050565b600154600160a060020a031690565b6102d76101db565b600160a060020a031633146102eb57600080fd5b600160a060020a038116151561030057600080fd5b7f5a3e66efaa1e445ebd894728a69d6959842ea1e97bd79b892797106e270efcd96103296101db565b60408051600160a060020a03928316815291841660208301528051918290030190a161020f816103c4565b600054600160a060020a038281169116141561036f57600080fd5b6000805473ffffffffffffffffffffffffffffffffffffffff1916600160a060020a038316908117825560405190917fbc7cd75a20ee27fd9adebab32041f755214dbc6bffa90cc0225b39da2e5c2d3b91a250565b6001805473ffffffffffffffffffffffffffffffffffffffff1916600160a060020a03929092169190911790555600a165627a7a723058200ce055aa63665ea84dbca96aaffa6f2e20fc7331af67b1098c61fa33562b5d070029a165627a7a72305820c7211be4d47c7360ea23b7fa7b7fff6d169bfe89e46a3a5730d1b200d952866b002960806040526001805460a060020a60ff021916905534801561002057600080fd5b506107f1806100306000396000f3006080604052600436106100925760003560e01c63ffffffff1680631b0f7ba9146100ca5780633f801f911461014a5780634555d5c9146101b8578063485cc955146101df5780634c93505f146102065780634f8632ba146102205780635c60da1b1461025157806363d256ce146102665780636fde82021461027b5780637b103999146102905780638f4ffcb1146102a5575b60408051348152905133917fa419615bc8fda4c87663805ee2a3597a6d71c1d476911d9892f340d965bc7bf1919081900360200190a2005b3480156100d657600080fd5b50604080516020600460443581810135601f8101849004840285018401909552848452610136948235600160a060020a0316946024803560ff16953695946064949201919081908401838280828437509497506103159650505050505050565b604080519115158252519081900360200190f35b34801561015657600080fd5b50604080516020600460443581810135601f81018490048402850184019095528484526101b6948235600160a060020a0316946024803560ff16953695946064949201919081908401838280828437509497506105039650505050505050565b005b3480156101c457600080fd5b506101cd61051e565b60408051918252519081900360200190f35b3480156101eb57600080fd5b506101b6600160a060020a0360043581169060243516610523565b34801561021257600080fd5b506101b66004351515610599565b34801561022c57600080fd5b50610235610614565b60408051600160a060020a039092168252519081900360200190f35b34801561025d57600080fd5b50610235610623565b34801561027257600080fd5b50610136610632565b34801561028757600080fd5b50610235610642565b34801561029c57600080fd5b50610235610651565b3480156102b157600080fd5b50604080516020601f6064356004818101359283018490048402850184019095528184526101b694600160a060020a038135811695602480359660443590931695369560849492019181908401838280828437509497506106609650505050505050565b600254600090600160a060020a03163314806103d4575060035460a060020a900460ff161580156103d45750600354604080517f69dc9ff30000000000000000000000000000000000000000000000000000000081523360048201529051600160a060020a03909216916369dc9ff3916024808201926020929091908290030181600087803b1580156103a757600080fd5b505af11580156103bb573d6000803e3d6000fd5b505050506040513d60208110156103d157600080fd5b50515b15156103df57600080fd5b60008360018111156103ed57fe5b14156104715783600160a060020a03168260405180828051906020019080838360005b83811015610428578181015183820152602001610410565b50505050905090810190601f1680156104555780820380516001836020036101000a031916815260200191505b509150506000604051808303816000865af191505090506104fc565b600183600181111561047f57fe5b14156104fc5783600160a060020a03168260405180828051906020019080838360005b838110156104ba5781810151838201526020016104a2565b50505050905090810190601f1680156104e75780820380516001836020036101000a031916815260200191505b50915050600060405180830381855af4925050505b9392505050565b61050e838383610315565b151561051957600080fd5b505050565b600290565b60015460a060020a900460ff161561053a57600080fd5b6001805474ff0000000000000000000000000000000000000000191660a060020a17905560028054600160a060020a0393841673ffffffffffffffffffffffffffffffffffffffff199182161790915560038054929093169116179055565b600254600160a060020a031633146105b057600080fd5b6003805482151560a060020a810274ff0000000000000000000000000000000000000000199092169190911790915560408051918252517f2165014523a6f4135deffed62d70149aad59b64de5aac51e3abbcbe2a83e2f7e9181900360200190a150565b600254600160a060020a031681565b600054600160a060020a031690565b60035460a060020a900460ff1681565b600154600160a060020a031690565b600354600160a060020a031681565b604080517f23b872dd000000000000000000000000000000000000000000000000000000008152600160a060020a03868116600483015230602483015260448201869052915184928316916323b872dd9160648083019260209291908290030181600087803b1580156106d257600080fd5b505af11580156106e6573d6000803e3d6000fd5b505050506040513d60208110156106fc57600080fd5b5051151561070957600080fd5b82600160a060020a031685600160a060020a03167fd65b48fd35864b3528d38e44760be5553248f89bf3ff6b06cca57817cc2650bf86856040518083815260200180602001828103825283818151815260200191508051906020019080838360005b8381101561078357818101518382015260200161076b565b50505050905090810190601f1680156107b05780820380516001836020036101000a031916815260200191505b50935050505060405180910390a350505050505600a165627a7a72305820ca4361c3b27c208a198f9f853a51a3d2fce79d62a3b8c3aeeb9ae88dfb1f26cf0029",
    "linkReferences": {}
  }
}